:020000040800F2
:1000000090950120F5010008FD010008FF0100089E
:1000100001020008030200080502000800000000B9
:1000200000000000000000000000000019020008AD
:100030000902000800000000B1020008C102000827
:100040000F0200080F0200080F0200080F0200084C
:100050000F0200080F0200080F0200080F0200083C
:100060000F0200080F0200080F0200080F0200082C
:100070000F0200080F0200080F0200080F0200081C
:100080000F0200080F0200080F0200080F0200080C
:100090000F0200080F0200080F0200080F020008FC
:1000A0000F0200080F0200080F0200080F020008EC
:1000B0000F0200080F0200080F0200080F020008DC
:1000C0000F0200080F0200080F0200080F020008CC
:1000D0000F0200080F0200080F0200080F020008BC
:1000E0000F0200080F0200080F0200080F020008AC
:1000F0000F0200080F0200080F0200080F0200089C
:100100000F0200080F0200080F0200080F0200088B
:100110000F020008096D00080F0200080F02000816
:100120000F0200080F0200080F0200080F0200086B
:100130000F020008000000000000000000000000A6
:100140000000000000000000000000000F02000896
:100150000F0200080F0200080F020008E9710008F2
:100160000F0200080F0200080F0200080F0200082B
:100170000F020008C94B000800000000000000004A
:100180000F0200080F0200080F0200080F0200080B
:100190000F0200080F020008000000000F02000814
:1001A0000000000000000000000000000F02000836
:1001B0000F0200080F02000800000000000000000D
:1001C000000000000000000000000000000000002F
:1001D0000000000000000000000000000F02000806
:1001E000DFF80CD000F0EEF80048004789B10008B5
:1001F000909501200648804706480047FEE7FEE745
:10020000FEE7FEE7FEE7FEE7FEE7FEE7FEE7FEE7C6
:10021000D16B0008E10100081EF0040F0CBFEFF3E2
:100220000880EFF30980816911F8021C91BB01B5C8
:1002300090E80F10E047BDE800508CE80300244B25
:1002400093E80600914208BF704741B91EF0100FB5
:1002500010D12049086820F0010008600AE02CE96C
:10026000F00F1EF0100F08BF2CED108AC1F838C037
:1002700081F822E01A6092F82210906B61F0FF0E74
:100280001EF0100F08BFB0EC108AB0E8F00F80F33A
:1002900009887047104A13689942FAD801B552F894
:1002A00021C00FC8E047BDE80050CCF800007047FF
:1002B00001B50BF0B7FABDE80140EFF3098CBEE7DA
:1002C00001B50BF0EDFCBDE80140EFF3098CB6E79A
:1002D0003000012034EF00E034FB00082DE9F05F2E
:1002E0000546002092469B468846064681464024A5
:1002F0001BE0284641464746224600F053F8534645
:100300005A46C01A914110D311461846224600F0B1
:100310003AF82D1A67EB01084F46224601200021CA
:1003200000F031F817EB00094E41201EA4F1010442
:10033000DFDC484631462A464346BDE8F09F40EAA6
:1003400001039B0703D009E008C9121F08C0042A53
:10035000FAD203E011F8013B00F8013B521EF9D23A
:100360007047D2B201E000F8012B491EFBD2704762
:100370000022F6E710B513460A4604461946FFF771
:10038000F0FF204610BD202A04DB203A00FA02F1DB
:10039000002070479140C2F1200320FA03F3194373
:1003A00090407047202A04DB203A21FA02F0002115
:1003B000704721FA02F3D040C2F120029140084375
:1003C00019467047064C074D06E0E06840F001030F
:1003D00094E8070098471034AC42F6D3FFF704FFC7
:1003E00024000108440001082DE9F04F87B00020E7
:1003F000CDE9050043F63000C4F202000168002494
:1004000041F001010160C4F20204016802AD01F093
:1004100001010191002201994FF0030A016841F0A6
:1004200002010160016801F0020101910199016876
:1004300041F004010160016801F00401019101999A
:10044000016841F008010160016801F008010191B3
:100450000199016841F010010160016801F010018B
:1004600001910199016841F020010160016801F0EA
:10047000200101910199016841F04001016001688A
:1004800001F0400101910199016841F08001016092
:10049000016801F0800101910199016841F48071C6
:1004A00001602946006800F480700190019849F6C7
:1004B000BD3002902046CDE903A202F0D5FA43F602
:1004C0003B70029004F580602946009002F0CCFA5F
:1004D0004EF6FF70029004F50060294602F0C4FA5F
:1004E0004FF69B7004F5406902904846294602F099
:1004F000BBFA4FF6FF70029004F58050294602F0D7
:10050000B3FA4FF6FF4004F5A0570290384629464B
:1005100002F0AAFA4BF63F50029004F5C05029466B
:1005200002F0A2FA4FF63C7004F5E0560290304615
:10053000294602F099FA40F6FF70029004F5005047
:10054000294602F091FA4FF4806002904FF0010BBF
:100550004FF00008CDF80CB020462946CDE9048ABA
:1005600002F082FA4FF0400A1120CDF808A0CDE940
:10057000030B2046294602F077FA4FF40070C4F8C6
:1005800018A0CDE9020B3846CDF8108029464FF06F
:10059000000802F069FA4FF480700290384629464C
:1005A00002F062FA3046CDF808A0294602F05CFA63
:1005B0000427CDE902780098294602F055FA48460A
:1005C0000297294602F050FA8020029030462946D0
:1005D00002F04AFA022002902046294602F044FA2C
:1005E00007B0BDE8F08F000002787F2A1AD1F0B57D
:1005F00081B07F220A704278002A4A7014D08D1C84
:10060000861C57424FF002143046294600F014F879
:10061000044406EB1046013715FA80F5F4D1204664
:1006200001B0F0BD00F008B84FF00214204601B050
:10063000F0BD0000000000002DE9F04F8DB090F9F2
:10064000002007460D46D0B2B2F1FF3F08DC9F28DC
:1006500006D8384629460DB0BDE8F04F01F0FCBE83
:10066000A84608F8010BBA461AF8010B1E2800F23A
:100670004283DFE810F01F003D004A00C300D100B4
:10068000E600DB024003470364036F0340034003BB
:100690004003400340037903B003C503DF03EE03C7
:1006A0002404400465046F04790483048D049604D3
:1006B000A0040A059AF80020A91C0020A2F1F0036A
:1006C0000F2B01F2BA81DFE813F01000330A520A4F
:1006D000520A520A520A520A520A520A520A520A3A
:1006E000520A520A380A440A4E0A372001F032BA36
:1006F0009AF80000012800F0F585002840F00A86ED
:10070000B87800F0010000F0F3BD9AF8000000276F
:10071000022880F04A8540F268100C97C2F201006E
:100720000126067140200890112040F2100BCDE9FF
:1007300009060320C4F2020B0B9008ADABF11000C8
:1007400029460790402402F08FF941F2F030CBF8AF
:1007500008400BEB00094FF4007A48462946CDE9E2
:1007600008A60A9702F080F94FF6080041F61044F7
:10077000CFF6FF70C4F2020444F800A04020A4F1B8
:10078000100608903046294602F06EF94020A0601D
:1007900004240BF57C7029464FF0400ACDE9084748
:1007A00002F062F90BF53F600894294602F05CF90B
:1007B000802008903046294602F056F90220089021
:1007C000032009902946079802F04EF94FF48070F3
:1007D00008904846294602F047F949F200714FF463
:1007E0008000C0F24911CBF80800491EFDD100BFBE
:1007F00000BFCBF808A0012700F051BD40F26810FF
:10080000C2F2010000210125017188F8001005F1F4
:1008100001100DB0BDE8F08F787840F26811C2F297
:100820000101087401257888C0F205058882B8881E
:10083000C882002088F8000005F101100DB0BDE865
:10084000F08F40F26816C2F201063079022800F0FB
:100850006385012840F0298700223270EB1C97F84D
:100860000290FE1CB9F1000F01F088810020069370
:100870000490002400200021B34607911BF8017B5F
:10088000B9071AD4002C7AD040F268100594C2F24D
:100890000100808AC4430E2008A904F001FC02284C
:1008A0005BD1013401F0B48140F26810C2F2010062
:1008B00000780028EFD001F0ABB9E4B140F2681045
:1008C000C2F2010007F01101808A012932D105949A
:1008D000C443384608A904F0E3FB022877D1013469
:1008E00001F0968140F26810C2F201000078002801
:1008F000EFD001F08DB90024F90600F1A88040F294
:100900006816C2F20106B18AFA075BD1CE433846B7
:1009100008A904F0C5FB022840F00C81013601F063
:10092000798440F26810C2F2010000780028EED00D
:1009300001F070BCC4430E2008A904F0B1FB0228EA
:100940004AD1013401F0398240F26810C2F201004C
:1009500000780028EFD001F030BA0128059C41F062
:100960002E820898069A1070111D0898000A0691A8
:100970005070BDF8220090709DF82300D070D6F81A
:100980000100B90606F1050B089013D440F2681671
:10099000C2F20106B08AC443384608A904F080FBBD
:1009A000022845D1013401F0088230780028F3D0C4
:1009B00001F003BA40F26816C2F201060024B061E9
:1009C0000120F5E0002C00F09F800021EFE0059C65
:1009D000012805D001F0F3B90024012841F0EF818E
:1009E0000898002C069A107002F1040108984FEA4A
:1009F00010205070BDF8220090709DF82300D07038
:100A00001FD038061ED540F26810069AC2F20100C7
:100A1000C068010A5171010C1071000E917102F150
:100A20000801D07101200691F9067FF568AF0EE04C
:100A3000012841F01284380600F1AB800024012027
:100A4000B4E0002401200691F9067FF558AF40F28A
:100A500068110594C2F20101C88A06F1050B0290E3
:100A6000F807D6F8010003902DD10E46B08AC44392
:100A7000384608A904F014FB022805D1013433D00C
:100A800030780028F4D02FE001282ED10898B169E1
:100A90000140029800284FF001001CBF039A9142C8
:100AA00000F0B38040F26816C2F2010630780028E8
:100AB0000298A0F101000290D8D00120039A059C71
:100AC00091421AD0AAE0888A0E46C44300213846D3
:100AD00004F0E6FA022857D1013401F09980307809
:100AE0000028F3D001F094B802200899B2691140AF
:100AF000039A059C914240F09180012841F05F816A
:100B000000200490012053E0CE430021384604F039
:100B1000C7FA02285BD1013601F04F8140F268101C
:100B2000C2F201000078002400284FF00200ECD04F
:100B300001F045B9012841F0428138060ED540F256
:100B40006810069AC2F20100C068010A5170010CD7
:100B50001070000E9170111DD0700691089800233E
:100B6000069A1070111D0898000A04935070BDF881
:100B70002200069190709DF82300D070012040F271
:100B80006816C2F2010613E001283FF46FAF01F0CE
:100B900040B8F068010A069C020C2070030E6170D8
:100BA000271DA2700120E370002406970121049103
:100BB00031780029079901F10101079141F0FF8087
:100BC000B9F101095E467FF459AE01F063BA01281C
:100BD00041F04383380604D400200490012001240E
:100BE000CDE740F26816069CC2F20106F068271DA8
:100BF000010A2070020C6170030EA2700020E370E5
:100C00000490012006970124D2E740F26816C2F250
:100C10000106039A059C91423FF46FAF40F010002B
:100C2000B9F1000F41F0CF8001F034BA40F2681002
:100C3000C2F201000079022800F05485012840F03A
:100C4000BD8540F268104FF0000BC2F2010080F841
:100C500000B005F10409B878F97840EA0123002BC7
:100C600000F08E873C79A00700F18D87CDF81890B1
:100C70004FF0000B0DF1200940F268105AF8041FE4
:100C8000C2F20100808A013BCDE90731C64320460C
:100C9000494604F005FA02280BD1013600F0BF875F
:100CA00040F26810C2F2010000780028EFD000F096
:100CB000B6BF01281CD1079B0BF1010B002BDBD128
:100CC00040F26810C2F20100808AC4430E20002165
:100CD00004F0E6F902280BD1013400F0A08740F2BD
:100CE0006810C2F20100007800284FF00200EDD039
:100CF000069901F0BDB8FF2028704FF001100DB02B
:100D0000BDE8F08F40F26810C2F2010001790125C0
:100D1000C0F20505022900F06185012940F07485C3
:100D2000D7F8020008A908900020002404F0B8F9C0
:100D300088F8004005F101100DB0BDE8F08F78781B
:100D4000B97840EA0120D8214843401EFDD100BFB8
:100D500000BFD2E24FF48070A5F80100022505F132
:100D600001100DB0BDE8F08FBC787D7814F0010B58
:100D7000D7F8036000F09381E80741F610414FF087
:100D80004000C4F2020108BF4FF48000886014F0F4
:100D9000020940F0888114F0040A00F09781680786
:100DA0004FF6080141F610424FF48070CFF6FF7104
:100DB00058BF4FF08070C4F20202505014F080000F
:100DC000079040F088811020002EC4F2020040F00D
:100DD0008B8100F0B0BFD7F80100002800F06882D6
:100DE0004FF68011C0F237318842C0F0158540F2CD
:100DF0006810C2F2010001214171816001F067B801
:100E00007D78B91C002D08BF4FF48075284605F089
:100E100053FC4FF4604000EB45303FFA80F0002176
:100E200000F5803088F80010451C05F101100DB068
:100E3000BDE8F08F9AF8000040F26812C2F2010299
:100E400000F0030101311177C0F3800050770020DA
:100E5000A2E1002088F800009AF80000002800F0C5
:100E60002A82BC1C0235C0F1000A4FF001084FF085
:100E7000010900BF14F8016B21462A4616F03F0015
:100E800000F107004FEAD007304608BF082702F0FC
:100E9000AFFD09EB070016F080011CBF3D44B844CC
:100EA0003C441AF1010A00F10109E3D14FEA09407B
:100EB00048EA000505F101100DB0BDE8F08F9AF881
:100EC000009040F2681BC2F2010BB9F1000F8BF8E1
:100ED0001E9000F0A585A9F1010CBCF1030F09F0EB
:100EE000030E80F0AB8400250023BEF1000F40F01C
:100EF000CB8400F0EBBC40F26810C2F20100017933
:100F0000022940F048819AF80010827FC17791420F
:100F100080F041810E2002F093FA02F0C5FC00211E
:100F20006970010AA870E970010C000E29716871DE
:100F30000525C0F2010505F101100DB0BDE8F08FE7
:100F40005046414605F0E8FD054605F101100DB09B
:100F5000BDE8F08F5046414605F082FD054605F19B
:100F600001100DB0BDE8F08F5046414605F0DCFBA6
:100F7000054605F101100DB0BDE8F08F5046414621
:100F800005F0EEFB054605F101100DB0BDE8F08F50
:100F9000404605F08DFD054605F101100DB0BDE898
:100FA000F08F5046414605F00FFC054605F1011053
:100FB0000DB0BDE8F08F4FF0000B88F800B09AF844
:100FC0000000002800F08281C0F101061020C4F268
:100FD000020041F2F0310844BC1C079002350120A8
:100FE0004FF00108069000BF14F8017B17F03F0096
:100FF00000F107004FEAD00A08BF4FF0080A17F0C7
:10100000800906D04FF40070CDF830B0CDE9080B60
:1010100006E04FF40070CDF830B008900120099040
:101020000320CDF828B00B9008A9079801F01CFD0B
:10103000384621462A4603F0C3FF66B1B9F1000FD6
:101040001AD0069808F1010850445544069001361C
:10105000012EC9D13EE14FF40070CDF830B00890B8
:101060000120CDE9090B03200B9008A9079801F096
:10107000FBFCB9F1000FE4D108EB0A00544400F185
:1010800001080136012EAFD124E15046414605F05A
:101090005FFC054605F101100DB0BDE8F08F14F0BE
:1010A00002093FF478AEA8074FF6080141F6104256
:1010B0004FF40070CFF6FF7158BF4FF00070C4F2CC
:1010C0000202505014F0040A7FF469AE14F080005C
:1010D00007903FF478AEE8090BF00EFD1020002ECB
:1010E000C4F2020000F0278604F02001B1FA81F179
:1010F0004A094CF2C061C0F22D018E4238BF314620
:10110000D823594305F0E003B3FA83F35B0941F2B6
:10111000040E5C4643EA0206CEF2000E4FEAD51CEE
:10112000DEF800306F084FEA950B002C86F00102C4
:1011300000F0D583B9F1000F00F0A084D0F800448E
:10114000C4F38004AC421FD141F61044C4F202043F
:101150002468C4F3C014A74216D1BAF1000F09D015
:101160000468C4F34004BBEB040418BF0124144317
:1011700001D009E046B1079C002C1EBF0468C4F3EF
:101180008014A44500F0D785DEF80040E41A8C42B4
:10119000D4D300F0D0BDFF2088F800004FF0011537
:1011A00005F101100DB0BDE8F08F40F0788040F2FD
:1011B0006810C2F201000227077100200C90402045
:1011C0000890112040F2100A0990012503200A9589
:1011D000C4F2020A0B9008AEAAF110003146079043
:1011E0004FF00009402401F03FFC4FF4007BCAF8A7
:1011F000084041F2F030CDE908B50AEB0005CDF822
:1012000028902846314601F02FFC4FF6080941F698
:101210001044CFF6FF79C4F2020444F809B04FF449
:10122000807B2846CDF820B0314601F01DFCA4F1AA
:10123000100544F809B04FF040092846CDF8209039
:10124000314601F011FCC4F80890042400200894F1
:1012500009900AF57C7031464FF0400901F004FC1A
:101260000AF53F600894314601F0FEFB80200890AB
:101270002846314601F0F8FB07983146089701F0FF
:10128000F3FB4FF48000CAF8080049F20070C0F286
:101290004910401EFDD100BF00BFCAF8089088F871
:1012A00000704FF0011505F101100DB0BDE8F08F91
:1012B000FF2000F016BE4FF001084FF4803048EADE
:1012C000000505F101100DB0BDE8F08F01204FF0D1
:1012D00001080690069840EA084505F101100DB096
:1012E000BDE8F08FB878C0074FF0020008BF0120BA
:1012F00040F22811C2F2010108700020012188F893
:101300000000C0F20501A1F5403505F101100DB056
:10131000BDE8F08FFF20F1E74FF0000B86F800B03A
:1013200005F103097878B17FF077884280F09783E0
:10133000BC780337002C00F038850020CDF81090E1
:10134000059000200521069000204FF0000BB946C3
:10135000079719F8017B3A4661F35F02B907CDE9B7
:10136000022B19D4069898B305980A2802D00A20AF
:1013700002F066F8B08AB346C6430E2008A902F010
:10138000CBFB022865D1013600F009869BF80000EE
:101390000028F2D000F003BE0699E1B1B346B68A48
:1013A00017F0100001903ED1059890423BD1F643D2
:1013B000384608A902F0B0FB022840F0BD80013693
:1013C00000F01B879BF800000028F1D000F015BF4B
:1013D000DDF8109052E0002107F010030691002B79
:1013E00000F0D480F08A0190059890420798D0F8D8
:1013F000011000F105000591079002D0029802F05B
:101400001FF8B08A6FEA00090021384602F084FB19
:1014100002285CD119F1010900F0E2863078002839
:10142000F2D000F0DDBE05980A2802D00A2002F0B2
:1014300007F8F6430E2008A902F06EFB022877D1C8
:10144000013600F0DF869BF800000028F2D000F0A3
:10145000D9BE012840F0FF8608985E46049A1070B5
:10146000000A5070111DBDF82200894690709DF849
:101470002300D0700A200590DDF80CB0079AB90659
:10148000D2F8010002F10502089007921AD40298DE
:101490000599814202D0029801F0D2FFB08AB3468A
:1014A000CDF81090C643384608A902F035FB022853
:1014B00072D1013600F0CB869BF800000028F2D0F4
:1014C00000F0C5BE0021B06106910120C7E00128EF
:1014D00040F01387B08AB346C643384608A902F0E5
:1014E0001BFB022807D1013600F083809BF8000027
:1014F0000028F2D07DE001287CD10898DBF8181094
:101500000140019800284FF001001CBF059A91424C
:1015100074D09BF800005E4600280198A0F10100FD
:101520000190D7D00120059A91426BD000F08FBF77
:101530000A210591002106910128019B40F0E586D2
:1015400008985E46049A1070000A5070BDF8220098
:101550000699907000299DF8230002F10401D070D3
:101560003CD03806DDF80CB00AD5F068010A049AC0
:101570005171010C1071000E917102F10801D071CE
:1015800001200491029A002B7FF42CAF069959B1E7
:101590004F46DDF8109063E0012840F0B086380631
:1015A00049D40020069030E00598904202D002987D
:1015B00001F046FFB08AB346C6430021384602F028
:1015C000ABFA022828D1013600F035879BF80000DD
:1015D00000284FF00200F0D000F02ABF0020069053
:1015E00001200491DDF80CB0029A002B7FF4FAAED2
:1015F000CCE702200899DBF818201140059A9142A7
:1016000040F02587012840F07C8602990120059151
:101610005E46DDE903B922E0012840F0098738067B
:101620002DD401210691012002994F4605915E4675
:10163000DDE903B914E0DBF80C005E46010A049B07
:10164000020C18705970191D9A7000220692894672
:101650000299000E0591D8700120DDF80CB0079FAB
:10166000CDF810900BF1010B3178002940F0E7869E
:10167000013C4FF005017FF46AAE00F09ABCDBF844
:101680000C005E46010A049F020C38707970030E4C
:10169000BA700122391D0692FB704F4689460299A5
:1016A00005910120DDF80CB0DAE7B878F91C0028C4
:1016B00000F0698410F00303A0F1010200F0278418
:1016C0000E78B7074FF0050702D5F60658BF012779
:1016D000012B394440F058831046032AC0F053844C
:1016E00000F017BC40F268104FF0000BC2F201008E
:1016F000024680F800B09AF800002B1D917FD07749
:10170000884280F0B081B878F97840EA0126002E4E
:1017100000F04F833C79079304F0010006900A30F3
:1017200001F08EFEA00700F165834FF0000B0DF174
:10173000200940F268105AF8041FC2F20100089113
:10174000808A013E0596C6432046494602F0E4F9E8
:1017500002280BD1013600F0C18540F26810C2F2B8
:10176000010000780028EFD000F0B8BD012840F05B
:10177000B685059E0BF1010B002EDAD1069810B14B
:101780000A2001F05DFE40F26810C2F20100808A7A
:10179000C4430E20002102F0BFF9022840F09F85CB
:1017A000013400F09B8540F26810C2F2010000781D
:1017B00000284FF00200ECD000F091BD0020A5F809
:1017C0000100E87003203979890740F15D8340F416
:1017D000802505F101100DB0BDE8F08F9AF80010DA
:1017E000827FC177914280F04181082001F028FE7C
:1017F000D7F8020002F0E8FF002088F8000005F1A9
:1018000001100DB0BDE8F08FFF2088F8000005F151
:1018100001100DB0BDE8F08F4FF2FF21C0F26F61F3
:101820000144B1FBF0F140F268120020C2F2010263
:101830000C29507180F05B81012048E3A9EB0E0A6E
:10184000002500237E19B1780BEB05000BEB450258
:1018500080F82010194413850435F478AA4580F8DF
:10186000214051852144337980F8223091851944F3
:10187000737980F823300B44D185E3D1781900F1D6
:10188000010ABEF1000F21D00BF11E079AF80100EA
:10189000791907EB45028870BEF1010F53810344AB
:1018A00014D0681C9AF802103A1807EB40009170A7
:1018B000BEF1020F43810B4408D0A81C9AF8031014
:1018C0003A1807EB4000917043810B44BCF1030FC1
:1018D0006BD20027BEF1000F40F08480A0E0B9F188
:1018E000000F00F00981BAF1000F00F09B81E6B112
:1018F00041F61042C4F202021268C2F3C0129742CB
:101900000DD10268C2F34002934508D1079A002A1C
:101910001EBF0268C2F38012944500F00C82DEF80C
:101920000020D21A8A42E3D305E241F61042C4F203
:1019300002021268C2F3C012974208BF0268DEF8C2
:101940000020D21A8A4280F0F68141F61042C4F299
:1019500002021268C2F3C012974208BF0268DEF8A2
:101960000020D21A8A4280F0E68141F61042C4F289
:1019700002021268C2F3C012974208BF0268DEF882
:101980000020D21A8A4280F0D68141F61042C4F279
:1019900002021268C2F3C012974208BF0268DEF862
:1019A0000020D21A8A42C0D3C5E1A9EB0E06002757
:1019B0000BEB070090F820100BEB470590F8212067
:1019C0000437591A90F822308A1A90F82300D41A52
:1019D0002987231A6A87BE42AC87EB87E8D1BEF11C
:1019E000000F1DD00BF11E02D0198078BEF1010F3F
:1019F000A3EB000302EB4700438311D0781C1118BE
:101A0000897802EB4000BEF1020FA3EB0103438390
:101A100006D0B81C1118897802EB4000591A41838E
:101A20004FF48031002001EB094188F800004D1C83
:101A300005F101100DB0BDE8F08F042A40F0978049
:101A40003020888042F63260C2F63060086006209E
:101A500088F8000000F102100DB0BDE8F08F0237E9
:101A6000002000F0D7BC002000F03ABCFF2088F82E
:101A7000000005F101100DB0BDE8F08FBAF1000FC4
:101A80001DD0D0F80044C4F38004AC4211D10468E6
:101A9000C4F34004BBEB040418BF0124144308D171
:101AA000079C002C1EBF0468C4F38014A44500F0FA
:101AB0004281DEF80040E41A8C42E2D33BE1D0F8E8
:101AC0000044C4F38004641B18BF0124144308D1EC
:101AD000079C002C1EBF0468C4F38014A44500F0CA
:101AE0002A81DEF80040E41A8C42E8D323E117296A
:101AF00080F0B1800220EAE1BAF1000F00F0B0807E
:101B00000468C4F34004BBEB040418BF012414436D
:101B100008D1079C002C1EBF0468C4F38014A445A0
:101B200000F00981DEF80040E41A8C42E8D302E1BB
:101B30004EF20060C0F6DF4001E04FF40060C5F8EF
:101B40000200042088F8000000F102100DB0BDE88A
:101B5000F08F08200870012088F8000000F10210C2
:101B60000DB0BDE8F08F4FF400706880022088F857
:101B7000000000F102100DB0BDE8F08F002036E348
:101B80004946002074E1E00740F05281CA464FF018
:101B9000000B0DF12009E00740F268112046C2F267
:101BA000010118BF0E20898A013B0793002B6FEAC1
:101BB000010608BF04462046494603F071FA022890
:101BC0000AD1013600F0528140F26810C2F20100E1
:101BD00000780028EFD049E1012840F048810898BA
:101BE0000BF1010B010A079B8AF80110002BBDF8CD
:101BF00022108AF802100AF104019DF823208AF8C5
:101C000000004FF001008AF803208A46C3D12FE17B
:101C10000220059CB9F1000F40F0D5803AE2022085
:101C2000069925E1002E5DD041F61042C4F2020271
:101C30001268C2F3C012974207D1079A002A1EBF4A
:101C40000268C2F38012944575D0DEF80020D21AE3
:101C50008A42E9D36FE0372980F03581092036E1E7
:101C60005EB3079A002A66D00268C2F380129445D8
:101C700061D0DEF80020D21A8A425CD20268C2F338
:101C80008012944557D0DEF80020D21A8A4252D2F0
:101C90000268C2F3801294454DD0DEF80020D21ABB
:101CA0008A4248D20268C2F38012944543D0DEF8DB
:101CB0000020D21A8A42D7D33DE0DEF80020D21AA3
:101CC0008A423EBFDEF80020D21A8A4233D2DEF8C2
:101CD0000020D21A8A422ED2DEF80020D21A8A427E
:101CE000EBD328E041F61042C4F202021268DEF89B
:101CF0000020D21A8A421ED241F61042C4F20202D9
:101D00001268DEF80020D21A8A423FBF41F6104224
:101D1000C4F202021268DEF800203CBFD21A8A42E6
:101D200009D241F61042C4F202021268DEF8002025
:101D3000D21A8A42D6D341F61042D0F80014C4F227
:101D40000202C1F380011268022303EA92121144D5
:101D5000026802F0020241EA4201D0F8002C02F0CF
:101D60000402006841EA420100F0400041EA4000FC
:101D7000012188F80000C0F2050101F5803505F168
:101D800001100DB0BDE8F08F0E78B7074FF00507D2
:101D900002D5F60658BF0127022B394440F0AD802A
:101DA0000238032AC0F0EF80B3E04FF0000B0020B0
:101DB00030E34FF0000B002092E200240220B9F142
:101DC000000F00F0678119F00302A9F1010100F092
:101DD0001E819BF80070BB074FF0050302D5FF067C
:101DE00058BF0123012A9B445AD18946032980F018
:101DF00010814FE140F26810C2F20100808AB146C2
:101E00004FF0000BC6430021204601F085FE02285A
:101E100040F09781013606D040F26810C2F201000E
:101E200000780028EFD00220079B4FF0000B57E20C
:101E300040F26810C2F20100808A9A464FF0000B0F
:101E4000C6430021204603F02BF9022840F0C2814E
:101E5000013606D040F26810C2F201000078002876
:101E6000EFD002204FF0000B494601E0022051461E
:101E70004FEA1B2285F801B0AA70E870A1EB0800B8
:101E8000397989073FF5A3ACB978FA7841EA02219C
:101E9000013140EA814505F101100DB0BDE8F08F38
:101EA0009BF80070BB074FF0050302D5FF0658BF33
:101EB0000123022A9B4440F09E80A9F102090329D4
:101EC00080F0A780E6E048086D2938BF282040F25E
:101ED0006811C2F201010A79022A08BF0130886044
:101EE0000020012188F80000C0F20501A1F580352D
:101EF00005F101100DB0BDE8F08F0F78BB074FF072
:101F0000050302D5FF0658BF012319440338032AED
:101F100039D30A7893071FD405228B5C11449F079D
:101F200023D5DA064FF0050258BF01228B5C11441D
:101F30009F071FD5DA064FF0050258BF01228B5CC0
:101F400011449F071BD5DA064FF0050258BF012246
:101F500004381144DDD116E0D2064FF0050258BF17
:101F600001228B5C11449F07DBD405228B5C11445A
:101F70009F07DFD405228B5C11449F07E3D4052221
:101F800004381144C5D1A1EB0A0100200904A5F8C9
:101F900001008D1C05F101100DB0BDE8F08F0A2085
:101FA00005900220002C40F0B3814F465E46DDF8DC
:101FB0000CB0012840F02C82079705980A28DDF81C
:101FC000109002D00A2001F03BFAB08A0699C4436F
:101FD000002900F0A58008AF0E20394601F09CFDD5
:101FE000022840F01D81013402D030780028F3D05F
:101FF0000220079F0EE29BF800309A074FF005027F
:1020000002D5DB0658BF01229344A9F10309032935
:1020100040D39BF800108A0716D405211BF8012035
:10202000594493071AD405228B5C11449F071ED490
:1020300005228B5C11449F0722D40522B9F10409C3
:1020400001EB020BE5D125E0C9064FF0050158BFB1
:1020500001211BF8012059449307E4D5D2064FF023
:10206000050258BF01228B5C11449F07E0D5DA06B8
:102070004FF0050258BF01228B5C11449F07DCD54D
:10208000DA064FF0050258BF0122B9F1040901EB4D
:10209000020BBED1012840F0A78094B140F268162F
:1020A000C2F20106B08A08AFC4430E20394602F0DE
:1020B000F7FF022820D101341CD030780028F4D05A
:1020C00018E0049840F268160028C2F2010600F0F9
:1020D0008A80B08AC4430E20002102F0E1FF02286A
:1020E00040F08280013405D0307800284FF00200A3
:1020F000F1D079E0022077E0012875D108985E469A
:10210000069A1070111D08980B46000A5070BDF811
:10211000220090709DF82300D0700120079A66E09D
:10212000079F0E20002101F0F7FC022840F0728189
:10213000013400F09880307800284FF00200F0D091
:1021400068E10128079B40F0CB800698A9F10106C1
:1021500000284FF0000B00F088800DF12009079354
:102160001EB90A2001F06CF90E2440F26810C2F288
:102170000100808A6FEA000A2046494601F0CCFC43
:1021800002280DD11AF1010A00F0A88040F268106F
:10219000C2F20100007800284FF00200ECD09EE06F
:1021A000012840F09C80089A0BF1010B110A079856
:1021B0004170031DBDF82210002E079381709DF819
:1021C00023100270A6F10102C1704FF00100164603
:1021D000C6D185E0012853463FF4D8AC494647E6CE
:1021E000B34602208DE001205E46DDE90632A6EB13
:1021F0000A016A70A3EB080212E10220002C40F0F1
:102200008780D2E60A200590002006900220002C4C
:102210007ED1CAE60220B9F1000F7FF4D4AD39E7D0
:102220000128079F40F0F680089809F1040189F819
:102230000000000A89F80100BDF8220089F80200B8
:102240009DF8230089F8030001208946E2E0002080
:102250000690022055E00A2156E00024B9F1000F53
:102260007FF4B1AD16E70220D4E0079340F2681086
:10227000C2F20100808AA246002E08BF4FF00E0A6B
:102280006FEA0009504608A901F046FC02280CD16B
:1022900019F1010922D040F26810C2F20100007861
:1022A00000284FF00200EDD019E0012817D1089A5C
:1022B0000BF1010B110A07984170031DBDF82210A4
:1022C000002E079381709DF823100270A6F1010281
:1022D000C1704FF001001646C8D101E00220079BF3
:1022E0004FEA1B2185F801B0A970E870A3EB080044
:1022F000397989073FF56BAAC6E5B34601E00021AD
:102300000691DDF81C9002990591002C3FF44DAE2A
:1023100014F00302A4F1010112D099F80070BB0778
:102320004FF0050302D5FF0658BF0123012A994447
:102330005E464AD10C46DDF80CB0032905D263E0B5
:102340005E46DDF80CB003295ED399F800108A07C9
:1023500015D4052119F801204944930719D4052201
:102360008B5C11449F071DD405228B5C11449F0791
:1023700021D40522043C01EB0209E6D144E0C90660
:102380004FF0050158BF012119F801204944930776
:10239000E5D5D2064FF0050258BF01228B5C1144EF
:1023A0009F07E1D5DA064FF0050258BF01228B5C8A
:1023B00011449F07DDD5DA064FF0050258BF012210
:1023C000043C01EB0209C0D11EE099F80070DDF871
:1023D0000CB0BB074FF0050302D5FF0658BF012321
:1023E000022A994403D1023C0329AED20CE099F8A9
:1023F00000309A074FF0050202D5DB0658BF0122D4
:102400009144033C0329A0D24F4601283FF4D4ADA8
:10241000DDF81090A7EB0A0185F801B0A9EB0802DE
:10242000A87042EA014505F101100DB0BDE8F08F3A
:102430000021069167E700200690022063E7CDF8AF
:102440000CB0B346B946002C7FF462AFADE540F066
:10245000100056E700000000FF224FF001100A7044
:10246000704700000000000040F26810C2F2010056
:10247000002108228180826064220174C0E9052164
:10248000012282838177704740F2561542F6782602
:1024900043F678284FF00009C2F20105C2F20106A6
:1024A0007F27C2F2010800BF812000214FF0FF32D8
:1024B00009F02AFD58E000BFAC886002305C7E283D
:1024C00019D106EB442000BF0770601C6988B0F189
:1024D000080418BF04468C4207D1812000214FF028
:1024E000FF3209F011FD000605D46002305C7E2841
:1024F00006EB4420E8D0A888698906EB402008EB69
:102500004121FEF771F8A8880130A880A888082822
:1025100008BFA5F804902889013028816889013016
:1025200068816889082808BFA5F80A90E889013001
:10253000E8812878C0B1E889298A884214D0A8891E
:102540004FF40073411CA98108EB4022A9890020A7
:10255000082908BFA5F80C90298A01312982002199
:1025600085F800900CF070FAE88829898842A3D198
:102570009AE700000000000040F2341540F678268B
:1025800041F678284FF00009C2F20105C2F20106B7
:102590007F27C2F2010800BF812000214FF0FF32E7
:1025A00009F0B2FC70E000BFAC886002305C7E28AD
:1025B00019D106EB442000BF0770601C6988B0F198
:1025C000080418BF04468C4207D1812000214FF037
:1025D000FF3209F099FC000605D46002305C7E28C9
:1025E00006EB4420E8D0A888698906EB402008EB78
:1025F0004121FDF7F9FF698905EB41014882A8886F
:102600000130A880A888082808BFA5F80490288968
:1026100001302881287880B1E8882989401A80B261
:1026200008280AD085F80090012168884FF40073CB
:1026300006EB402200200BF081FF688901306881A1
:102640006889082808BFA5F80A90E8890130E88160
:102650006878C8B1E889298A884215D0A889411CC0
:10266000A98108EB4022A989082908BFA5F80C9088
:10267000298A0131298205EB400185F8019000206B
:102680004B8A81210BF07CFFE888298988428BD115
:1026900082E700000000000044F6C031C0F20301F0
:1026A0004843401EFDD100BF00BF7047000000003E
:1026B00081B000F13E4000F1FF704FEAB0200828E1
:1026C00000F28C80DFE800F00514233241505F6E89
:1026D0007D0043F63000C4F20200016841F00101C0
:1026E0000160006800F001000090009801B07047A0
:1026F00043F63000C4F20200016841F002010160BB
:10270000006800F002000090009801B0704743F6A6
:102710003000C4F20200016841F004010160006869
:1027200000F004000090009801B0704743F63000BC
:10273000C4F20200016841F008010160006800F085
:1027400008000090009801B0704743F63000C4F2D2
:102750000200016841F010010160006800F0100003
:102760000090009801B0704743F63000C4F20200B8
:10277000016841F020010160006800F02000009035
:10278000009801B0704743F63000C4F202000168BF
:1027900041F040010160006800F0400000900098A6
:1027A00001B0704743F63000C4F20200016841F006
:1027B00080010160006800F080000090009801B086
:1027C000704743F63000C4F20200016841F48071A2
:1027D0000160006800F480700090009801B07047BC
:1027E00070B50446866D00F00FFA94F83510022992
:1027F0002CD105462068216C0268002922F01602BF
:102800000260426922F08002426101D1A16C19B1DB
:10281000016821F008010160016821F001010160F7
:102820000068C00704D118E020680068C00714D011
:1028300000F0EAF9401B0528F6D920206065002049
:1028400084F83400032084F8350070BD8020606572
:10285000002084F83400012070BDE06D3F2101FAB2
:1028600000F0B0600020012184F8340084F83510B5
:1028700070BD000000000000B0B5044600F0C4F9CF
:1028800040F21001C2F2010105460978621C18BF2E
:102890000C4400BF00F0B8F9401BA042FAD3B0BD11
:1028A0002DE9F04F41F6004700F13E42C4F2020725
:1028B00002F1FF734FF0080BB84208BF4FF0070B4F
:1028C0000027B7EBB32F43F60046C4F201066AD0E7
:1028D0004FEAB3235F1E062F38BF9B4600234FF0FD
:1028E0000109A6F57E7E0027002400BF09FA04F640
:1028F0000E4251D04FEA940C07F00C095EF82CA060
:102900000F2202FA09F80AEA08020BFA09F5AA42AC
:102910001ED15EF82C2022EA08024EF82C2043F645
:102920000042C4F2010215461268B2432A606FEAFF
:10293000060C6A68B2436A60AA68B243AA6043F6AA
:102940000C42C4F2010215461268B2432A6001E04B
:102950006FEA060C032205689A4025EA02086FF028
:102960000305C0F8008005EA540507F01C0A054479
:102970000F2606FA0AF82E6A26EA08062E624FF09B
:102980000109856895438560456805EA0C0646603F
:10299000C66826EA0202C26001340437102C03F133
:1029A0000203A3D15BE000224FF0010AA6F57E7B73
:1029B0004FF00F0C4FF0030E002600270AFA07F322
:1029C0000B4246D0BD0802F00C045BF825800CFADF
:1029D00004F918EA090F02D06FEA03081BE05BF85C
:1029E00025406FEA030824EA09044BF8254043F622
:1029F0000045C4F201052C689C432C606C689C4324
:102A00006C60AC689C43AC6043F60C45C4F20105B5
:102A10002C689C432C600EFA06F4056825EA04092C
:102A20006FF00305C0F8009005EA570502F01C039B
:102A300005440CFA03F92B6A23EA09032B62836825
:102A4000A3438360436803EA08034360C368A34366
:102A5000C36001370236102F02F10402AED1BDE887
:102A6000F08F0000000000002DE9F04F82B000F16F
:102A70003E4241F6004702F1FF72C4F20207082607
:102A80004FEAB223B84208BF0726072B38BF4FEAE8
:102A9000B22643F6440A009643F6004C00234FF05A
:102AA000010B0026C4F2020AC4F2010C002400BF8C
:102AB0000BFA04FE0F6817EA0E0F00F09880D1F8A9
:102AC000048048F01007122F14D16FF0030202EABD
:102AD0005407074406F01C02D7F820800F259540C4
:102AE00028EA05080D6905FA02F242EA08023A628C
:102AF000D1F80480032502689D4008F00307AA432B
:102B00009F403A43B8F1120F02606FEA050913D8EB
:102B10000BFA08F212F0061F0ED08268CD6802EAA6
:102B200009029D402A4382604268C8F3001522EAE8
:102B30000E02A5402A434260C2688D6802EA09027B
:102B40009D402A435FEAC805C26050D5DAF80020EC
:102B500024F0030542F48042CAF800204FF60847EB
:102B6000DAF80020CFF6FF7702F4804201920CEBF6
:102B70000502019DB94606F00C0552F807800F27A3
:102B8000AF4028EA0708009F07FA05F545EA08055F
:102B900042F80950DCF800804D6848EA0E07EA0365
:102BA00058BF28EA0E07CCF80070AA03DCF80480AE
:102BB00048EA0E0758BF28EA0E07CCF80470DCF884
:102BC0000880EA0248EA0E0743F60C4258BF28EA9A
:102BD0000E07CCF80870C4F201029046126842EA6F
:102BE0000E07AD0258BF22EA0E07C8F80070013484
:102BF0000436102C03F102037FF45AAF02B0BDE893
:102C0000F08F00000000000080B508F0AFFB022844
:102C100003D1BDE8804008F0BFBB0120FFF73CFDB9
:102C200040F26021C2F2010108680130086080BDF5
:102C300080B543F60040C4F20200016841F400711F
:102C40000160016841F480710160032000F0C4F864
:102C50000F2000F005F800F07BF8002080BD000098
:102C600070B540F21006C2F2010631784FF47A7264
:102C70000446B2FBF1F140F21802C2F201021268FE
:102C8000B2FBF1F1084600F0A3FB0F2C4FF0010559
:102C900008D838B94FF0FF3000222146002500F057
:102CA0006FF87460284670BD02784EF69C5C4378DD
:102CB000CEF2000C002A4CF8043C22D080B54368C8
:102CC000CCF80030037BC17A90F80AE042EA037244
:102CD000437B42EA0161827B41EACE4190F80FE0FA
:102CE00041EA8341437A41EA4241007A41EA0E4196
:102CF00041EA032141EA4000BDE88040CCF80400ED
:102D000070470020CCF80000CCF8040070470000A9
:102D10004EF62450BFF35F8FCEF20000016821F41D
:102D20008031016000210167704700000000000051
:102D30004EF6245140F00100CEF200010867086809
:102D400040F480300860BFF34F8FBFF36F8F704740
:102D500070470000000000000028B8BF704700F076
:102D60001F01012202FA01F14EF280124009CEF257
:102D7000000242F82010BFF34F8FBFF36F8F7047F0
:102D800010B54EF60C5CCEF2000CDCF80030C3F34C
:102D9000022E8EF00704042C28BF0424BEF1030386
:102DA0004FF0FF3E38BF00230EFA04F4A1439940D0
:102DB0000EFA03F39A4300F00F03043B11436344FC
:102DC00009010C3300F16042B0F1FF3FC8BF02F5CA
:102DD0006443197010BD00004EF60C51CEF2000194
:102DE0000A684FF6FF031A4060F30A2242F080603F
:102DF00040F0FD7008607047B0B582B043F6400007
:102E0000C4F20200016847F2000541F08051016000
:102E1000C4F20005006800F0805001900198286815
:102E200040F480302860FFF7EFFE04466868C00376
:102E300006D4FFF7E9FE001BB0F57A7FF6D910E063
:102E4000286840F400302860FFF7DEFE044600BF2B
:102E50006868800308D4FFF7D7FE001BB0F57A7FBF
:102E6000F6D9032002B0B0BD002002B0B0BD000012
:102E70002DE9F041002800F08C8043F60808C4F2E8
:102E800002080446D8F8F80300F00F000D46884207
:102E90000CD2D8F8F80320F00F002843C8F8F80344
:102EA000D8F8F80300F00F00A84272D1206881071B
:102EB00017D5410705D5D8F8001041F4E051C8F8FE
:102EC0000010010705D5D8F8001041F46041C8F89A
:102ED0000010D8F8001021F0F001A2681143C8F8E2
:102EE0000010C00730D06068012806D158F8081CCF
:102EF00089030DD40120BDE8F081022858F8081C90
:102F000004D1890104D40120BDE8F081890740D5AE
:102F1000D8F8001021F003010843C8F80000FFF7BB
:102F200073FE064641F28837D8F8000000F00C0026
:102F30006168B0EB810F07D0FFF766FE801BB842D7
:102F4000F2D90320BDE8F081D8F8F80300F00F00B3
:102F5000A8420CD9D8F8F80320F00F002843C8F88D
:102F6000F803D8F8F80300F00F00A84211D1206848
:102F7000410711D4000719D4D8F8000000F00C0064
:102F8000082822D0042843D147F64000C0F27D1023
:102F900042E00120BDE8F081D8F8001021F4E051B2
:102FA000E2681143C8F800100007E5D5D8F8000022
:102FB00020F46040216940EAC100C8F80000D8F858
:102FC000000000F00C000828DCD158F8042C002385
:102FD00058F8040C02F03F02400258F8041C47F66F
:102FE0004000C1F38811C0F27D105CBF42F2004086
:102FF000C0F2F400A0FB0101FDF770F958F8041CC1
:103000000222C1F3014102EB4101B0FBF1F003E008
:1030100042F20040C0F2F400D8F800104FF640121F
:10302000C1F30311C0F60002515CC84040F2180120
:10303000C2F2010108600F20FFF712FE0020BDE878
:10304000F08100000000000040F2180043F6080183
:10305000C2F20100C4F20201006809684FF6501282
:10306000C1F38221C0F60002515CC84070470000E5
:1030700040F2180043F60801C2F20100C4F2020156
:10308000006809684FF65012C1F34231C0F60002E1
:10309000515CC840704700002DE9F04182B0002823
:1030A00000F0B9800446007843F60006C007C4F279
:1030B00002064CD0B06800F00C00042817D0B068AD
:1030C00000F00C00082802D1706840020FD460683C
:1030D00098B1B0F5803F06D0B0F5A02F306822D16E
:1030E00040F480203060306840F4803021E0306867
:1030F00080032CD5606850BB8DE0306820F48030B0
:103100003060306820F480203060FFF77DFD054698
:10311000306880031BD5FFF777FD401B64284FF014
:103120000300F5D94AE120F480303060306820F4A3
:1031300080203060FFF768FD054600BF30688003DF
:1031400005D4FFF761FD401B6428F7D900E1207822
:1031500080072DD5B06810F00C0F07D0B06800F0D4
:103160000C00082809D17068400206D43068800736
:1031700017D5E06801284ED113E0E06800283068D8
:1031800000F0A68040F001003060FFF73DFD0546ED
:103190003068800705D4FFF737FD401B0228F7D9B8
:1031A000D6E0306820F0F800216940EAC1003060C4
:1031B0002078000723D560690028706F0FD040F099
:1031C00001007067FFF720FD054600BF706F8007A4
:1031D00015D4FFF719FD401B0228F7D9B8E020F0FD
:1031E00001007067FFF710FD054600BF706F800794
:1031F00005D5FFF709FD401B0228F7D9A8E0207884
:1032000040070CD4A569002D00F0DB80B06800F009
:103210000C0008283AD1012002B0BDE8F081306CE2
:10322000C0000BD4306C4FF0010840F08050306487
:10323000306C00F080500190019801E04FF00008E0
:1032400047F20007C4F200073868C0050FD4386899
:1032500040F480703860FFF7D7FC05463868C00539
:1032600005D4FFF7D1FC401B6428F7D970E0A068B3
:1032700000283FD0012805D00528306F53D140F0F9
:1032800004003067306F40F0010052E0306820F0F9
:1032900080703060FFF7B8FC022D05460CD100BFEE
:1032A0003068800165D5FFF7AFFC401B02284FF066
:1032B0000300F5D982E000BF3068800140F18180D1
:1032C000FFF7A2FC401B03284FF00300F4D375E086
:1032D00020F001003060FFF797FC0546306880075A
:1032E0007FF566AFFFF790FC401B02284FF003000C
:1032F000F4D963E0306F20F001003067306F20F0C8
:1033000004003067FFF780FC054641F2883700BFB4
:10331000306F800720D5FFF777FC401BB8424FF095
:103320000300F5D94AE020F001003067306F20F04B
:1033300004003067FFF768FC054641F2883700BF9C
:10334000306F800708D4FFF75FFC401BB842F7D905
:10335000032002B0BDE8F081B8F1000F3FF452AF96
:10336000306C20F080503064A569002D7FF44EAFA2
:1033700027E0A06A4FF6FF71C003E2698843216A23
:10338000636A1143E26A41EA8311A0F5803041EAA1
:103390000261084340F000507060306840F0807077
:1033A0003060FFF731FC04463068800109D4FFF734
:1033B0002BFC001B02284FF00300F5D902B0BDE83A
:1033C000F081002002B0BDE8F081000000000000A4
:1033D000411E0020B0EB116F01D0012070474EF26A
:1033E0001002CEF2000251604EF62351CEF20001DF
:1033F000F0230B70072190601160704700000000FF
:1034000010B540F22814C2F20104022044F8040F5F
:1034100044F601200121C0F600000023224608F0F6
:10342000A9FD0028606006D03F2108F0BBFD10B167
:103430004FF0FF3010BD002010BD00000000000064
:103440002DE9F04340F26C13C2F201035A7841F6C1
:1034500018414FF600064FF40077C4F20201CFF690
:10346000FF764FF480058F51002A0D6034D0402242
:103470004FF000770A600D600A608F510D600A609E
:103480000D600A604FF480728A5193F81BE003EBE1
:103490004E0CBCF82450002D00F0DC8015F0030722
:1034A000A5F1010200F0C6804FF480094FF04008FA
:1034B000C1F80090012FC1F80080144600F0BB80D5
:1034C000022FC1F80090C1F8008040F04181AC1E8D
:1034D000032A80F0B280BDE05C684022641EFDD10A
:1034E00000BF00BF0A605C684FF00077641EFDD12A
:1034F00000BF00BF0D605C68641EFDD100BF00BF4F
:103500000A605C68641EFDD100BF00BF8F510D6072
:103510004FF480775C68641EFDD100BF00BF0A6075
:103520005C68641EFDD100BF00BF0D605C68641E56
:10353000FDD100BF00BF0A605C68641EFDD100BF02
:1035400000BF8F51DD7E03EB4507BF8C8FB17D42FD
:103550004FF480040C605F687F1EFDD100BF00BF88
:103560000A605F687F1EFDD100BF00BF0135F1D149
:10357000DD7E5A19127F012A1BD0C2F101024FF4DD
:1035800080054024C7074FF4807708BF4FF080774D
:103590008F510D6040085F687F1EFDD100BF00BFE6
:1035A0000C605F687F1EFDD100BF00BF0132E9D112
:1035B000DD7E03EB4502958E002D00F07C80C00778
:1035C0004FF4807008BF4FF0807088514FF4800036
:1035D000086040225C684FF48077641EFDD100BF14
:1035E00000BF0A605C68641EFDD100BF00BF8F5140
:1035F000012D0FD0C5F1010508605C68641EFDD186
:1036000000BF00BF0A605C68641EFDD100BF00BF40
:103610000135F1D14FF400778F5108605868401E92
:10362000FDD100BF00BF0A605868401EFDD100BF39
:1036300000BF59E02C46032A0CD34FF480024025EA
:10364000043C0A600D600A600D600A600D600A604B
:103650000D60F5D103EB0E02157F6B1E1FD013F02A
:103660000302A5F1020E21D0C3074FF4807308BFF7
:103670004FF080734FF480044FF040088B51012AC3
:103680000C604FF48077C1F8008040F05080420811
:1036900073461046BEF1030F80F07680A1E002462B
:1036A000BCF83430002B40F09F80C5E0BEF1030F22
:1036B00080F06A8095E0C0074FF400724FF480708C
:1036C0008A5108BF4FF0807088514FF48000086025
:1036D00040225868401EFDD100BF00BF0A605868F4
:1036E000401EFDD100BF00BF4FF48000086040279E
:1036F0005A684FF00075521EFDD100BF00BF0F6029
:103700005A68521EFDD100BF00BF8D510860586835
:10371000401EFDD100BF00BF0F605868401EFDD1A4
:1037200000BF00BF4FF480708851BDE8F08383076D
:1037300058BF4FF08077022A8F510C60C1F800808B
:1037400010D18208EB1E1046BEF1030F1CD248E0D8
:103750004FF480040C6040240C60EC1E032ABFF47C
:103760006CAF77E742074FF4807258BF4FF080721A
:103770004FF4800340248A510B60C2080C602B1F59
:103780001046BEF1030F2CD34FF48005402400BF38
:10379000C2074FF4807208BF4FF080728A518207CF
:1037A0000D604FF480720C6058BF4FF080728A51E8
:1037B00042070D604FF480720C6058BF4FF080726A
:1037C0008A5102070D604FF480770C604FEA1012A7
:1037D00058BF4FF08077043B8F5110460D600C604E
:1037E000D6D1BCF834303BB3D0074FF4807008BF5B
:1037F0004FF0807088514FF48000086040204FF4F3
:1038000080720860581E8A5120D010F00307A3F17F
:1038100002020CD04FF4800440250C60012F0D6093
:10382000104604D0022F0C600D6012D1D81E032A5E
:1038300017D24FF4007023E0D0074FF400734FF419
:1038400080708B5108BF4FF0807019E04FF400700A
:1038500016E04FF48000086040200860181F032A1B
:10386000E7D34FF48002402304380A600B600A60FB
:103870000B600A600B600A600B60F5D14FF40070BA
:1038800088514FF48000402208604FF000730A60B6
:1038900008600A608B5108600A604FF4807088519C
:1038A000BDE8F08300000000F0B541F618404FF687
:1038B000000CC4F20200CFF6FF7C4FF4007140F818
:1038C0000C104FF4800E40F26C11C0F800E0C2F210
:1038D00001014B6840225B1EFDD100BF00BF0260AA
:1038E0004B684FF000745B1EFDD100BF00BF40F875
:1038F0000C40C0F800E04B685B1EFDD100BF00BF6C
:1039000002604B685B1EFDD100BF00BFC0F800E045
:103910004B685B1EFDD100BF00BF02604B685B1EA1
:10392000FDD100BF00BFCB7E7BB15B42C0F800E0A1
:103930004C68641EFDD100BF00BF02604C68641E6D
:10394000FDD100BF00BF0133F0D140F61044002389
:103950006FF01E05C4F20204C0F800E04E68761E47
:10396000FDD100BF00BF2668026006F004064F6864
:1039700043EA46737F1EFDD100BF00BF5B080135DF
:10398000EAD14FF4007240F80C204FF4800202603C
:1039900040264D686D1EFDD100BF00BF2768066040
:1039A0004FF000754C68641EFDD100BF00BF02607F
:1039B0004C68641EFDD100BF00BF06604C68641EE9
:1039C000FDD100BF00BF40F80C50026007F00402B8
:1039D0004C68641EFDD100BF00BF066043EA427020
:1039E0004968491EFDD100BF00BFF0BD00000000C6
:1039F0002DE9F04F81B010F03F0C08BF4FF0400CA4
:103A000043064FF4007441F6184358BF4FF000745A
:103A10004FF6000E40F6104AC4F20203CFF6FF7EC6
:103A2000000643F80E40C4F2020A4FF480082FD477
:103A300040F26C14C2F20104402500BF11F8010BE2
:103A4000ACF10106002200BFC7074FF4807708BF22
:103A50004FF0807743F80E70C3F8008067687F1ED0
:103A6000FDD100BF00BFDAF800701D6067687F1EDF
:103A7000FDD100BF00BF964202F1010704D0072A22
:103A80004FEA50003A46DFD1BCEB070CD6D140E0FC
:103A900040F26C1BC2F2010B4FF0400911F8014BD0
:103AA0000020CDF800C0ACF1010C0026E5074FF472
:103AB000807508BF4FF0807543F80E50C3F8008042
:103AC000DBF804506D1EFDD100BF00BFDAF80050D6
:103AD000C3F8009005F00405DBF804706D017F1E4B
:103AE000FDD100BF00BF45EA5606844500F101053F
:103AF00004D007284FEA54042846D7D1C5F108005E
:103B0000DDF800C026FA00F0BCEB050C02F8010B52
:103B1000C4D101B0BDE8F08F2DE9F04F9EB040F266
:103B20006C1EC2F2010E9EF8017041F618434FF66A
:103B3000000240F6104A4FF40076C4F20203CFF6BA
:103B4000FF724FF480049E50002F1C60C4F2020AE2
:103B500031D04FF0400B4FF00077C3F800B09F50CA
:103B60001C60C3F800B01C60C3F800B09EF81B8056
:103B7000B8F1000F00F0528118F00305A8F101041C
:103B800000F03B814FF480094FF0400CC3F80090E7
:103B9000012DC3F800C0274600F03081022DC3F884
:103BA0000090C3F800C040F0FD83A8F10207032C89
:103BB00080F0268132E1DEF8045040276D1EFDD1F1
:103BC00000BF00BF1F60DEF804504FF000766D1E8E
:103BD000FDD100BF00BF9E501C60DEF804506D1E7A
:103BE000FDD100BF00BF1F60DEF804506D1EFDD187
:103BF00000BF00BF1C60DEF80440641EFDD100BFA2
:103C000000BF1F60DEF80440641EFDD100BF00BF8E
:103C10009EF81B6096B176424FF480051D60DEF879
:103C20000440641EFDD100BF00BF1F60DEF80440E9
:103C3000641EFDD100BF00BF0136EFD14FF4807686
:103C40004FF4800810F0020C08BF4FF080769E50B1
:103C5000C3F80080DEF804506D1EFDD100BF00BF28
:103C6000DAF800901F604FF48075DEF80440641E9F
:103C7000FDD100BF00BF44074FF4807458BF4FF020
:103C800080749C50C3F80080DEF80440641EFDD1AF
:103C900000BF00BFDAF80040C4F380041F60DEF804
:103CA0000460761EFDD100BF00BF060758BF4FF06D
:103CB00080759D500225C3F8008005EA5905DEF89D
:103CC00004602C44761EFDD100BF00BFDAF800600E
:103CD0001F6006F00405DEF804602C44761EFDD15A
:103CE00000BF00BF1D94012C40F07280BCF1000F9A
:103CF00040F0EE824FF6000C0F686FF01E044FF498
:103D000080054026CFF6FF7CFA074FF4807208BF8B
:103D10004FF0807243F80C201D603946DEF8042015
:103D20007F08521EFDD100BF00BF1E60DEF80420D8
:103D3000521EFDD100BF00BF0134E5D19EF81B60CB
:103D40009EF81A50F243571900F04D8389074FF43B
:103D5000807158BF4FF0807143F80C104FF4800110
:103D600019604024DEF80420521EFDD100BF00BFC0
:103D70001C60DEF80420521EFDD100BF00BF012FE1
:103D800012D0B21C551B00BF1960DEF80420521E71
:103D9000FDD100BF00BF1C60DEF80420521EFDD123
:103DA00000BF00BF0135EFD14FF4007243F80C2083
:103DB0001960DEF80410491EFDD100BF00BF1C6071
:103DC000DEF80410491EFDD100BF00BF00F04ABB61
:103DD0004FF4007199504027C3F800809446DEF8F4
:103DE0000410491EFDD100BF00BF1F60DEF80410A3
:103DF000491EFDD100BF00BF34E34746032C0DD35D
:103E00004FF48005402400BF043F1D601C601D600E
:103E10001C601D601C601D601C60F5D14FF6000227
:103E200010F002094FF48077CFF6FF7208BF4FF011
:103E300080774FF4800C9F50C3F800C045074FF4C3
:103E40008074DAF80050C3F800B058BF4FF08074A7
:103E50009C504FF48074C3F800C00707DAF8006084
:103E6000C6F38006C3F800B058BF4FF080749C5072
:103E70000224C3F800C004EA5504DAF800503444C0
:103E8000C3F800B005F004052C44012C40F0538128
:103E9000A446B9F1000F40F056810E684FF48077C8
:103EA0004FF60002F10708BF4FF08077CFF6FF72A0
:103EB0009F50B7074FF480054FF040011D604FF44D
:103EC0008077196058BF4FF080779F5077071D604B
:103ED0004FF48077196058BF4FF080779F503707B5
:103EE0001D604FF48077196058BF4FF080779F5066
:103EF000F7061D604FF48077196058BF4FF0807748
:103F00009F50B7061D604FF48077196058BF4FF07F
:103F100080779F5077061D604FF48077196058BFF7
:103F20004FF080779F5037061D604FF480771960FF
:103F300058BF4FF080779F50F7051D604FF4807792
:103F4000196058BF4FF080779F50B7051D604FF440
:103F50008077196058BF4FF080779F5077051D60BC
:103F60004FF48077196058BF4FF080779F50370526
:103F70001D604FF48077196058BF4FF080779F50D5
:103F8000F7041D604FF48077196058BF4FF08077B9
:103F90009F50B7041D604FF48077196058BF4FF0F1
:103FA00080779F5077041D604FF48077196058BF69
:103FB0004FF080779F5037041D604FF48077196071
:103FC00058BF4FF080779F50F7031D604FF4807704
:103FD000196058BF4FF080779F50B7031D604FF4B2
:103FE0008077196058BF4FF080779F5077031D602E
:103FF0004FF48077196058BF4FF080779F50370398
:104000001D604FF48077196058BF4FF080779F5044
:10401000F7021D604FF48077196058BF4FF080772A
:104020009F50B7021D604FF48077196058BF4FF062
:1040300080779F5077021D604FF48077196058BFDA
:104040004FF080779F5037021D604FF480771960E2
:1040500058BF4FF080779F50F7011D604FF4807775
:10406000196058BF4FF080779F50B7011D604FF423
:104070008077196058BF4FF080779F5077011D609F
:104080004FF48077196058BF4FF080779F50370109
:104090001D604FF48077196058BF4FF080779F50B4
:1040A000F7001D604FF48077196058BF4FF080779C
:1040B0009F50B7001D604FF48077196058BF4FF0D4
:1040C00080779F5077001D604FF48077196058BF4C
:1040D0004FF080779F501D606FEA080719609EF8C7
:1040E0001A4014EB07094FF4807700F06681B6F1AF
:1040F000FF3FC8BF4FF080779F501D60B9F10105A9
:10410000196000F02382A11CA1EB0801E71E11F049
:104110000304A7EB080100F009824FF48006402554
:104120001E60012C1D6040F0E881A9F10205032901
:1041300080F0FE810AE24FF4007199504021C3F8EB
:1041400000C01960F3E24FF480061E604027DAF8E1
:1041500000206FEA08051D921F601E60DAF800203B
:104160001C921F601E60DAF800201B921F601E6008
:10417000DAF800201A921F601E60DAF80020199207
:104180001F601E60DAF800B01F601E60DAF80020C1
:1041900018921F601E60DAF8002017921F601E60E0
:1041A000DAF8002016921F601E60DAF800201592DF
:1041B0001F601E60DAF8002014921F601E60DAF89B
:1041C000002013921F601E60DAF8002012921F6018
:1041D0001E60DAF8002011921F601E60DAF80020DD
:1041E00010921F601E60DAF800200F921F601E60A0
:1041F000DAF800200E921F601E60DAF800200D929F
:104200001F601E60DAF800200C921F601E60DAF852
:1042100000200B921F601E60DAF800200A921F60D7
:104220001E60DAF8002009921F601E60DAF8002094
:1042300008921F601E60DAF8002007921F601E605F
:10424000DAF8002006921F601E60DAF8002005925E
:104250001F601E60DAF8002004921F601E60DAF80A
:10426000002003921F601E60DAF8002002921F6097
:104270001E60DAF8002001921F601E60DAF800204C
:1042800000921F609EF81A4014EB050900F0A08010
:104290001E60B9F10106DAF800A01F6000F07A8113
:1042A000A71CA7EB0807E51E17F00307A5EB0804FA
:1042B00000F061814FF4800540261D60012F1E60D3
:1042C00040F02481A9F10206032C80F0568161E1BF
:1042D00000246FF01E064FF4800C4025C3F800C088
:1042E000DEF80420521EFDD100BF00BFDAF8002026
:1042F0001D6002F00402DEF8047044EA42727F1E80
:10430000FDD100BF00BF54080136E7D19EF81B5015
:104310009EF81A90EA4312EB090B00F082804FF4EA
:1043200080061E604027DEF80420521EFDD100BF2B
:1043300000BFDAF800801F60DEF80420521EFDD1B5
:1043400000BF00BFBBF1010F12D0AA1CA2EB0905F0
:104350001E60DEF80420521EFDD100BF00BF1F60AA
:10436000DEF80420521EFDD100BF00BF0135EFD1A1
:104370004FF6000C4FF40072CFF6FF7C43F80C2090
:104380001E60DEF80420521EFDD100BF00BF1F607A
:10439000DEF80420521EFDD100BF00BF002940F00E
:1043A0005C805FE04FF480021A6040221A60A8F13E
:1043B0000307032CBFF424AD30E54FF40074B6F1CD
:1043C000FF3FC8BF4FF080779C509F501D60C8E0F2
:1043D0004FF600024FF40077CFF6FF729F501E6039
:1043E000DAF800A0E0E089074FF400724FF4807122
:1043F00043F80C2058BF4FF0807143F80C104FF475
:10440000800119604022DEF80410491EFDD100BF72
:1044100000BF1A60DEF80410491EFDD100BF00BFC6
:1044200020E04FF6000C4FF40072CFF6FF7C43F80B
:104430000C204FF480021A60DEF80420521EFDD1D9
:1044400000BF00BFDAF8008040221A60DEF80420C6
:10445000521EFDD100BF00BF21B108F0040244EAA2
:1044600042720A604FF4800119604027DEF8042090
:104470004FF00076521EFDD100BF00BF1F60DEF876
:104480000420521EFDD100BF00BF43F80C6019602C
:10449000DEF80410491EFDD100BF00BF1F60DEF82A
:1044A0000410491EFDD100BF00BF4FF4807100060B
:1044B00043F80C1006D541F20400CEF2000000686B
:1044C000CEF808009EF80C001D9C002800F06E81BC
:1044D00040424FF4800140271960DEF80420521E4C
:1044E000FDD100BF00BF1F60DEF80420521EFDD1C9
:1044F00000BF00BF0130EFD158E1022C1E601D60EB
:104500000DD1A9F10305032912D21FE0022F1D606E
:104510001E6029D1A9F10306032C2ED23AE04FF4F4
:1045200080021A6040221A60A9F1040503290DD304
:104530004FF48001402400BF043D19601C601960E5
:104540001C6019601C6019601C60F5D14FF60002F8
:104550004FF40071CFF6FF7299504FF4800119604B
:10456000402164461960E2E04FF480021A60402264
:104570001A60A9F10406032C0CD34FF480044027E1
:10458000043E1C601F601C601F601C601F601C607C
:104590001F60F5D14FF600024FF40077CFF6FF729F
:1045A0009F504FF480071F606446402700291F601A
:1045B00000F0BD804FF080471D9E07EA06771C9EE5
:1045C00006F0040647EA46771B9E06F004067607C7
:1045D00046EA57071A9E06F00406760746EA57078A
:1045E000199E06F00406760746EA57070BF0040604
:1045F000760746EA5707189E06F00406760746EA4D
:104600005707179E06F00406760746EA5707169ED8
:1046100006F00406760746EA5707159E06F00406DC
:10462000760746EA5707149E06F00406760746EA20
:104630005707139E06F00406760746EA5707129EB0
:1046400006F00406760746EA5707119E06F00406B0
:10465000760746EA5707109E06F00406760746EAF4
:1046600057070F9E06F00406760746EA57070E9E88
:1046700006F00406760746EA57070D9E06F0040684
:10468000760746EA57070C9E06F00406760746EAC8
:1046900057070B9E06F00406760746EA57070A9E60
:1046A00006F00406760746EA5707099E06F0040658
:1046B000760746EA5707089E06F00406760746EA9C
:1046C0005707079E06F00406760746EA5707069E38
:1046D00006F00406760746EA5707059E06F004062C
:1046E000760746EA5707049E06F00406760746EA70
:1046F0005707039E06F00406760746EA5707029E10
:1047000006F00406760746EA5707019E06F00406FF
:10471000760746EA5707009E06F00406760746EA43
:1047200057077F080AF0040647EA46770F604FF400
:104730008001402719604FF000761F609E500006F0
:1047400019604FF480711F60995006D541F2040042
:10475000CEF200000068CEF808009EF80C202AB3C4
:1047600012F00307A2F101000FD04FF4800540269C
:104770001D60012F1E60014608D0022F1D601E60C3
:1047800018D1911E032811D302E0114603280DD33E
:104790004FF48000402200BF043918601A6018608E
:1047A0001A6018601A6018601A60F5D120461EB0B1
:1047B000BDE8F08F4FF4800140271960D11E1F60C3
:1047C0000328F3D3E4E7000070B541F618414FF633
:1047D000000CC4F20201CFF6FF7C4FF400724FF4DC
:1047E000800E41F80C2040F26C13C1F800E0C2F2D8
:1047F00001035C684022641EFDD100BF00BF0A6057
:104800005C684FF00075641EFDD100BF00BF41F829
:104810000C50C1F800E05C68641EFDD100BF00BF11
:104820000A605C68641EFDD100BF00BFC1F800E0F3
:104830005C68641EFDD100BF00BF0A605C68641E36
:10484000FDD100BF00BFDC7E002C10D0644200BF51
:10485000C1F800E05D686D1EFDD100BF00BF0A60B9
:104860005D686D1EFDD100BF00BF0134F0D14FF077
:10487000807441F80C406FF01E05C1F800E05C68E0
:10488000641EFDD100BF00BF0A605C68641EFDD1DC
:1048900000BF00BFC1F800E05C68641EFDD100BF2E
:1048A00000BF0A605C68641EFDD100BF00BFC1F894
:1048B00000E05C68641EFDD100BF00BF0A605C6858
:1048C000641EFDD100BF00BF0446C0074FF48070D6
:1048D00008BF4FF0807041F80C00C1F800E0586844
:1048E000401EFDD100BF00BF0A605868401EFDD1C8
:1048F00000BF00BF01354FEA5400E5D1DD7E93F8DB
:104900001AE0E84310EB0E0600F03B80A0074FF4DE
:10491000807058BF4FF0807041F80C004FF4800059
:10492000086040225C68641EFDD100BF00BF0A60C1
:104930005C68641EFDD100BF00BF012E10D0AC1C0E
:10494000A4EB0E0608605C68641EFDD100BF00BFCA
:104950000A605C68641EFDD100BF00BF0136F1D162
:104960004FF4007641F80C6008605868401EFDD195
:1049700000BF00BF0A605868401EFDD100BF00BFE5
:104980001AE04FF40070A20741F80C004FF4807257
:104990004FF4800058BF4FF0807241F80C20402245
:1049A00008605868401EFDD100BF00BF0A6058680B
:1049B000401EFDD100BF00BF4FF4800008604026BC
:1049C0005A684FF00075521EFDD100BF00BF0E6047
:1049D0005A68521EFDD100BF00BF41F80C5008605C
:1049E0004FF480725868401EFDD100BF00BF0E60BA
:1049F0005868401EFDD100BF00BF41F80C2070BDBB
:104A000040F22810C2F20100417803784A1C02F0FB
:104A10000F01032B41700AD0022B1ED0012B26D18F
:104A20001820C4F202004FF4806101607047D10782
:104A300040F218024FF08061C4F2020208BF4FF446
:104A40008061116081780131CAB28170032A38BF58
:104A500070470021817001707047900740F2180084
:104A6000C4F2020011D44FF4806101607047002944
:104A700040F218014FF08062C4F2020108BF4FF407
:104A800080620A600021017070474FF08061016010
:104A9000704710B500F1280151E8002F12B9BFF39B
:104AA0002F8F04E0531E41E8003404B1F4E782B1D3
:104AB0002C3001210AE0821CD2E84F3FC2E8441F9B
:104AC00004B1F9E71A0608BF10BD083000680028D5
:104AD000F1D1002010BD10B584465CF8303F8BB199
:104AE000CA784FF0000E05E01C46DB7893420ED2E8
:104AF0006368A646002BF7D10022C1E9012E00F120
:104B00002C0208E00022C1E90122C16209E0C1E9EA
:104B1000014E04F108021160BEF1000F18BF0EF142
:104B2000040CCCF80010283050E8001F4A1C40E864
:104B3000002303B1F8E710BDD1E90123002A0EBF1D
:104B4000C36293608B68191D002B08BF00F1300110
:104B50000A6070471A480068704700BF194801781A
:104B6000012905D10021017004484FF080610160E6
:104B70001348016841F001010160704704ED00E055
:104B80004FF0FF307047000040B10B490968B1FB9E
:104B9000F0F0411E0020B0EB116F02D04FF0FF305B
:104BA0007047064AFF231370054A062313605160BD
:104BB00004499060087070471800012023ED00E060
:104BC00010E000E0640201201420C4F20400016837
:104BD0004068084004F02CBDF0B587B043F63006BD
:104BE00040F2004405468707C4F20206C4F20204FC
:104BF00031D0E80716D0306801A940F002003060DB
:104C0000306800F00200019001984FF400400190DC
:104C1000022002900020CDE903000C2005902046E0
:104C2000FDF722FF002F16D5306801A940F00200E1
:104C30003060306800F00200069006984FF4804023
:104C40000190022002900020CDE903000C20059085
:104C50002046FDF709FFE80616D5306801A940F0A7
:104C600002003060306800F00200069006984FF4B1
:104C700080500190022002900020CDE903000C201A
:104C800005902046FDF7F0FE07B0F0BD00000000E3
:104C900070B540F2004405468607C4F202040DD008
:104CA000E80704D04FF400412046FDF7F9FD002E3F
:104CB00004D54FF480412046FDF7F2FDE80600D40C
:104CC00070BD4FF480512046BDE87040FDF7E8BD4F
:104CD0002DE9F04385B041F6184741F21849C4F276
:104CE0000207C4F202094FF400724FF48008C9F8B9
:104CF000002040F26C15C7F80080C2F201056B6815
:104D000040265B1EFDD100BF00BF3E606B685B1E8E
:104D1000FDD100BF00BFC3074FF4007308BF4FF0C1
:104D20000073C9F80030C7F800806B685B1EFDD1C6
:104D300000BF00BF3E606B685B1EFDD100BF00BFBF
:104D400083074FF4007358BF4FF00073C9F8003069
:104D5000C7F800806B685B1EFDD100BF00BF3E60DE
:104D60006B685B1EFDD100BF00BF43074FF40073AB
:104D700058BF4FF00073C9F80030C7F800806B6867
:104D80005B1EFDD100BF00BF3E606B685B1EFDD1A6
:104D900000BF00BF03074FF4007358BF4FF000730C
:104DA000C9F80030C7F8008000EB50036C6803EBD3
:104DB0009003641EFDD100BF00BF3E606C6803EB32
:104DC000D000641EFDD100BF00BF4FF00073C007CC
:104DD0004FF4007008BF4FF00070C9F80000C7F82A
:104DE000008000246868401EFDD100BF00BF3E6007
:104DF0006868401EFDD100BF00BFC9F80030C7F889
:104E000000806868401EFDD100BF00BF3E606B6837
:104E100048465B1EFDD100BF00BF40F81829C7F807
:104E200000806B685B1EFDD100BF00BF3E606B68F9
:104E30005B1EFDD100BF00BF0494CDE900240294A5
:104E400003220C4603926946FDF70EFE287EC7F842
:104E500000806968491EFDD100BF00BF78B14042A3
:104E60003E606968491EFDD100BF00BFC7F80080E1
:104E70006968491EFDD100BF00BF0130F0D1D9F8EB
:104E8000F8070223C0F3C0103E606968491EFDD1D7
:104E900000BF00BFC7F800806968491EFDD100BF90
:104EA00000BFD9F8F8173E6003EA91116A6801441F
:104EB000521EFDD100BF00BFC7F800806A68521EB5
:104EC000FDD100BF00BFD9F8F8273E606B685B1EBC
:104ED000FDD100BF00BF287E042303EA5212002840
:104EE00001EB020812D040424FF48001402200BF83
:104EF00039606B685B1EFDD100BF00BF3A606B6814
:104F00005B1EFDD100BF00BF0130F1D100264FF480
:104F10000070049600900120CDE901060320039063
:104F2000A9F118006946FDF79FFD6FF01F004FF4CF
:104F300080014022E3074FF4007308BF4FF0007375
:104F4000C9F80030396026446B6864085B1EFDD1E7
:104F500000BF00BF3A606B685B1EFDD100BF00BFA1
:104F60000130E7D1F0074FF4007108BF4FF0007136
:104F7000484640F818194FF4800139604FF4007426
:104F800069680022491EFDD100BF00BF4021396081
:104F90006968491EFDD100BF00BF04920121009441
:104FA000CDE90112032103916946FDF75DFDC9F8C2
:104FB0000040404605B0BDE8F0830000000000005E
:104FC0002DE9F04110F03F0C08BF4FF0400C0006F7
:104FD00041F61840C4F202004FF4800E30D44FF670
:104FE000000840F26C12CFF6FF78C2F201024024B2
:104FF00011F8015BACF10106002300BFEF074FF48D
:10500000007708BF4FF0007740F80870C0F800E064
:1050100057687F1EFDD100BF00BF046057687F1E28
:10502000FDD100BF00BF9E4203F1010704D0072B52
:105030004FEA55053B46E1D1BCEB070CD8D12CE03B
:1050400040F26C13C2F201034FF04008ACF10104CE
:1050500000260025C0F800E05F687F1EFDD100BF7C
:1050600000BF50F8087CC0F8008007F0800759683E
:1050700047EA5505491EFDD100BF00BF771CB44269
:1050800002D0072E3E46E5D1C7F1080125FA01F10D
:10509000BCEB070C02F8011BD8D1BDE8F081000081
:1050A0002DE9F04F8BB040F26C1AC2F2010A9AF867
:1050B000013041F6184641F218484FF40072C4F22C
:1050C0000206C4F202084FF48005C8F80020002B45
:1050D00005918346356000F009815FEACB704FF49B
:1050E00000704FF0400708BF4FF000701BF0020443
:1050F00037604FF4007108BF4FF000715FEA4B73E7
:10510000C8F800000BEB5B004FF4007335603760AC
:1051100000EB9B00C8F8001058BF4FF000735FEA27
:105120000B7135604FF40071376000EBDB00C8F89D
:105130000030356058BF4FF00071C00737604FF442
:105140000070C8F8001035604FF00001376008BFEC
:105150004FF00070C8F800004FF000703560376005
:10516000C8F8000040463560376040F818293560BF
:1051700037600A91CDE9062108910321099106A91A
:10518000FDF772FC9AF818C03560BCF1000F23D00F
:105190001CF00300ACF1010261460ED040234FF435
:1051A0008005336001283560114606D0022833603F
:1051B000356040F05686ACF10201032A0CD3402042
:1051C0004FF4800204393060326030603260306009
:1051D000326030603260F5D1D8F8F8074FF48001C2
:1051E000C0F3C010376031600223D8F8F827376069
:1051F00003EA921231601044D8F8F817042202EA48
:105200005111376000EB0109B9F1040F18BFB9F172
:10521000020F40F05785002C48D09AF8190000285A
:1052200044D04FF4800140223160326031603260FE
:1052300031603260316032603160326031603260E2
:1052400031603260316032603160326031603260D2
:1052500031603260316032603160326031603260C2
:1052600031603260316032603160326031603260B2
:1052700031603260316032603160326031603260A2
:105280003160326031603260316032603160326092
:105290003160326031603260316032603160326082
:1052A000316032603160326031603260BCF1000FD9
:1052B00000F08C861CF00300ACF10102614600F0A6
:1052C00075864FF48007402337600128336011460C
:1052D00000F06C8602283760336040F06086ACF1E5
:1052E0000201032A80F0648600F070BEDAF8040040
:1052F0004027401EFDD100BF00BF3760DAF8040030
:105300000023401EFDD100BF00BF5FEACB704FF409
:10531000007008BF4FF00070C8F800003560DAF880
:105320000400401EFDD100BF00BF3760DAF8040062
:10533000401EFDD100BF00BF4FF400701BF00204FF
:1053400008BF4FF00070C8F800003560DAF80400BC
:10535000401EFDD100BF00BF3760DAF80400401ED8
:10536000FDD100BF00BF5FEA4B704FF4007058BF23
:105370004FF00070C8F800003560DAF80400401EF5
:10538000FDD100BF00BF3760DAF80400401EFDD138
:1053900000BF00BF5FEA0B704FF4007058BF4FF0C2
:1053A0000070C8F8000035600BEB5B00DAF8041001
:1053B00000EB9B00491EFDD100BF00BF3760DAF84B
:1053C000041000EBDB00491EFDD100BF00BFC00789
:1053D0004FF4007008BF4FF00070C8F8000035604F
:1053E0004FF00071DAF80400401EFDD100BF00BF8D
:1053F0003760DAF80400401EFDD100BF00BFC8F8D6
:1054000000103560DAF80400401EFDD100BF00BF77
:105410003760DAF804104046491EFDD100BF00BFD6
:1054200040F818293560DAF80410491EFDD100BF94
:1054300000BF3760DAF80410491EFDD100BF00BF7D
:105440000A930321CDE906230893099106A9FDF7E4
:105450000BFB9AF818003560DAF80410491EFDD1EC
:1054600000BF00BF90B140424FF480013760DAF8CE
:105470000420521EFDD100BF00BF3160DAF80420C5
:10548000521EFDD100BF00BF0130EFD1D8F8F807A0
:105490004FF48002C0F3C0103760DAF80410491EE0
:1054A000FDD100BF00BF3260DAF80410491EFDD103
:1054B00000BF00BFD8F8F8173760DAF804305B1E79
:1054C000FDD100BF00BF3260022303EA91110844FE
:1054D000DAF80410491EFDD100BF00BF0422D8F83D
:1054E000F817376002EA5111DAF8043000EB0109CD
:1054F0005B1EFDD100BF00BFB9F1040F18BFB9F1A9
:10550000020F40F00584002C00F0D6819AF81900B3
:10551000002800F0D1814FF4800030604021DAF89B
:105520000420521EFDD100BF00BF3160DAF8042014
:10553000521EFDD100BF00BF3060DAF80420521EB9
:10554000FDD100BF00BF3160DAF80420521EFDD14A
:1055500000BF00BF3060DAF80420521EFDD100BF4A
:1055600000BF3160DAF80420521EFDD100BF00BF39
:105570003060DAF80420521EFDD100BF00BF316058
:10558000DAF80420521EFDD100BF00BF3060DAF807
:105590000420521EFDD100BF00BF3160DAF80420A4
:1055A000521EFDD100BF00BF3060DAF80420521E49
:1055B000FDD100BF00BF3160DAF80420521EFDD1DA
:1055C00000BF00BF3060DAF80420521EFDD100BFDA
:1055D00000BF3160DAF80420521EFDD100BF00BFC9
:1055E0003060DAF80420521EFDD100BF00BF3160E8
:1055F000DAF80420521EFDD100BF00BF3060DAF897
:105600000420521EFDD100BF00BF3160DAF8042033
:10561000521EFDD100BF00BF3060DAF80420521ED8
:10562000FDD100BF00BF3160DAF80420521EFDD169
:1056300000BF00BF3060DAF80420521EFDD100BF69
:1056400000BF3160DAF80420521EFDD100BF00BF58
:105650003060DAF80420521EFDD100BF00BF316077
:10566000DAF80420521EFDD100BF00BF3060DAF826
:105670000420521EFDD100BF00BF3160DAF80420C3
:10568000521EFDD100BF00BF3060DAF80420521E68
:10569000FDD100BF00BF3160DAF80420521EFDD1F9
:1056A00000BF00BF3060DAF80420521EFDD100BFF9
:1056B00000BF3160DAF80420521EFDD100BF00BFE8
:1056C0003060DAF80420521EFDD100BF00BF316007
:1056D000DAF80420521EFDD100BF00BF3060DAF8B6
:1056E0000420521EFDD100BF00BF3160DAF8042053
:1056F000521EFDD100BF00BF3060DAF80420521EF8
:10570000FDD100BF00BF3160DAF80420521EFDD188
:1057100000BF00BF3060DAF80420521EFDD100BF88
:1057200000BF3160DAF80420521EFDD100BF00BF77
:105730003060DAF80420521EFDD100BF00BF316096
:10574000DAF80420521EFDD100BF00BF3060DAF845
:105750000420521EFDD100BF00BF3160DAF80420E2
:10576000521EFDD100BF00BF3060DAF80420521E87
:10577000FDD100BF00BF3160DAF80420521EFDD118
:1057800000BF00BF3060DAF80420521EFDD100BF18
:1057900000BF3160DAF80420521EFDD100BF00BF07
:1057A0003060DAF80420521EFDD100BF00BF316026
:1057B000DAF80420521EFDD100BF00BF3060DAF8D5
:1057C0000420521EFDD100BF00BF3160DAF8042072
:1057D000521EFDD100BF00BF3060DAF80420521E17
:1057E000FDD100BF00BF3160DAF80420521EFDD1A8
:1057F00000BF00BF3060DAF80420521EFDD100BFA8
:1058000000BF3160DAF80420521EFDD100BF00BF96
:105810003060DAF80420521EFDD100BF00BF3160B5
:10582000DAF80420521EFDD100BF00BF3060DAF864
:105830000420521EFDD100BF00BF3160DAF8042001
:10584000521EFDD100BF00BF3060DAF80420521EA6
:10585000FDD100BF00BF3160DAF80420521EFDD137
:1058600000BF00BF3060DAF80420521EFDD100BF37
:1058700000BF3160DAF80420521EFDD100BF00BF26
:105880003060DAF80420521EFDD100BF00BF316045
:10589000DAF80420521EFDD100BF00BF3060DAF8F4
:1058A0000400401EFDD100BF00BF3160DAF80400E3
:1058B000401EFDD100BF00BF9AF81800A0B14042C1
:1058C0004FF48001402200BF3160DAF804305B1EE3
:1058D000FDD100BF00BF3260DAF804305B1EFDD19D
:1058E00000BF00BF0130EFD100204FF400710A90DB
:1058F00006910121CDE9071003200990A8F11800B5
:1059000006A9FDF7B1F8002C40F0CC869AF81900F2
:10591000002800F0C7864FF00070C8F800004FF470
:10592000800030604021DAF80420521EFDD100BF13
:1059300000BF3160DAF80420521EFDD100BF00BF65
:105940003060DAF80420521EFDD100BF00BF316084
:10595000DAF80420521EFDD100BF00BF3060DAF833
:105960000420521EFDD100BF00BF3160DAF80420D0
:10597000521EFDD100BF00BF3060DAF80420521E75
:10598000FDD100BF00BF3160DAF80420521EFDD106
:1059900000BF00BF3060DAF80420521EFDD100BF06
:1059A00000BF3160DAF80420521EFDD100BF00BFF5
:1059B0003060DAF80420521EFDD100BF00BF316014
:1059C000DAF80420521EFDD100BF00BF3060DAF8C3
:1059D0000420521EFDD100BF00BF3160DAF8042060
:1059E000521EFDD100BF00BF3060DAF80420521E05
:1059F000FDD100BF00BF3160DAF80420521EFDD196
:105A000000BF00BF3060DAF80420521EFDD100BF95
:105A100000BF3160DAF80420521EFDD100BF00BF84
:105A20003060DAF80420521EFDD100BF00BF3160A3
:105A3000DAF80420521EFDD100BF00BF3060DAF852
:105A40000420521EFDD100BF00BF3160DAF80420EF
:105A5000521EFDD100BF00BF3060DAF80420521E94
:105A6000FDD100BF00BF3160DAF80420521EFDD125
:105A700000BF00BF3060DAF80420521EFDD100BF25
:105A800000BF3160DAF80420521EFDD100BF00BF14
:105A90003060DAF80420521EFDD100BF00BF316033
:105AA000DAF80420521EFDD100BF00BF3060DAF8E2
:105AB0000420521EFDD100BF00BF3160DAF804207F
:105AC000521EFDD100BF00BF3060DAF80420521E24
:105AD000FDD100BF00BF3160DAF80420521EFDD1B5
:105AE00000BF00BF3060DAF80420521EFDD100BFB5
:105AF00000BF3160DAF80420521EFDD100BF00BFA4
:105B00003060DAF80420521EFDD100BF00BF3160C2
:105B1000DAF80420521EFDD100BF00BF3060DAF871
:105B20000420521EFDD100BF00BF3160DAF804200E
:105B3000521EFDD100BF00BF3060DAF80420521EB3
:105B4000FDD100BF00BF3160DAF80420521EFDD144
:105B500000BF00BF3060DAF80420521EFDD100BF44
:105B600000BF3160DAF80420521EFDD100BF00BF33
:105B70003060DAF80420521EFDD100BF00BF316052
:105B8000DAF80420521EFDD100BF00BF3060DAF801
:105B90000420521EFDD100BF00BF3160DAF804209E
:105BA000521EFDD100BF00BF3060DAF80420521E43
:105BB000FDD100BF00BF3160DAF80420521EFDD1D4
:105BC00000BF00BF3060DAF80420521EFDD100BFD4
:105BD00000BF3160DAF80420521EFDD100BF00BFC3
:105BE0003060DAF80420521EFDD100BF00BF3160E2
:105BF000DAF80420521EFDD100BF00BF3060DAF891
:105C00000420521EFDD100BF00BF3160DAF804202D
:105C1000521EFDD100BF00BF3060DAF80420521ED2
:105C2000FDD100BF00BF3160DAF80420521EFDD163
:105C300000BF00BF3060DAF80420521EFDD100BF63
:105C400000BF3160DAF80420521EFDD100BF00BF52
:105C50003060DAF80420521EFDD100BF00BF316071
:105C6000DAF80420521EFDD100BF00BF3060DAF820
:105C70000420521EFDD100BF00BF3160DAF80420BD
:105C8000521EFDD100BF00BF3060DAF80420521E62
:105C9000FDD100BF00BF3160DAF80420521EFDD1F3
:105CA00000BF00BF3060DAF80400401EFDD100BF25
:105CB00000BF3160DAF80400401EFDD100BF00BF14
:105CC00000F0F0BCB9F1010F40F09080002C40F0E2
:105CD000D480BCF1000F00F0AF821CF00300ACF1E7
:105CE0000102614600F099824FF48007402337603B
:105CF00001283360114600F090820228376033603B
:105D000040F08482ACF10201032A80F0888293E2A1
:105D1000B9F1010F40F07B80002C40F0C3819AF86C
:105D2000180098B140424FF4800140223160DAF807
:105D300004305B1EFDD100BF00BF3260DAF80430D2
:105D40005B1EFDD100BF00BF0130EFD100254FF435
:105D500000700A9506900120CDE9070503200990FF
:105D6000A8F1180006A9FCF77FFE059A6FF01F0046
:105D70004FF4800112684023D7074FF4007708BF23
:105D80004FF00077C8F8007031601544DAF804402D
:105D90005208641EFDD100BF00BF3360DAF8044032
:105DA000641EFDD100BF00BF0130E5D1E8074FF40C
:105DB000007008BF4FF00070C8F800004FF480007A
:105DC00030604021DAF804004FF00109401EFDD197
:105DD00000BF00BF3160DAF80400401EFDD100BFF3
:105DE00000BF5FEA0B6000F1C781CCE10CF101005C
:105DF00010F0030000F04B814FF48002402132602C
:105E00000128316040F046810CF12000E0E19AF871
:105E100018006FF020014022081A4FF4800100BFE3
:105E20003160DAF804305B1EFDD100BF00BF326084
:105E3000DAF804305B1EFDD100BF00BF0130EFD1A6
:105E400000204FF400710A9006910121CDE907105E
:105E500003200990A8F1180006A9FCF705FE00F040
:105E600021BC402030604FF48000ACF10301306071
:105E7000032ABFF4A4A9FFF7AFB94FF48001316042
:105E80004022D8F8F8070027C00932606FF01F03DE
:105E9000002500BF6D08316000F0010445EAC070C4
:105EA000D8F8F85727443260C5F3C0143160ED09C3
:105EB000400840EAC570D8F8F85727443260C5F367
:105EC000C0143160ED09400840EAC570D8F8F857B1
:105ED00027443260C5F3C0143160ED09400840EA40
:105EE000C570D8F8F85727443260C5F3C014316044
:105EF000ED09400840EAC570D8F8F85727443260E9
:105F0000C5F3C0143160ED09400840EAC570D8F807
:105F1000F85727443260C5F3C0143160ED094008DA
:105F200040EAC570D8F8F85727443260C5F3C0146A
:105F30003160ED09400840EAC575D8F8F8072744F4
:105F4000326008334FEAD010A4D17840C0074FF038
:105F5000080908BF4FF001090598002818BF05601F
:105F6000BCF1000F00F050831CF00300ACF1010203
:105F7000614600F03A834FF48007402337600128E0
:105F80003360114600F0318302283760336040F0FF
:105F90002583ACF10201032A80F0298334E34FF416
:105FA0008000306040203060ACF10301032A0DD343
:105FB0004FF48000402200BF04393060326030600E
:105FC00032603060326030603260F5D100204FF4D2
:105FD00000710A9006910121CDE907100320099074
:105FE000A8F1180006A9FCF73FFD002C40F05A83E9
:105FF0009AF81900002800F055834FF00070C8F897
:1060000000004FF48000402130603160306031602A
:1060100030603160306031603060316030603160FC
:1060200030603160306031603060316030603160EC
:1060300030603160306031603060316030603160DC
:1060400030603160306031603060316030603160CC
:1060500030603160306031603060316030603160BC
:1060600030603160306031603060316030603160AC
:10607000306031603060316030603160306031609C
:106080003060316030603160306031600AE30CF1C3
:1060900021009DE002283260316040F092800CF1D6
:1060A0001F0095E04FF4800CC6F800C04022DAF8DB
:1060B00004100027491EFDD100BF00BF6FF01F056F
:1060C000D8F8F8173260C909DAF804305B1EFDD140
:1060D00000BF00BF002300BFC6F800C001F00104EC
:1060E000DAF804002744401EFDD100BF00BF5B0862
:1060F000D8F8F80743EAC1733260C109DAF80440FE
:10610000641EFDD100BF00BF0135E5D181EA070063
:10611000C0074FF0080908BF4FF001090598002893
:1061200018BF03609AF81800A0B140424FF48001F4
:10613000402200BF3160DAF804305B1EFDD100BFA1
:1061400000BF3260DAF804305B1EFDD100BF00BF33
:106150000130EFD100204FF400710A900691012127
:10616000CDE9071003200990A8F1180006A9FCF753
:106170007BFC5FEA0B6006D541F20400CEF2000022
:106180000068CAF808009AF80C00002800F08A821B
:106190004FF000724042C8F800204FF480014022C6
:1061A0003160DAF804305B1EFDD100BF00BF326001
:1061B000DAF804305B1EFDD100BF00BF0130EFD123
:1061C00070E24FF480003060402030600CF11E001F
:1061D0004FF48001402200BF0438316032603160EA
:1061E00032603160326031603260F5D100204FF4AE
:1061F00000710A9006910121CDE907100320099052
:10620000A8F1180006A9FCF72FFC4BE24FF4800020
:10621000306040203060ACF10301032A0CD34FF40E
:10622000800040220439306032603060326030607B
:10623000326030603260F5D100214FF400700A9175
:1062400006900120CDE9070103200990A8F118006C
:1062500006A9FCF709FC05984FF4007400684FF498
:10626000007EC10708BF4FF00074830758BF4FF08E
:10627000007E47074FF400714FF4007558BF4FF090
:106280000071070758BF4FF0007505954FF4007572
:10629000C70658BF4FF0007500EB500304954FF44C
:1062A000007503EB9003870658BF4FF0007503EBB2
:1062B000D003039547064FF400794FF4007558BF9B
:1062C0004FF0007903EB1013070658BF4FF000752D
:1062D00003EB50130295C505C8F800404FF4800C3D
:1062E0004FF0400203EB90134FF400754FF400772A
:1062F00058BF4FF0007503EBD013C6F800C03260F2
:106300008405C8F800E003EB1023C6F800C058BFAE
:106310004FF0007701974405326003EB5023C8F833
:1063200000104FF40071C6F800C003EB90243260F7
:1063300058BF4FF000710091030505994FF4007E9E
:10634000C8F800104FF40071C6F800C03260049B1A
:10635000C8F8003058BF4FF00071C6F800C004EB19
:10636000D0233260C404039F03EB1033C8F80070DD
:1063700003EB5033C6F800C058BF4FF0007E3260C8
:106380008704C8F800904FF40079C6F800C003EB0A
:106390009033326058BF4FF000794704029C4FF4AD
:1063A0000077C8F80040C6F800C03260C8F8005056
:1063B00058BF4FF00077C6F800C0050432604FF4B4
:1063C0000075019CC8F8004003EBD034C6F800C04B
:1063D00058BF4FF000753260009BC8F80030C3030F
:1063E0004FF40073C6F800C0326058BF4FF000731E
:1063F000C8F8001004EB10418403C6F800C04FF445
:1064000000743260C8F800E058BF4FF0007401EB30
:10641000504EC6F800C0410332604FF40071C8F816
:106420000090C6F800C058BF4FF0007132600EEB0C
:10643000904EC8F8007007034FF40077C6F800C00C
:10644000326058BF4FF00077C8F80050C5024FF4D3
:106450000075C6F800C032600EEBD04EC8F80030B0
:1064600058BF4FF000758302C6F800C04FF40073A8
:1064700032600EEB105EC8F80040C6F800C058BF8E
:106480004FF0007332600EEB5054C8F80010410218
:106490004FF40071C6F800C0326058BF4FF0007171
:1064A000C8F8007004EB90570402C6F800C04FF41F
:1064B00000743260C8F8005058BF4FF00074C6F83E
:1064C00000C0C501326007EBD057C8F800304FF468
:1064D0000073C6F800C058BF4FF00073326007EB7E
:1064E0001067C8F8001081014FF40071C6F800C0B1
:1064F000326058BF4FF000714501C8F8004007EB0B
:106500005067C6F800C04FF400753260C8F800301C
:1065100058BF4FF00075C6F800C007EB90633260BB
:106520000701C8F800104FF40071C6F800C058BF4A
:106530004FF00071C700326003EBD063C8F8005021
:106540004FF40077C6F800C0326058BF4FF00077B4
:10655000C8F8001003EB10718300C6F800C04FF4B8
:1065600000733260C8F8007058BF4FF00073C6F86F
:1065700000C001EB507132604700C8F800304FF4A2
:106580000073C6F800C058BF4FF00073326001EBD3
:106590009071C8F800300023B3EBD07FC6F800C07C
:1065A0004FF40073326001EBD07008BF4FF00073FE
:1065B000C007C8F800304FF00109C6F800C04FF41A
:1065C000007008BF4FF000703260C8F80000C6F8D5
:1065D00000C032605FEA0B6028D42EE04FF48000E8
:1065E000306040203060ACF10301032A0CD34FF43B
:1065F00080004022043930603260306032603060A8
:10660000326030603260F5D100204FF400710A90A2
:1066100006910121CDE9071003200990A8F1180087
:1066200006A9FCF721FA5FEA0B6006D541F20400E7
:10663000CEF200000068CAF808009AF80C208AB36D
:106640004FF0007012F00303C8F80000A2F101003F
:106650000FD04FF4800540273560012B376001468D
:1066600011D0022B3560376007D1911E032819D352
:106670000BE01146032815D307E04FF48001316089
:1066800040213160D11E03280CD34FF480004022FA
:1066900004393060326030603260306032603060C7
:1066A0003260F5D14FF40070C8F8000048460BB0D6
:1066B000BDE8F08F00000000F0B5002832D041F6B0
:1066C00018434FF6000440F26C1500224FF4800C82
:1066D0004FF0400EC4F20203CFF6FF74C2F2010580
:1066E000002600BF002AA0F1010002D111F8016BC1
:1066F0000822F7074FF4007708BF4FF000771F51CB
:10670000C3F800C076086F68013A7F1EFDD100BF54
:1067100000BFC3F800E06F687F1EFDD100BF00BF5F
:106720000028DFD1F0BD0000B0B540F2B015C2F2D4
:106730000105EA780C46012A03D1006800F0ECFA62
:1067400008B900206870010A6170010C2070020E07
:106750004FF00410A170E270B0BD00000000000016
:1067600070B540F2B0160078C2F20106727800F0FF
:1067700001050C4602F00100854204D100214FF0D2
:106780000110217070BD3DB10020F071A6F8050028
:10679000B06030617061B061F078012809D128469D
:1067A00000F016FB50B1002175704FF00110217000
:1067B00070BDFF214FF00110217070BDFF214FF01F
:1067C0000110217070BD00002DE9F04381B040F24E
:1067D000B016C2F2010672790C467378804682F0D8
:1067E00001077771324495790027012B977145EAAB
:1067F000030920D13771B0683169F278451A012A4E
:1068000002D100F021FB054430790028F2D1B078A4
:106810005FFA89F1012816D198F8002098F8013024
:1068200042EA0327B7F5FE7F28BF4FF4FE77BD424B
:1068300098BF2F4608E0B0683169451AB0785FFA12
:1068400089F10128E8D000272170390A01286770F2
:10685000A17077D1002FD6F810E057D017F00305BC
:10686000A7F1010C12D071466FF3DF2140F26522CF
:10687000C2F20102535C012D01F10100E3700CD161
:10688000221D6546BCF1030F20D23FE0E21C70469A
:106890003D46BCF1030F19D238E06FF3DF20022D23
:1068A000115C00F10103217106D1621DBD1E184665
:1068B000BCF1030F0AD229E06FF3DF23FD1ED15C88
:1068C000581CA21D6171BCF1030F1FD340F2652358
:1068D000C2F2010301466FF3DF21441C595C6FF3E0
:1068E000DF24043D117000F102011C5D6FF3DF2114
:1068F000547000F10304585C6FF3DF24907004F1CE
:106900000100195DD17002F10402E3D10EEB070022
:1069100030617078032815D1B06800223169411ABE
:10692000B2EBD12F0ED1F17801290BD16FF3DF201B
:1069300040F265220121C2F201027170104401216E
:1069400000F03AFAF81C40F4003001B0BDE8F083E2
:106950002DE9F04790F800A089464FF000085FEA63
:10696000CA700E4609D15FEA8A701CD45FEA4A7089
:1069700042D408F58030BDE8F08740F2B010C2F292
:10698000010041794E46427881F001034371084489
:10699000817980F806804FF00108114306F8011B49
:1069A0005FEA8A70E2D540F2B015C2F2010568785C
:1069B00001280FD1002700BF2F71A8682969EA7844
:1069C000441A012A02D100F03FFA04442879002831
:1069D000F2D102E0A8682969441A200A09F808409F
:1069E000210C7070200EB170311DF07008F1040898
:1069F0000E465FEA4A70BCD540F2B011C2F2010106
:106A0000002200BF0A714B6988690F79002F1FBFF0
:106A10000A714B6988690F7918BF002F0AD00A7173
:106A20004B6988690F792FB10A714B6988690F79B1
:106A3000002FE7D1190A33707170190CB170190E5B
:106A4000F170010A307108F104087171010C000E37
:106A5000B171F07108F58030BDE8F08700000000EA
:106A6000F0B581B040F2B0150778C2F20105EA78BE
:106A70000C46012A02D1002000F0F6F9002F4FF059
:106A800000060BD0012F06D10120012700F0ECF900
:106A900008B1002104E0FF21002701E000270021C8
:106AA000EF704FF001106E70217001B0F0BD00006A
:106AB0002DE9F04140F2B015C2F2010569790027D5
:106AC0006A78044681F001036B7129448B79012AAD
:106AD0008F7143EA02035FFA83F80DD12F71A86822
:106AE0002969EA78461A012A02D100F0ADF9064474
:106AF00028790028F2D102E0A8682969461A300AEC
:106B000084F80080A070300C6670310EE0700520B3
:106B10002171BDE8F081000040F2B012C2F2010222
:106B20005378DB0708D1007801280AD8907000223A
:106B30004FF001100A707047FF224FF001100A70E9
:106B40007047FF224FF001100A70704700000000EC
:106B500043F60400C4F20200416801F00C0242F264
:106B60000041082AC0F2F40106D0042A1DD147F6DC
:106B70004001C0F27D1118E002685202036847F636
:106B8000400203F03F03C0F27D1258BF0A46B2FB39
:106B9000F3F10268C2F38812022351430268C2F380
:106BA000014203EB4202B1FBF2F140F21802C2F2E1
:106BB000010211604FF640134068C0F60003C0F3B5
:106BC0000310185C21FA00F010607047000000000C
:106BD0004EF68850CEF2000001684FF0000C41F4F0
:106BE0007001016043F60001C4F202010A6842F03C
:106BF00001020A604FF6FF72C1F808C0CFF6F662D4
:106C00000B681A400A6043F21002C2F200424A6066
:106C10000A6822F480220A60C1F80CC04FF00061BB
:106C200040F8801C704710B5930712D400F1280378
:106C3000D00718D153E8000F084203D1BFF32F8FBC
:106C4000002005E020EA010243E8002404B1F1E756
:106C500010BD806AD20700EA010315D1002B18BFCE
:106C600010BD002010BD53E8000F00EA01028A4267
:106C700003D0BFF32F8F002005E020EA010243E894
:106C8000002404B1EFE710BD8B4218BF002010BDF7
:106C900080B51B4A4FF0000E02F1440C624606E03C
:106CA0001A6991420BD3891A03F10C029E461368AC
:106CB000002BF5D10022C0E902E2016106E0C0E943
:106CC00002E3016198601A69511A1961BEF1000F5F
:106CD00018BF0EF10C0CCCF8000080BDC16829B1C2
:106CE00002690B691A440A6182688A608068044AF2
:106CF00000F10C03002808BF02F14403196070473B
:106D00001C000120000000004FF60820C0F6000023
:106D100001F042B8000000002DE9F04140F2B01649
:106D200049F28064C2F20106C0F2980471784FF60D
:106D30007C18A04238BF0446C0F60008C807D8F83F
:106D4000285010D016200021A847D8F82C008047E2
:106D5000800708D5D8F824008047B1680844B0609F
:106D600019200021A847012021460127A84720B16A
:106D7000002420463470BDE8F08170783770C10778
:106D800014D080070FD4B06840F2652200F03F01B4
:106D9000D8F818306FF3DF20C2F20102C1F14001D0
:106DA0001044F160984716200121A8472046BDE80D
:106DB000F0810000000000004FF67C12C0F60002D7
:106DC00040F2B0139269C2F20103D960104700008B
:106DD00070B5B0B140F2B010C2F2010001780129E3
:106DE0000DD101214FF67C14C160C0F6000440F2C1
:106DF0006520A269C2F2010001219047D8B10020AC
:106E000070BD4FF67C15C0F60005D5E90A46162080
:106E10000021A047B04780070BD5686A804740F241
:106E2000B011C2F201018A68104488601920002163
:106E3000A047012070BDA26A1620012190470028BA
:106E4000F7D0002070BD000010B54FF67C14C0F6DE
:106E50000004E06A8047800701D4002010BD606A0A
:106E6000BDE810400047000070B540F2B0120021AC
:106E7000C2F20102002811700CD04FF67C14C0F64B
:106E8000000447F2F910A168C0F60000884798B1E5
:106E9000002070BD4FF67C10C0F60000D0E903451D
:106EA000866A16200021B04719200021B047002033
:106EB000A847A047012070BD21690220884718B16A
:106EC000E0688047002070BD012070BD0000000018
:106ED0004FF60822C0F6000200F0E2B90000000000
:106EE00040F219607047000082B0009820F0010065
:106EF0000090009820F002000090009820F0080018
:106F00000090009820F0040000900098019002B0DA
:106F1000704700000000000040F2CC10C2F20100F7
:106F2000806B70470000000040F2CC11C2F20101FA
:106F300091F8492045F20000C4F2000000F0F8BECC
:106F400040F2CC10C2F20100C06B7047000000009C
:106F500080B54FF60821C0F6000101F059F8002075
:106F600080BD0000000000004FF60821C0F60001BF
:106F700001F07EB800000000024600286FF0040017
:106F800018BF002900D1704740F2CC13C2F20103B0
:106F9000D87A400702D44FF0FF3070475879012863
:106FA00025D045F2000CC4F2000CDCF8000020F003
:106FB0002000CCF8000000209962C3F807001A6393
:106FC000012298635A71DCF8002042F0806242F09E
:106FD0002002CCF80020DA68022AD4D15A6C002AA8
:106FE00018BF704793F8490002225A6410B16FF03D
:106FF00001007047012083F8490003F14200586303
:107000000020D962D863DCF8001041F08001CCF890
:107010000010704700000000024600286FF00400D6
:1070200018BF002900D1704740F2CC10C2F2010015
:10703000C37A5B0702D44FF0FF30704790F84930B5
:1070400013B16FF001007047012380F8493000232D
:107050004263C268022AC16245F20002C363C4F2FD
:1070600000021CD1436CD3B943794FF0010CC0F836
:1070700044C0012BE5D0136823F02003136000F116
:10708000400381620021C0F807100363816380F828
:1070900005C0106840F0806040F02000106010686B
:1070A00040F08000106000207047000000000000E9
:1070B000811E022911D3012812D000BB40F2CC104E
:1070C000C2F20100006940F40030B0F5003F04BF97
:1070D000002070474FF0FF3070476FF0030070479B
:1070E00040F2CC10C2F20100006940F40030B0F56B
:1070F000003F04BF002070474FF0FF3070476FF033
:10710000040070470000000010B500286FF0040E66
:1071100003D0002918BF002A01D1704610BD40F2EB
:10712000CC1CC2F2010C9CF80B304FF0FF3E5B0709
:10713000F3D5DCF80C30022BEFD19CF805304FF082
:10714000030ECCF844E0012B1DD045F20004C4F23C
:10715000000423684FF0000E23F020032360CCF8D6
:107160002820CCF807E0CCF830100121CCF838E02A
:107170008CF80510236843F0806343F020032360FC
:107180009CF849301BB16FF0010E704610BD8CF8B1
:107190004910CCF83400DCF80C000228CCF82C2084
:1071A000CCF83CE009D1DCF8440030B90120CCF83F
:1071B00044006FF0010E704610BD20684FF0000EC5
:1071C00040F080002060704610BD0000000000000C
:1071D00080B54FF60820C0F6000001F0B5F9002098
:1071E00080BD0000000000004FF64020C0F6000007
:1071F00000F0D2BD00000000B0B5044680070FD4F7
:10720000A0063FD414F4607F09D040F2B010C2F25F
:10721000010041790844817941F040018171B0BD9C
:1072200041F20400CEF2000040F2B0150068C2F254
:107230000105A8612A69A868E968084400F03F01CF
:10724000A860C1F140016861821AC1F500639A42E9
:1072500006D90320687001202871A006D2D511E05C
:107260006FF3DF20E9604FF67C1240F26523C0F631
:107270000002C2F20103926918449047012028716C
:10728000A006BFD540F2B010C2F201004179084417
:10729000817941F08001817114F4607FB5D1BEE73E
:1072A0002DE9F04F89B01446126BD37A9F0705D4AD
:1072B0004FF0FF31084609B0BDE8F08F0D466FF082
:1072C000140151FA80F105292BD8DFE801F00334CD
:1072D000717F99B1E068002800F0D480002D00F0A3
:1072E000F980D16806290FD0018982880691022190
:1072F000438905910793C1880492089104A9006805
:10730000FBF7B2FB226BD37A43F00800D0726068BF
:10731000016841F0080101600021084609B0BDE89C
:10732000F08F5179002900F0B3806FF00101084619
:1073300009B0BDE8F08F2069002800F0B480002D6E
:1073400000F0D880D16841F0020106290FD00189F0
:10735000828806910221438905910793C18804928E
:10736000089104A90068FBF77FFB226BD37A43F0F6
:107370001000D0726068816841F00101816041684D
:1073800041F040014160016841F080610160517944
:1073900009B1A16A19B9016841F0200101600168D1
:1073A00041F0040101600021084609B0BDE8F08FFA
:1073B000002D606B7DD090F82110002900F0AC808A
:1073C0006FF00101084609B0BDE8F08F6068616A9E
:1073D0000268002922F0C00202600AD0626B92F8B3
:1073E000212032B1826822F0800282600868FBF7B7
:1073F000F7F9606B00210184084609B0BDE8F08F01
:107400006068A16A0368002923F02003036009D0A3
:1074100053793BB1826822F0400282600868FBF732
:10742000DFF9226B00215171084609B0BDE8F08FE9
:107430006068616A0268002922F0E00202600AD0F6
:10744000626B92F8212032B1826822F08002826061
:107450000868FBF7C5F9A06A50B1216B497939B1C9
:1074600061688A6822F040028A600068FBF7B8F918
:10747000D4E90C020021417182F82110084609B0BC
:10748000BDE8F08F4FF0FF31084609B0BDE8F08F3E
:10749000676B97F8211000294FD06FF00101084663
:1074A00009B0BDE8F08F4FF0FF31084609B0BDE8E4
:1074B000F08F90F8201000294FF000013FF4FAAE51
:1074C0006268136823F0800313600184084609B0E2
:1074D000BDE8F08F61680F6827F008070F6003F0C0
:1074E000F701D368062BD17237D10021084609B0C5
:1074F000BDE8F08F61680F6827F004070F6003F0A4
:10750000EF01D36843F00203D172062B5DD1002155
:10751000084609B0BDE8F08F40F2011101846068AF
:10752000016841F080010160816941F002018161DF
:107530000021084609B0BDE8F08FD4F804C0DCF89B
:107540000010090712D5DCF81C1049060ED46FF0A4
:107550000101084609B0BDE8F08F81880068FBF79B
:107560009FF90021084609B0BDE8F08F4FF0FF31C8
:1075700051FA80F6132E57D86FF006014FF000082D
:107580004FF001094FF0000EDFE816F0EF01150093
:1075900014002800360044004E004E004E004E00FD
:1075A0004E004E004E004E004E0054005A00E100C6
:1075B000F600CA017EE62178890700F1C3816FF0E9
:1075C0000601084609B0BDE8F08F81880068FBF726
:1075D00067F90021084609B0BDE8F08F4FF0080EAA
:1075E0004FF000084FF00409C0F302226FF00801C9
:1075F000072A40F2C1815DE64FF0020E4FF000080D
:107600004FF00509C0F302226FF00801072A40F28B
:10761000B3814FE62178890600F1A1816FF0060160
:10762000084609B0BDE8F08F6FF00301084609B0C5
:10763000BDE8F08F7D830021084609B0BDE8F08FDA
:10764000D068052840F0DD81002D00F0E782DCF8ED
:10765000080040F00400CCF80800A06880474CF611
:107660000021C3F69A31B1FBF0F20123112703FB8D
:1076700002F0A84200F24E83581C00FB02F1A9421E
:107680009EBF981C00FB02F1A94200F24583D81C62
:1076900000FB02F1A9429EBF181D00FB02F1A942A6
:1076A00000F23A83581D00FB02F1A9429EBF981DCB
:1076B00000FB02F1A94200F22F83D81D00FB02F16A
:1076C000A9429EBF03F1080000FB02F1A94200F2AB
:1076D000238303F1090000FB02F1A9429EBF03F1DD
:1076E0000A0000FB02F1A94200F2168303F10B002D
:1076F00000FB02F1A9429EBF03F10C0000FB02F166
:10770000A94200F2098303F10D0000FB02F1A94236
:107710009EBF03F10E0000FB02F1A94200F2FC82C1
:1077200003F10F0000FB02F1A9429EBF03F110001C
:1077300000FB02F1A94200F2EF821137A7F110001D
:107740001133B0F5807F4FF0FF3190D3B2E5FF2DBC
:107750004FF0FF313FF6AEADD06806287FF4AAADFA
:10776000DCF81000002120F47F402843CCF8100002
:10777000084609B0BDE8F08FD068062840F0478180
:10778000A06880474CF60021C3F69A31B1FBF0F0B7
:107790000126C82100FB01F2662005FB00F36220F0
:1077A00005FB00F7152502FB06F0984202D2B8420D
:1077B00000F2A382701C02FB00F1994202D2B9428E
:1077C00000F29D82B01C02FB00F1994202D2B94244
:1077D00000F29582F01C02FB00F1994202D2B942FC
:1077E00000F28D82301D02FB00F1994202D2B942B3
:1077F00000F28582701D02FB00F1994202D2B9426B
:1078000000F27D82B01D02FB00F1994202D2B94222
:1078100000F27582F01D02FB00F1994202D2B942DA
:1078200000F26D8206F1080002FB00F1994202D2DB
:10783000B94200F2648206F1090002FB00F19942AC
:1078400002D2B94200F25B8206F10A0002FB00F1AB
:10785000994202D2B94200F2528206F10B0002FBB9
:1078600000F1994202D2B94200F2498206F10C00BD
:1078700002FB00F1994202D2B94200F2408206F1C5
:107880000D0002FB00F1994202D2B94200F23782A8
:1078900006F10E0002FB00F1994202D2B94200F259
:1078A0002E8206F10F0002FB00F1994202D2B9428A
:1078B00000F2258206F1100002FB00F1994202D28B
:1078C000B94200F21C8206F1110002FB00F199425C
:1078D00002D2B94200F2138206F1120002FB00F15B
:1078E000994202D2B94200F20A8206F1130002FB69
:1078F00000F1994202D2B94200F2018206F114006D
:1079000002FB00F1994202D2B94200F2F881681CF0
:107910001536153540284FF0FF31FFF444AFC9E468
:10792000D068062840F07980002D00F07C81DCF8DA
:107930000800002140F01000CCF80800084609B00B
:10794000BDE8F08F4FF0000E4FF410684FF00209C1
:10795000C0F302226FF00801072A0DD9AAE44FF004
:10796000200E4FF000084FF00609C0F302226FF01E
:107970000801072A3FF69EACDFE802F00512040476
:1079800004041B2296E410F440510A4618BF012259
:1079900000294FEA023218BF48F02008B9B946E082
:1079A00010F4405F3FD06FF00801084609B0BDE811
:1079B000F08F10F4405179D04FF0805239B936E051
:1079C00000F44051B1FA81F25209120779B3B1F5CE
:1079D000005F09D0B1F5805F0DD142F48062C0F341
:1079E0008131032927D131E042F4C062C0F38131F3
:1079F000032920D12AE06FF00901084609B0BDE84B
:107A0000F08F4FF0FF31084609B0BDE8F08F4FF01E
:107A1000FF31084609B0BDE8F08F4FF0FF3108464E
:107A200009B0BDE8F08F48F020084FF48052C0F351
:107A3000813103290AD002290FD001290FD108F57D
:107A40000058C0F3014103290DD119E008F5805811
:107A5000C0F30141032906D112E008F54058C0F3F4
:107A6000014103290CD0022915D001291CD121780C
:107A7000090621D46FF00B01084609B0BDE8F08F6C
:107A8000216801F4C071B1F5C07F1AD10EF5E06E26
:107A90004FF440311FE06178C90718D16FF00B0136
:107AA000084609B0BDE8F08F002114E06FF008012E
:107AB000084609B0BDE8F08F0EF5807E4FF48031A6
:107AC00009E06FF00B01084609B0BDE8F08F0EF534
:107AD000C06E4FF40031B9F1020F0091CDF80CE007
:107AE000019209D1010A4FF4007201F4806102EAA7
:107AF0009020084448EA0008A068CDF80880804734
:107B000019277843AE00B0FBF6F048F21F58C5F2D3
:107B1000EB18A0FB0801A0684FEA510A80477843A0
:107B2000B0FBF6FBA06880477843B0FBF6F0642614
:107B3000A0FB0812510901FB1601ABEB0000084441
:107B4000322101EB0010A0FB08014F094FEA1A1087
:107B500060F31F17A0688047B9B20001B0FBF1F0D5
:107B6000662169430009704388426FF00701BFF442
:107B7000A1AB62226A43DDE9026590427FF69AABCF
:107B80006268E068216B0028136823F0010313602A
:107B9000D760009FC1F80C900F611AD0B9F1060FA1
:107BA00009D0C97A090706D481880068FAF778FEF7
:107BB000206980B919E001898288069102214389F0
:107BC00005910793C1880492089104A90068FAF707
:107BD0004BFF206948B1216BCA6842F00202062AB5
:107BE00026D181880068FAF75BFE6069C8B3216B13
:107BF000C96841F0040106292FD1018982880691C4
:107C00000221438905910793C1880492089104A930
:107C10000068FAF729FFA06928BB3DE0002108466B
:107C200009B0BDE8F08F0021084609B0BDE8F08F2B
:107C3000C97AC906D5D5018982880691022143896E
:107C400005910793C1880492089104A90068FAF786
:107C50000BFF60690028CAD103E081880068FAF749
:107C60001FFEA069C0B147F400318288B1F5403FE2
:107C7000049208D101890691022142890591079257
:107C8000C188089104E0012105910021CDE9061188
:107C9000006804A9FAF7E8FEE069B8B147F480315A
:107CA0008288B1F5403F049208D1018906910221F2
:107CB000428905910792C188089103E00021CDE92E
:107CC00005110791006804A9FAF7CEFE6068D4E9AF
:107CD0000B12019B036006F5000343608560416160
:107CE000016841F0010101600021D07A40F00400F8
:107CF000D072084609B0BDE8F08FA5F114006168A4
:107D00000A6922F0FF02104308610021084609B009
:107D1000BDE8F08FA7F1100061680A6922F0FF0248
:107D2000104308610021084609B0BDE8F08F00004B
:107D300082B0120604D0009840F00100009008E0E4
:107D4000C069009A8009520862F35F0080F0010068
:107D5000009000984A798B7962F3410091F807C04E
:107D60000A7A0090009863F38200009000986CF308
:107D7000C3000090009862F304100090487A009AC3
:107D800060F345120092887A009960F386110091A1
:107D90000098019002B070472DE9F0414168CA692E
:107DA0000B6813409B060ED5036B5F79002F6CD0D8
:107DB000DB68022B436B29D1DF69012F26D1496A89
:107DC0004FF0000C24E000214FF0000C1305436835
:107DD00044BF1F685FEA471752D54FF40067403130
:107DE0001F621F6817403F0640F1B480D0F834E0AE
:107DF0009EF82040002C56D09F6947F002079F61F3
:107E00001F6817407F0600F1A980ADE0D1F824C0BB
:107E100099684F1C9F6081F800C0416809684B0554
:107E200009D411F0102106D0416B4FEA1C268B6853
:107E30005F1C8F601E70436B19691F680131B94266
:107E400019614FF0000126D14768066B3D6825F0A7
:107E500080653D60F768022F717135D1DE690021C0
:107E6000032ED96100F0C780022E2DD0012E12D131
:107E700001211305436844BF1F685FEA4717ACD46C
:107E80001F6817403F06B1D464E00127496A4FF0EC
:107E9000000CDF7120211305436844BF1F685FEAAF
:107EA0004717EDD599E7DEF80440DEF81450AC42F0
:107EB00028D0076BFF68022F0FD1DEF81C70022F4D
:107EC0000BD1BEF81AC01DE002211305436844BF60
:107ED0001F685FEA4717D3D57FE7DEF80C60771C91
:107EE000CEF80C7096F800C0D3F800805FEA4857CF
:107EF00008D418F0102705D0B71CCEF80C7076788F
:107F00004CEA062C01351FFA8CF7CEF81450AC421F
:107F10009F621FD11F6827F080071F601F6847F00E
:107F200040071F60066BF768022F4FF000078EF8BE
:107F300021700DD1DEF81C70012F0BD1F77A0126CC
:107F400026EA171739431F6817407F0606D40BE04F
:107F500041F001011F6817407F0605D51F6841F0F9
:107F6000080127F040071F60170711D4970718D49E
:107F7000D7071FD1570725D4D70527D492052FD46B
:107F8000B9B3006B0268A2B30846BDE8F0411047E0
:107F900008271F620126076B41F02001FE71970739
:107FA000E6D502271F620126076B01F580717E72FC
:107FB000D707DFD001271F6201F50071066BB7728A
:107FC0005707D9D504271F62D705D7D54FF4807737
:107FD0001F620126076B41F080013E729205CFD5EA
:107FE0004FF400721A6201F58061006B0268002A8A
:107FF000CAD1BDE8F08104211305436844BF1F685E
:108000005FEA47177FF53CAFE7E60000000000009D
:1080100010B50C46096BCA7AD20725D1086000203A
:10802000C860C1F8070048602421606BF8F7A0F928
:10803000E06810B10068FAF73BFB206910B10068F6
:10804000FAF736FB606910B10068FAF731FBA069F6
:1080500010B10068FAF72CFBE06910B10068FAF77C
:1080600027FB206B0121C17210BD00000000000041
:1080700010B582B002280C4629D001282FD090BB21
:1080800094F92000FAF768FE47F2FF716068C4F2C5
:10809000000188422BDC44F6FF31C4F20001884223
:1080A0007DDC44F20041C4F20001884200F0BE8051
:1080B00044F60001C4F20001884240F0CF8043F64C
:1080C0004000C4F20200016821F48021C5E0216B68
:1080D000C87AC20727D14FF0FF3002B010BD6FF051
:1080E000030002B010BD6FF0040002B010BD40F6F6
:1080F000FF71C4F20101884265DC47F60001C4F259
:108100000001884200F09A8047F60041C4F2000165
:10811000884240F0A38043F64000C4F202000168A8
:1081200021F0004199E080074FF0000000F10A8241
:10813000C1F8070043F6400C4860C4F2020C626BC1
:10814000C2F81E00C2F81A00C1E903000320C87279
:1081500047F2FF706268C4F20000824248DC44F6D5
:10816000FF30C4F20000824200F38F8044F20040EE
:10817000C4F20000824200F0B68044F60000C4F26F
:108180000000824240F0DC80DCF8000040F48020F7
:10819000CCF80000DCF8000000F48020CEE044F6CB
:1081A0000041C4F20001884250D045F20001C4F2FF
:1081B0000001884252D143F64000C4F20200016837
:1081C00021F4801149E041F20041C4F201018842EA
:1081D00052D041F20001C4F2010188423ED143F67F
:1081E0004000C4F20200416821F01001416035E016
:1081F00040F6FF70C4F2010082425DDC47F60000E9
:10820000C4F20000824279D047F60040C4F2000078
:10821000824240F09580DCF8000040F00040CCF84D
:108220000000DCF8000000F0004087E043F640006A
:10823000C4F20200016821F400310EE043F6400070
:10824000C4F20200016821F0804106E043F64000DC
:10825000C4F20200016821F400210160216B0020BA
:10826000C1F807004860626B82F82100CA7A02F008
:10827000FD02CA7202B010BD43F64000C4F2020013
:10828000416821F020014160E8E744F60040C4F273
:10829000000082423DD045F20000C4F2000082425C
:1082A0004ED1DCF8000040F48010CCF80000DCF87F
:1082B000000000F4801041E041F20040C4F20100EF
:1082C000824231D041F20000C4F20100824237D133
:1082D000DCF8040040F01000CCF80400DCF80400E6
:1082E00000F010002AE0DCF8000040F40030CCF888
:1082F0000000DCF8000000F400301FE0DCF80000B3
:1083000040F08040CCF80000DCF8000000F0804035
:1083100014E0DCF8000040F40020CCF80000DCF8A9
:10832000000000F4002009E0DCF8040040F0200028
:10833000CCF80400DCF8040000F020000190019863
:1083400094F92000002810DB00F01F02012303FA3B
:1083500002F24EF200134009CEF2000303EB80015B
:10836000C1F8802143F82020626841F20000C4F285
:10837000010082421CD044F6FF71C4F200018A421F
:108380001DDD47F6FF31C4F200018A422EDC45F2C2
:108390000001C4F200018A423BD047F60001C4F25A
:1083A00000018A424AD15CF8201C41F0804143E040
:1083B0005CF81C1C41F010014CF81C1C3EE044F21F
:1083C0000041C4F200018A4228D044F60001C4F200
:1083D00000018A4227D044F60041C4F200018A42DB
:1083E0002CD15CF8201C41F4002125E047F6004127
:1083F000C4F200018A421BD041F20041C4F20101E3
:108400008A421BD15CF81C1C41F020014CF81C1C5A
:1084100014E05CF8201C41F480110DE05CF8201C95
:1084200041F4003108E05CF8201C41F4802103E0B5
:108430005CF8201C41F000414CF8201C00BF00BF3C
:1084400000BF00BF824222D044F6FF70C4F2000099
:1084500082424FF0000023DD47F6FF31C4F20001F5
:108460008A4238DC45F20001C4F200018A4247D05A
:1084700047F60001C4F200018A4263D15CF8200C87
:1084800020F080404CF8200C002002B010BD5CF8B9
:108490001C0C20F010004CF81C0C002002B010BD89
:1084A00044F20041C4F200018A4232D044F6000195
:1084B000C4F200018A4235D044F60041C4F2000102
:1084C0008A423FD15CF8200C20F400204CF8200CAC
:1084D000002002B010BD47F60041C4F200018A42FC
:1084E00029D041F20041C4F201018A422AD15CF84C
:1084F0001C0C20F020004CF81C0C002002B010BD19
:108500005CF8200C20F480104CF8200C002002B005
:1085100010BD5CF8200C20F400304CF8200C00203A
:1085200002B010BD5CF8200C20F480204CF8200C28
:10853000002002B010BD5CF8200C20F000404CF888
:10854000200C002002B010BD10B50446C06818B160
:1085500081880068FAF7A4F9206918B18188006859
:10856000FAF79EF9606918B181880068FAF798F9FE
:10857000A06918B181880068FAF792F9E06918B12A
:1085800081880068FAF78CF9A06A10B100680021B0
:108590000160606A10B1006800210160206B002159
:1085A000C17210BD0000000040F20320C0F20D10A7
:1085B00070470000000000000146002007F0FAB8F4
:1085C00002460B46002011461A4607F0FBB8000091
:1085D000B0B5054608B1002403E0002005F020F8FE
:1085E000044640F21C10C2F201000068816941B1EA
:1085F000007FA84205D1002006F074FA002818BFB9
:1086000004462046B0BD0000B0B5054608B10024C0
:1086100003E0002005F056F8044640F21C10C2F2B8
:1086200001000068816941B1007FA84205D10020A6
:1086300006F0A2FB002818BF04462046B0BD00008B
:10864000002070470000000000207047000000007C
:10865000704700000000000000207047000000008C
:10866000B0B50446800737D50020012105F07AFF18
:1086700030B340F23410C2F20100418840F6782253
:10868000C2F201024902515C072906D140F268108A
:10869000C2F201000121017012E0418801314180E4
:1086A0004188082904BF00214180C1880131C1806F
:1086B00040F22410C2F201000068012103F0F8FB2F
:1086C00040F23410C2F20100C1880289891A89B2CD
:1086D00008290ED101210170600719D540F2341428
:1086E000C2F20104E089218A884212D1012060701F
:1086F000B0BD408840F67821C2F2010101EB402272
:10870000002001214FF4007305F018FF6007E5D445
:10871000B0BDA08941F67822A189C2F2010202EB24
:10872000402204EB41014B8A00208121002505F005
:1087300027FFA0890130A081A089082808BFA58152
:10874000208A01302082B0BD704700000000000088
:108750007047000000000000012818BF704780B576
:1087600040F2341E4FF0000CC2F2010E40F67822A7
:108770008EF800C000200121C2F201024FF4007304
:10878000BDE8804005F0DABE704700000000000040
:1087900040F23410C2F201000021012241808180A8
:1087A000C1800181027041818181C1810182427059
:1087B000704700000000000070470000000000004B
:1087C0007047000000000000B0B540F66825C2F216
:1087D00001052968044639B1B1F57A7F0BD12046ED
:1087E000BDE8B04002F0B0BD02F0EAFD01462860ED
:1087F000B1F57A7FF3D001FB04F044F6D351C1F216
:108800006201A0FB01018C092046BDE8B04002F0E6
:108810009BBD000000000000704700000000000049
:1088200070470000000000007047000000000000DA
:10883000002070470000000000207047000000008A
:10884000704700000000000000207047000000009A
:1088500070470000000000007047000000000000AA
:108860007047000000000000FFF7F2BF00000000AA
:10887000704700000000000070470000000000008A
:10888000704700000000000070470000000000007A
:1088900040F24020C2F201004078012809D140F6A0
:1088A0000400C4F20400016821F00201016000200C
:1088B00070474FF0FF30704740F24020C2F2010095
:1088C0004078012809D140F60400C4F20400016890
:1088D00041F002010160002070474FF0FF30704707
:1088E00081B040F24020C2F201008068009001B0E7
:1088F000704700000000000040F24020C2F201007A
:108900004078012811D110B540F60404C4F20404E3
:10891000206840F0010020600520F9F7ADFF2068D5
:1089200020F001002060002010BD4FF0FF307047A4
:1089300040F24021C2F201014978012909D140F6F3
:108940000001C4F204010A6860F30A1200200A6000
:1089500070474FF0FF307047704700000000000084
:108960000020704700000000002070470000000059
:108970000020704700000000002070470000000049
:108980000020704700000000002070470000000039
:10899000002070470000000070B500F00F0CBCF123
:1089A000070F02D96FF0040070BD13466FF3DF2389
:1089B00010F0800E07D04EA434F81C40A34206D914
:1089C0006FF0040070BD40F20C44A342EAD840F2BC
:1089D0004024C2F201046478012C10D14FEA4C0407
:1089E00044EAD01044F6782500EB4000C2F20105BD
:1089F00005EBC00426692EB16FF0010070BD4FF089
:108A0000FF3070BD002645F830602046C4E901669D
:108A100040F8146F01250129E6602661E3810570A5
:108A200004D1C2F3C12205782A44027040F61C002A
:108A3000BEF1000FC4F2040029D04FEA8C5242EA82
:108A40008142D51801F0FE034FF0000E00F1E40260
:108A500084F815E04FEA4C16022B95514FEACC03EF
:108A600005D152F8236046F0805642F8236052F850
:108A7000236046F4004642F8236052F82360B6F1C2
:108A8000FF3F21DC52F8236046F080461AE043EABB
:108A9000814201F0FE0302F1006600F539724FEAEF
:108AA0004C15022B56514FEACC0305D152F82360E6
:108AB00046F0805642F8236052F823600CF1100C07
:108AC00046F4004642F823600122036802FA0CF2E1
:108AD0001A430129026008D11820C4F20400016879
:108AE00041F400410160002070BD002070BD00BF56
:108AF0000002000200020002E000E000E000E000EE
:108B000080B500F00F0EBEF1070F02D96FF0040020
:108B100080BD40F24023C2F201035B78012B10D1EB
:108B20004FEA4E0343EAD01344F6782203EB4303A3
:108B3000C2F2010202EBC3031A692AB16FF001000D
:108B400080BD4FF0FF3080BD40F6040C0029C4F218
:108B5000040C00F080003BD000285FD00CF1FC003A
:108B60004FEA4E114158B1F1FF3F4FEACE0140F3B9
:108B7000A88050F8212040F2180C42F4001240F86E
:108B80002120C2F2010CDCF800001021C4F2040123
:108B900083090868800640F1A080002B00F0CE8099
:108BA0000868800640F19980012B00F094800868E5
:108BB000800640F19280022B00F08D8008688006CC
:108BC00040F18B80043B581C4FF00000E1D15FE086
:108BD0000021002859754FEACE00997545D00CF157
:108BE000FC0151F82020B2F1FF3F05DC51F82020B4
:108BF00042F0804241F8202051F82020120305D590
:108C000051F8202042F0805241F8202051F82020D5
:108C100022F4001241F82020002080BDDCF8000082
:108C2000102340F40070CCF8000040F21800C2F2AB
:108C300001000068C4F2040381095868000628D4C2
:108C4000002978D05868000623D4012970D05868CC
:108C500000061ED402296BD05868000619D40439C6
:108C6000481C4FF0FF30E8D112E00CF53F7151F88D
:108C70002020120305D551F8202042F0805241F8FF
:108C8000202051F8202022F4001241F8202000205A
:108C900080BD0CEB4E10D0F8FC124FF400120029EE
:108CA000D0F8FC12BCBF0022C4F220021143C0F86D
:108CB000FC12DCF8000040F48060CCF800000020DA
:108CC00080BD0122DA7550F8212042F0804242F442
:108CD000001240F82120002080BD086820F4F860D0
:108CE00040EA8E100860086840F020000860DCF858
:108CF00000008209086880064FF00000C8D5002AED
:108D0000C6D0086880064FF00000C1D5012ABFD048
:108D1000086880064FF00000BAD5022AB8D008686B
:108D200080060DD5043A501C4FF00000E2D1AFE7A9
:108D30004FF0FF3080BD4FF0FF3080BD002080BD80
:108D4000002080BD00000000B0B5054600280C469C
:108D500009D1A4F18100022801D3012C03D1002004
:108D6000214604F035FC40F21C10C2F201000068FC
:108D7000816981B1017FA9420DD1817F41F08001DC
:108D8000A14202D0C07FA04205D100202146BDE80B
:108D9000B04005F037BDB0BD002818BF7047A1F145
:108DA0008100022801D3012902D1002004F024BC53
:108DB000704700000000000070B500F00F03072BA3
:108DC00002D96FF0040070BD40F24025C2F20105E7
:108DD0006D78012D11D15D0045EAD01544F6782E4D
:108DE00005EB4504C2F2010E0EEBC40C654655F8C6
:108DF000106F2EB16FF0010070BD4FF0FF3070BDED
:108E000001262E6000064EF83410614641F8042F0A
:108E10004FF000064FEAC3004E600E8134D440F696
:108E2000100EC4F2040E0EF53C7252F8204004F409
:108E30004024B4F5802F34D0BCF80E4052F82050B6
:108E400005F44025B5F5802F06D1654615F8146F59
:108E5000012E01D02D786C43A4B20D68A54201D833
:108E600009688CB29CF81410002B44EAC14134D03C
:108E70000EEB8003C3F8001352F8201001F44021D8
:108E8000B1F5802F41D133E040F61001C4F2040166
:108E900001F1F00353F8206006F44026B6F5802F68
:108EA00001D1002070BD002A04BF01228CF81620D9
:108EB00001228CF8152053F8202042F0806243F8FC
:108EC000202053F8202042F0006243F82020086858
:108ED00040F040000860002070BD01F1C041CEF8B4
:108EE000001352F8201001F44021B1F5802F0CD16D
:108EF0005EF8081CC90552F820304FF0805158BF69
:108F00004FF00051194342F8201052F8201041F060
:108F1000044142F82010002070BD00000000000055
:108F200000F00F03072B02D96FF00400704740F2E6
:108F30004021C2F201014978012926D110B559001A
:108F400041EAD01144F6782201EB4101C2F201025C
:108F50001024000602EBC10E4FF00001C4F204041D
:108F6000CEF804104FEAC3008EF815108EF81610D4
:108F70000ED404F52F6151F82020B2F1FF3F51F8D3
:108F8000202033DD42F0006232E04FF0FF307047C6
:108F900004F50F6151F82020B2F1FF3F21DD51F8B7
:108FA000202040F2180C42F0006241F82020C2F26A
:108FB000010CDCF800008009216889061ED5C8B1C3
:108FC000216889061AD5012814D02168890615D58B
:108FD00002280FD02168890610D50438411CEBD136
:108FE00008E001228EF8172051F8202042F090422C
:108FF00041F820200020CEF8100010BD206820F499
:10900000F86040EA83102060206840F02000206073
:10901000DCF80000800900BF21688906EAD5002835
:10902000E8D021688906E5D50128E3D021688906C2
:10903000E0D50228DED021688906DBD50438411C42
:10904000EAD1D7E70000000000F00F01072901D99D
:1090500000207047490041EAD01044F6782100EB27
:109060004000C2F2010101EBC000806870470000BF
:10907000F0B500F00F03072B02D96FF00400F0BD2C
:1090800040F24021C2F20101497801290FD1590073
:1090900041EAD01144F6782401EB4105C2F2010403
:1090A00004EBC5010A692AB16FF00100F0BD4FF071
:1090B000FF30F0BDC20943EA021240F61C0782F0FD
:1090C0001002C4F20407012606FA02F23E6826EAFC
:1090D00002023A60002244F8352007F5397CC1E9E4
:1090E0000122C1E903224A61590100F0800E5CF8B7
:1090F000010000F44020B0F5802F4FEAC30408D0EF
:1091000007EB8400D0F8E40000F44020B0F5802F95
:1091100064D1D7F80403000405D40020D7F8041163
:1091200009040DD414E0D7F8040300F44020A0F59E
:109130008020B0FA80F04009D7F80411090407D55F
:10914000D7F8041101F44021B1F5802F08BF013098
:10915000D7F82413090400F19180D7F824110904E9
:1091600000F19980D7F84413090400F1A180D7F8E1
:109170004411090400F1A980D7F86413090400F12F
:10918000B180D7F86411090400F1B980D7F88413CD
:10919000090400F1C180D7F88411090400F1C980E5
:1091A000D7F8A413090400F1D180D7F8A411090459
:1091B00000F1D980D7F8C413090400F1E180D7F891
:1091C000C411090400F1E980C0B2012806D11420BD
:1091D000C4F20400416821F400414160BEF1000F77
:1091E0002ED11421C4F20401D1F8F00740F2180E78
:1091F00040F40070C1F8F007C2F2010EDEF8000082
:1092000085090868000600F1D580002D00F0EF8088
:109210000868000600F1CE80012D00F01181086879
:10922000000600F1C780022D00F00A8108680006E0
:1092300000F1C080043D681C4FF0FF30E1D1D3E065
:1092400007F1E40050F82410B1F1FF3F05DC50F8BD
:10925000241041F0804140F8241050F82410002BD5
:1092600041F0006140F8241000F0BF8050F8241055
:1092700021F4004140F824100020F0BDD7F8241359
:1092800001F44021B1F5802F08BF0130D7F8241137
:1092900009047FF567AFD7F8241101F44021B1F537
:1092A000802F08BF0130D7F8441309047FF55FAF62
:1092B000D7F8441301F44021B1F5802F08BF0130E5
:1092C000D7F8441109047FF557AFD7F8441101F4DA
:1092D0004021B1F5802F08BF0130D7F8641309048D
:1092E0007FF54FAFD7F8641301F44021B1F5802F1B
:1092F00008BF0130D7F8641109047FF547AFD7F8EC
:10930000641101F44021B1F5802F08BF0130D7F876
:10931000841309047FF53FAFD7F8841301F440218B
:10932000B1F5802F08BF0130D7F8841109047FF50B
:1093300037AFD7F8841101F44021B1F5802F08BF71
:109340000130D7F8A41309047FF52FAFD7F8A41381
:1093500001F44021B1F5802F08BF0130D7F8A411E6
:1093600009047FF527AFD7F8A41101F44021B1F526
:10937000802F08BF0130D7F8C41309047FF51FAF51
:10938000D7F8C41301F44021B1F5802F08BF013094
:10939000D7F8C41109047FF517AFD7F8C41101F449
:1093A0004021B1F5802F08BF0130C0B201283FF441
:1093B0000EAF13E75CF82400002B40F000604CF87F
:1093C00024000AD05CF82400B0F1FF3F12DD5CF805
:1093D000240020F400404CF82400D1F8F00740F4B9
:1093E0008060C1F8F0070020F0BD0020F0BD4FF014
:1093F000FF30F0BD5CF8240007F53B7240F0804080
:109400004CF82400DEF80000830952F8240080079D
:10941000DDD4C3B152F824008007D8D4012B0FD07B
:1094200052F824008007D2D4022B09D052F824002D
:109430008007CCD4043B581C4FF0FF30E5D1D3E774
:109440004FF0FF30F0BD4FF0FF30F0BD00000000E6
:1094500040F2180CC2F2010CDCF800301021C4F20A
:1094600004019B090A68920611D57BB30A6892062B
:109470000DD5012B2AD00A68920608D5022B25D0DB
:109480000A68920603D5043B5A1CEBD11EE00A6819
:1094900060F38A120A60086840F020000860DCF877
:1094A000000080090A68920610D578B10A68920611
:1094B0000CD501280AD00A68920607D5022805D0E3
:1094C0000A68920602D50438421CEBD170470000AE
:1094D000002070470000000040F24020C2F201006E
:1094E0004078012807D140F60800C4F20400006863
:1094F000C0F30D20704700207047000000000000FE
:1095000040F20220C0F20E10704700000000000080
:109510004FF0FF307047000010B501284FF00000F9
:1095200008BF012900D010BD40F25614C2F2010458
:10953000E089218A884203D101202070002010BDDB
:10954000A08943F67821C2F2010101EB40214FF4DA
:1095500000721846F6F7F3FEA0890130A081A089B9
:10956000082804BF0020A081208A013020824FF407
:10957000007010BD0000000040F25610C2F2010061
:10958000002141808180C180018141818181C1812F
:109590000182012101707047002070470000000027
:1095A00010B502283DD1029ADAB31878072807D1FE
:1095B00040F26810C2F2010001210170012010BDCB
:1095C00040F25614C2F20104E0882189401A80B2A8
:1095D000082809D140F22010C2F201000068802161
:1095E00002F066FC012010BD608842F67821C2F2CC
:1095F000010101EB40201946F6F7A1FE6088012128
:10960000013060806088082804BF00206080E08806
:109610000130E08040F22010C2F20100006802F048
:1096200047FC012010BD0000704700000000000052
:109630002DE9F04F83B010240746C004C4F204049F
:109640000BD4380527D4B7F1FF3F38DD40F6080EBC
:10965000B804C4F2040E49D47BE04FF4805060603B
:10966000A06840F00800A06001F0A2F940F240209C
:10967000C2F201008168012321F00801C268816003
:10968000816863F342018160042090471024C4F292
:1096900004043805D7D54FF40060606040F24020E4
:1096A000C2F20100816821F008018160C1681020C8
:1096B00088471024C4F20404B7F1FF3FC6DC4FF022
:1096C0000040606040F24020C2F20100816841F039
:1096D00008018160C168202088471024C4F2040476
:1096E00040F6080EB804C4F2040E32D54FF4005010
:1096F0006060DEF80000C0F34100032814D0E0B938
:1097000040F24020C2F201008168022262F342016D
:10971000C268816008209047102440F6080EC4F209
:109720000404C4F2040E08E040F24020C2F201003A
:109730008168012262F3420181605EF8040C40F40A
:1097400080704EF8040C5EF8040C40F480604EF813
:10975000040C40F24025C2F201053807A86816D56E
:1097600010F0080013D1A06820F00800A0600820C5
:109770006060A86840F00800A8602020E968884779
:10978000102440F6080EC4F20404C4F2040EF806D5
:1097900040F1F9802069C0F3434102291FD0062916
:1097A00040F0F18041F20001C4F20401086882B285
:1097B000A8610968B2F5A06FE96109D1697801294A
:1097C00006D1D4F8F017000C60F30A11C4F8F017B2
:1097D000012028703803009700F1D980F0E100F0F3
:1097E0000F030EF53E715E01C0F30A1288590004A2
:1097F00040F1C980580044F6782500EB4000C2F2E1
:10980000010555F83060002E00F0BD8005EBC00E5C
:10981000F4465CF8040FDB00904238BFDCF800200F
:1098200051F8230000F44020B0F5802F2DD140F6F0
:1098300008009EF81410C4F2040000EB8300D0F876
:1098400008330329C3F3C944D0F80803C0F34173B4
:10985000A1EB04000DD0022903D0012943D1002B34
:1098600011E002284FF000010AD1022B08BF114677
:109870000CE003284FF0000100F0E386022801D03D
:10988000012803D1032B18BF002211461FFA81F9CA
:10989000DEF8003000207146B0EB990F51F8080F48
:1098A00041F20004C4F20404034431D04FEA9905A4
:1098B00015F00306A5F101081BD02268184640F8F0
:1098C000042B012E05D103464546B8F1030F13D2F0
:1098D0001EE02068022E586007D10833023DB8F11F
:1098E000030F09D214E00021D0E72068033D9860FF
:1098F0000C33B8F1030F0BD32068043D18602068C7
:109900005860206898602068D86003F11003F3D194
:10991000086819F003054844086021D0681E2168D2
:10992000032802914FF000010DD302AA505C541895
:109930005E185854043160787070A078B070E07888
:10994000F070F3D10B445DB102A8445C012D1C7092
:1099500006D008444178022D597001D08078987063
:10996000BEF80E00814504D1DCF80000A0EB090030
:1099700000E0002040F6080ECCF800001024C4F2ED
:10998000040EC4F204043803009740F11981DEF894
:1099900010004FF0010CDEF814100EF54073084073
:1099A0000193060C4FF0000B5FFA8BF50CFA05F0F3
:1099B000304200F0CD8068014FEAD51A1858DEF821
:1099C0000C10574601EA000965F344075FEA897005
:1099D0004FEAC50806D45FEA09703DD45FEAC97052
:1099E0005CD1B5E00EF53E7050F8281001F440212E
:1099F000B1F5802F2AD144F6782207EB4701C2F255
:109A0000010202EBC1010A7D496841EAC2410EEB45
:109A10008802C2F8081340F24021C2F201014978DD
:109A200041B1DEF80010C90550F8281004D541F006
:109A3000805103E050F8281041F0005140F8281000
:109A400050F8281041F0044140F82810022043F853
:109A500028005FEA0970C1D544F6782107EB47007A
:109A6000C2F2010101EBC00000214160082043F86F
:109A7000280040F24020C2F201000269012128467C
:109A800090471024019B40F6080E4FF0010CC4F2E1
:109A90000404C4F2040E5FEAC97059D044F6782178
:109AA00043F828C007EB4700C2F2010101EBC000F8
:109AB0004168C9B30EEB8800D0F8F80200F44020EA
:109AC000B0F5802F44D005F00F024AEA420044F678
:109AD000782100EB4000C2F2010101EBC0050EF558
:109AE0003E70E9895301C35803F44023B3F5802F36
:109AF00006D12B4613F8147F012F01D01B78594350
:109B00002B468FB253F8041FB9424FEAC20101D865
:109B10001B689FB22B7D002A47EAC34221D00EEB7F
:109B20008103C3F8082320E00021016140F24020B6
:109B3000C2F2010002690221284690471024019BCD
:109B400040F6080E4FF0010CC4F20404C4F2040EF7
:109B50000BF1010B5FFA8BF036FA00F07FF424AFC3
:109B60002EE002F1C042CEF80823019B50F82120DC
:109B700002F44022B2F5802F14D140F24022C2F20A
:109B80000102527842B1DEF80020D20550F82120BF
:109B900004D542F0805203E050F8212042F00052F8
:109BA00040F8212050F8212042F0044240F82120C2
:109BB0000BF1010B5FFA8BF036FA00F07FF4F4AE94
:109BC0000098400340F17A81DEF8100044F67823D3
:109BD000DEF814104FF0010C084085B20EF58078C5
:109BE000C2F201034FF0000A46E0216860F38A11D7
:109BF0002160206840F02000206040F21800C2F28E
:109C000001000068800900BF2168890610D578B17D
:109C1000216889060CD501280AD02168890607D554
:109C2000022805D02168890602D50438411CEBD1F1
:109C3000306898B1B089716808447060019801F08B
:109C4000C3F944F67823102440F6080EC2F201034B
:109C50004FF0010CC4F20404C4F2040E40F24020A0
:109C6000C2F2010001464068B84348605FEA4960BB
:109C700040F1EC8021E000BF5FFA8AF00CFA00F7B7
:109C80002F4200F01381410158F801104FEAC00B38
:109C9000DEF8082002EA0109012160F3440140F0E6
:109CA000800201EB410101925FEA897203EBC10678
:109CB0002AD45FEA496040F1C980304610F8151F88
:109CC000002900F0C08000210170587D93F84510F4
:109CD000084393F87510C0B293F8A520084393F891
:109CE000D510104393F80521084393F8351110431C
:109CF000084300F08E807068002840F09480B07DAA
:109D0000002840F090809EE0022148F82B10314658
:109D100011F8172F012A1DD100220A7040F21801F4
:109D2000C2F20101096889092268920645D5002915
:109D3000BFD02268920640D50129BAD02268920687
:109D40003BD50229B5D02268920636D504394A1C83
:109D5000EAD1AEE70EEB8B01D1F8F81001F4402107
:109D6000B1F5802FA5D140F24021C2F2010149682E
:109D700039429ED040F21801C2F2010109688909F6
:109D8000226892067FF531AF00293FF451AF226877
:109D900092067FF52AAF01293FF44AAF2268920666
:109DA0007FF523AF02293FF443AF226892067FF587
:109DB0001CAF04394A1CE3D13AE7216860F38A11E9
:109DC0002160206840F02000206040F21800C2F2BC
:109DD00001000068800900BF216889067FF569AF2E
:109DE00000283FF466AF216889067FF562AF01283D
:109DF0003FF45FAF216889067FF55BAF02283FF42F
:109E000058AF216889067FF554AF0438411CE3D16F
:109E10004FE7DEF8080020F04000CEF80800706838
:109E200000283FF46CAF019801F0CEF844F6782397
:109E3000102440F6080EC2F201034FF0010CC4F2E8
:109E40000404C4F2040E402048F82B005FEAC970F5
:109E50002CD048F82BC0B089B1680844B060706855
:109E600060B10EEB8B00D0F8F80000F44020B0F5A4
:109E7000802F1BD0019801F0A7F80AE00020306085
:109E80000421306140F24020C2F2010002690198D1
:109E9000904744F67823102440F6080EC2F20103DE
:109EA0004FF0010CC4F20404C4F2040E0AF1010ADA
:109EB0005FFA8AF035FA00F07FF4DEAEDDF800A03C
:109EC0005FEA0A4040F17D834FF4421040F240299E
:109ED0006060C2F2010999F801C05FEA8A205BD490
:109EE0000EF546710EF54A7244F6782E01230227CC
:109EF000C2F2010E086800F44020B0F5802F43D173
:109F00000868000440D547EAD31000EB40000EEB90
:109F1000C004254655F8040FB0B3B4F80E800E689F
:109F200006F44026B6F5802F07D1264616F8140F02
:109F3000012802D0307808FB00F81FFA88F02E685C
:109F4000864201D8286880B2247D40EAC44010606F
:109F5000086800F44020B0F5802F11D1BCF1000F4B
:109F60000AD040F60800C4F204000068C005086882
:109F700003D540F0805002E0086840F000500860CF
:109F8000086840F004400860013320322031082B7B
:109F900007F10207AED140E1DEF8180300F44020DB
:109FA000B0F5802F23D1DEF8180300041FD5BCF1D3
:109FB000000F0AD0DEF80000C0F30D20DEF8181301
:109FC00080EA1140C00707D011E00020DEF8181326
:109FD00080EA1140C0070AD1DEF81803B0F1FF3F54
:109FE00005DCDEF8180340F08040CEF81803DEF8F8
:109FF000380300F44020B0F5802F23D1DEF8380379
:10A0000000041FD5BCF1000F0AD0DEF80000C0F339
:10A010000D20DEF8381380EA1140C00707D011E0A8
:10A020000020DEF8381380EA1140C0070AD1DEF8BC
:10A030003803B0F1FF3F05DCDEF8380340F0804024
:10A04000CEF83803DEF8580300F44020B0F5802F36
:10A0500023D1DEF8580300041FD5BCF1000F0AD04D
:10A06000DEF80000C0F30D20DEF8581380EA11403E
:10A07000C00707D011E00020DEF8581380EA114035
:10A08000C0070AD1DEF85803B0F1FF3F05DCDEF867
:10A09000580340F08040CEF85803DEF8780300F40F
:10A0A0004020B0F5802F23D1DEF8780300041FD5BF
:10A0B000BCF1000F0AD0DEF80000C0F30D20DEF87E
:10A0C000781380EA1140C00707D011E00020DEF8C5
:10A0D000781380EA1140C0070AD1DEF87803B0F1A6
:10A0E000FF3F05DCDEF8780340F08040CEF87803CF
:10A0F000DEF8980300F44020B0F5802F23D1DEF87D
:10A10000980300041FD5BCF1000F0AD0DEF8000050
:10A11000C0F30D20DEF8981380EA1140C00707D085
:10A1200011E00020DEF8981380EA1140C0070AD140
:10A13000DEF89803B0F1FF3F05DCDEF8980340F04D
:10A140008040CEF89803DEF8B80300F44020B0F564
:10A15000802F23D1DEF8B80300041FD5BCF1000F17
:10A160000AD0DEF80000C0F30D20DEF8B81380EA54
:10A170001140C00707D011E00020DEF8B81380EAD4
:10A180001140C0070AD1DEF8B803B0F1FF3F05DC8B
:10A19000DEF8B80340F08040CEF8B803DEF8D8030C
:10A1A00000F44020B0F5802F37D140F60800C4F20B
:10A1B0000400D0F8D80300042FD5BCF1000F0DD057
:10A1C00040F60801C4F204010868C0F30D20D1F87C
:10A1D000D81380EA1140C0070BD01EE040F60801FA
:10A1E0000020C4F20401D1F8D81380EA1140C0075E
:10A1F00013D140F60800C4F20400D0F8D803B0F13F
:10A20000FF3F0ADC40F60800C4F204000146D0F823
:10A21000D80340F08040C1F8D80340F60802C4F2E9
:10A220000402D2F818015FEACA2100F4402000F1CC
:10A23000AC80B0F5802F10D1D2F8180100040CD5F5
:10A2400044F67820C2F20100C06C30B1812000F0E9
:10A25000BBFE40F60802C4F20402D2F8380100F452
:10A260004020B0F5802F10D1D2F8380100040CD571
:10A2700044F67820C2F20100C06F30B1822000F0B5
:10A28000A3FE40F60802C4F20402D2F8580100F41A
:10A290004020B0F5802F11D1D2F8580100040DD51F
:10A2A00044F67820C2F20100D0F8AC0030B183202F
:10A2B00000F08AFE40F60802C4F20402D2F87801E7
:10A2C00000F44020B0F5802F11D1D2F878010004BD
:10A2D0000DD544F67820C2F20100D0F8DC0030B190
:10A2E000842000F071FE40F60802C4F20402D2F8A5
:10A2F000980100F44020B0F5802F11D1D2F89801D8
:10A3000000040DD544F67820C2F20100D0F80C010B
:10A3100030B1852000F058FE40F60802C4F2040275
:10A32000D2F8B80100F44020B0F5802F11D1D2F856
:10A33000B80100040DD544F67820C2F20100D0F82F
:10A340003C0130B1862000F03FFE40F60802C4F226
:10A350000402D2F8D80100F44020B0F5802F40F07C
:10A360003081D2F8D801000440F12B8144F67820E6
:10A37000C2F20100D0F86C01002800F02281872091
:10A3800003B0BDE8F04F00F01FBEB0F5802F21D123
:10A39000D2F8180100041DD5D2F81801B0F1FF3F22
:10A3A00018DCBCF1000F00F00F811068C0F30D2025
:10A3B000D2F8181180EA1140C0070BD1D9F8040077
:10A3C00040F00200C9F80400D2F8180140F09040B3
:10A3D000C2F81801D2F8380100F44020B0F5802FFF
:10A3E00021D1D2F8380100041DD5D2F83801B0F1DE
:10A3F000FF3F18DCBCF1000F00F0EF801068C0F3E5
:10A400000D20D2F8381180EA1140C0070BD1D9F8DD
:10A41000040040F00400C9F80400D2F8380140F00C
:10A420009040C2F83801D2F8580100F44020B0F54D
:10A43000802F21D1D2F8580100041DD5D2F858013F
:10A44000B0F1FF3F18DCBCF1000F00F0CF801068C6
:10A45000C0F30D20D2F8581180EA1140C0070BD18B
:10A46000D9F8040040F00800C9F80400D2F85801F7
:10A4700040F09040C2F85801D2F8780100F4402032
:10A48000B0F5802F21D1D2F8780100041DD5D2F883
:10A490007801B0F1FF3F18DCBCF1000F00F0AF8095
:10A4A0001068C0F30D20D2F8781180EA1140C0077F
:10A4B0000BD1D9F8040040F01000C9F80400D2F81C
:10A4C000780140F09040C2F87801D2F8980100F489
:10A4D0004020B0F5802F21D1D2F8980100041DD57D
:10A4E000D2F89801B0F1FF3F18DCBCF1000F00F08A
:10A4F0008F801068C0F30D20D2F8981180EA1140C7
:10A50000C0070BD1D9F8040040F02000C9F80400BE
:10A51000D2F8980140F09040C2F89801D2F8B80102
:10A5200000F44020B0F5802F20D1D2F8B80100040B
:10A530001CD5D2F8B801B0F1FF3F17DCBCF1000F19
:10A540006FD01068C0F30D20D2F8B81180EA114026
:10A55000C0070BD1D9F8040040F04000C9F804004E
:10A56000D2F8B80140F09040C2F8B801D2F8D80152
:10A5700000F44020B0F5802F23D1D2F8D801000498
:10A580001FD5D2F8D801B0F1FF3F1ADCBCF1000FA3
:10A590004FD01068C0F30D20D2F8D81180EA1140D6
:10A5A000C0070ED140F24020C2F2010001464068CF
:10A5B00040F080004860D2F8D80140F09040C2F8E6
:10A5C000D80103B0BDE8F08F0020D2F8181180EA5E
:10A5D0001140C0077FF4FEAEF0E60020D2F838113B
:10A5E00080EA1140C0077FF41EAF10E70020D2F8C8
:10A5F000581180EA1140C0077FF43EAF30E70020D9
:10A60000D2F8781180EA1140C0077FF45EAF50E7BE
:10A610000020D2F8981180EA1140C0077FF47EAF85
:10A6200070E70020D2F8B81180EA1140C0079DD130
:10A6300090E70020D2F8D81180EA1140C007C0D1BD
:10A64000B0E7012B08BF1146FFF720B9000000005A
:10A6500010B540F24024C2F20104A278002A0CD1C5
:10A66000C4E9030146F6E050C2F201000221017084
:10A670000320FAF7B1FA0120A070002010BD0000FD
:10A68000F0B581B002285DD0012868D000286BD1D8
:10A6900043F63005C4F2020528684FF4005140F03B
:10A6A00080402860002428680C2600F0804000903C
:10A6B000C4F2040600984EF20810CEF20000C0F872
:10A6C0008010BFF34F8FBFF36F8FC0F8801140F23F
:10A6D0004020C2F2010040F604014470C4F20401BB
:10A6E0000A6842F002020A6056F8041C21F00101D7
:10A6F00046F8041C55F8201C41F0005145F8201C78
:10A700004FF4C0710470846044F67820C2F20100F6
:10A71000F5F72EFE286820F080402860686920F058
:10A720000040686140F60060C4F20400016841F036
:10A7300001010160F462286820F000502860204682
:10A7400001B0F0BD40F24024C2F20104A07801281B
:10A750000FD1607890B10024204601B0F0BD6FF0B9
:10A760000304204601B0F0BD6FF00404204601B0A0
:10A77000F0BD4FF0FF34204601B0F0BD43F6300786
:10A78000C4F2020738680C2540F00050386047F6E4
:10A7900018463868C4F2040500F000500090C4F276
:10A7A00001060098786940F000407861786900F00F
:10A7B000004000900098386840F080403860386869
:10A7C00000F080400090009857F8200C40F00050B6
:10A7D00047F8200C0220F8F74FF857F8200C20F02B
:10A7E000005047F8200C0220F8F746F8E86A20F4F9
:10A7F0008030E862286820F040102860286820F047
:10A8000010002860E86A40F40000E862306840F018
:10A8100004003060306880070BD46FF0640700BF1D
:10A82000013700F097800120F8F726F8306880079C
:10A83000F6D50A2046F8180C40F6137156F80C0CA1
:10A84000084346F80C0C56F8180C40F0010046F886
:10A85000180C0220F8F710F8686800280BDB6FF07E
:10A86000640600BF01367AD00120F8F705F8686861
:10A87000B0F1FF3FF6DC686840F00100686068688E
:10A88000C00709D06FF0640601366DD00120F7F7DC
:10A89000F3FF6868C007F7D10120F7F7EDFF68689C
:10A8A00000280ADB6FF06406013662D00120F7F75A
:10A8B000E3FF6868B0F1FF3FF6DC40F60400C4F245
:10A8C0000400016841F002010160286840F4705002
:10A8D00028602868400002D5286880000AD52868CA
:10A8E00020F000502860286840F0804028606420F4
:10A8F000F7F7C2FF00F05CF8E86A4FF4005120F46B
:10A900000010E86255F80C0C40F0400045F80C0CC3
:10A9100055F80C0C40F0800045F80C0CD5F8F40705
:10A9200020F00300C5F8F40743F61000C8F20C004D
:10A93000E86055F8040C40F0810045F8040C012053
:10A9400060704EF20810CEF2000001600024204634
:10A9500001B0F0BD6FF00204204601B0F0BD6FF011
:10A960000204204601B0F0BD6FF00204204601B0A1
:10A97000F0BD6FF00204204601B0F0BD0000000001
:10A9800040F24021C2F201014A78012A0DD10A7831
:10A990005AB100220A70D1E90623436002600878A8
:10A9A000002818BF4FF0FF3070474FF0FF3070475E
:10A9B000B0B540F24020C2F201000025C0E90655C2
:10A9C000057044F67820C2F201004FF4C071F5F72B
:10A9D000CFFC40F60004C4F2040465615B212561EC
:10A9E000D4F8200300284FF00060B8BF4FF090402B
:10A9F000C4F82003D4F8200100284FF00060B8BF4D
:10AA00004FF09040C4F82001DB20C4F82801C4F8BE
:10AA10002813D4F84023002A4FF00062B8BF4FF04B
:10AA20009042C4F84023D4F84021002A4FF000623D
:10AA3000B8BF4FF09042C4F84021C4F84801C4F8B0
:10AA40004813D4F86023002A4FF00062B8BF4FF0DB
:10AA50009042C4F86023D4F86021002A4FF00062CD
:10AA6000B8BF4FF09042C4F86021C4F86801C4F840
:10AA70006813D4F88023002A4FF00062B8BF4FF06B
:10AA80009042C4F88023D4F88021002A4FF000625D
:10AA9000B8BF4FF09042C4F88021C4F88801C4F8D0
:10AAA0008813D4F8A023002A4FF00062B8BF4FF0FB
:10AAB0009042C4F8A023D4F8A021002A4FF00062ED
:10AAC000B8BF4FF09042C4F8A021C4F8A801C4F860
:10AAD000A813D4F8C023002A4FF00062B8BF4FF08B
:10AAE0009042C4F8C023D4F8C021002A4FF000627D
:10AAF000B8BF4FF09042C4F8C021C4F8C801C4F8F0
:10AB0000C813D4F8E023002A4FF00062B8BF4FF01A
:10AB10009042C4F8E0234FF00062D4F8E031002BFB
:10AB2000B8BF4FF09042C4F8E021C4F8E80110200B
:10AB3000C4F8E813FEF78CFC20684FF4907120F401
:10AB4000FE6020604FF00110E0610B206061032087
:10AB500020612420C4F20400016040F22011C0F200
:10AB6000800101F180024160C0F8E02001F58072AF
:10AB700001F5C071C0F8E420C0F8E81040F22031BF
:10AB8000C0F2380101F13802C0F8EC10C0F8F02032
:10AB900001F17002A831C0F8F420C0F8F810B0BD7F
:10ABA00010B5044610B9002002F07AFD40F21C10E6
:10ABB000C2F201000068816939B1007FA04204D16E
:10ABC0000020BDE8104003F0CBBF10BD0000000026
:10ABD00070B540F66C26C2F2010632680D46002AB6
:10ABE00004460BD084B1002D18BFB2F57A7F0ED188
:10ABF00020462946BDE8704001F0D4B800F0E0FBE3
:10AC000002463060002CEED14FF0FF3070BD02FBE9
:10AC100005F044F6D351C1F26201A0FB01018D0998
:10AC200020462946BDE8704001F0BCB80000000095
:10AC300080B584B0002302280393CDE9013300934B
:10AC400007D001280AD0F0B901B30023184604B098
:10AC500080BD59B30023184604B080BD00294FF0D1
:10AC6000000310D1072A0ED845F6FC40C2F20100BD
:10AC700000EB02100290102003906A46012001218F
:10AC800001F0CCF80346184604B080BD45F67C5070
:10AC9000C2F201000290102003906A4601200121B7
:10ACA00001F0BCF80346184604B080BD45F67C5060
:10ACB000C2F2010010300290102003906A46012079
:10ACC000012101F0ABF80346184604B080BD000036
:10ACD00008B101F091B84FF0FF307047000000005C
:10ACE00008B101F0ADB84FF0FF3070470000000030
:10ACF00000290ED040F21C11C2F2010109688A69D4
:10AD0000002A08BF7047097F814202D1002003F06A
:10AD10005DBF70470000000070B58AB00E46054662
:10AD200001A82421F5F724FB052D10D0012D35D0E5
:10AD3000B5BBAEBB4DF2B5404FF6B042C0F6000019
:10AD4000C0F60002002101F0F1F80AB070BD3EBB70
:10AD500040F22000C0F6010045F6787250F8260057
:10AD600006EB06110190C2F2010202EB8100039092
:10AD70004420049046F6C010C2F2010005904FF442
:10AD800080600690202007904EF61140C0F600002B
:10AD900001AA314601F0CAF80AB070BD032E02D9EB
:10ADA00000200AB070BD4FF64C70C0F6000045F6AA
:10ADB000686250F8260006EB06110190C2F201020B
:10ADC00002EB810144200391002E04900AD0701EF2
:10ADD000032806F0030C07D200200022BCF1000F6C
:10ADE0001ED130E000202FE04FF69020C0F600008A
:10ADF000A6EB0C0300F110050020002255F8101CF2
:10AE0000043255F8084C0844204429680844A968CD
:10AE10000844934205F12005F0D1BCF1000F12D097
:10AE20004FF69023C0F6000353F83210BCF1010F27
:10AE3000084408D003EBC2029168BCF1020F084439
:10AE400001D011690844C00846F2C031C2F20101C4
:10AE500001EBC00005904FF69020C0F6000050F8BE
:10AE6000361000EBC600406801AA0691B1080790B1
:10AE70004DF28950C0F6000001F058F80AB070BDDC
:10AE8000002801D001F014B8002070470000000035
:10AE9000B0B540F67025C2F2010529680446A9B193
:10AEA000002C18BFB1F57A7F19D14FF6FF70002141
:10AEB000224601F029F8B0F1FF3FC8BFB0BD6FF0E6
:10AEC0000101401A18BF0120C007B0BD00F078FA98
:10AED00001462860002C18BFB1F57A7FE5D0A1FBB0
:10AEE00004014FF47A720023F5F7F8F90446DCE721
:10AEF00008B101F02DB84FF0FF307047000000009E
:10AF0000024600284FF0000018BF704780B584B09B
:10AF100046F6C0510190C2F20101009001EB4210CF
:10AF20000290202003904EF645406B46C0F600008C
:10AF3000012101F01FF804B0BDE880407047000017
:10AF400070B540F67426C2F2010632680D46002A3A
:10AF5000044612D0BCB1B2F57A7F08D002FB05F0EE
:10AF600044F6D351C1F26201A0FB01018D092046D4
:10AF70002946BDE8704001F015B800F021FA0246FC
:10AF80003060002CE7D14FF0FF3070BD00000000B2
:10AF900008B101F019B84FF0FF3070470000000011
:10AFA00080B50320F9F774FE46F6E050C2F20100C6
:10AFB000002140F240220170C2F201020020917093
:10AFC00080BD0000000000002DE9F04700F00F09EF
:10AFD0004FEA490242EAD01044F6782C40F6080EB7
:10AFE00000EB4008C2F2010CC4F2040E0CEBC802E4
:10AFF0000EF1F804B2F80EA04FEA4913E35803F437
:10B000004023B3F5802F07D1134613F8145F012DA9
:10B0100002D01B780AFB03FA15461FFA8AF655F888
:10B02000043F4FEAC907B34203D8D5F800A01FFA7E
:10B030008AF60EEB8703D3F81011B6EB810F66D8B2
:10B04000117D107D46EAC14141EA4070C3F8080114
:10B0500054F8270000F44020B0F5802F14D140F2BE
:10B060004020C2F20100407840B1DEF80000C00587
:10B0700054F8273004D543F0805303E054F82730C8
:10B0800043F0005344F8273054F82700002140F0E3
:10B09000044044F827005CF838309768A2F80CA008
:10B0A0002868801B03362860B1EB960F91752ED06F
:10B0B000B6084FEA09300EF5FF61FD1816F00304DB
:10B0C000A6F1010711D02A4652F8043B012C435047
:10B0D0003B460CD06A68022C0A501AD105F10802CE
:10B0E000B31EBFB2032F12D304E02A463346BFB2C9
:10B0F000032F0CD31768043B0F501E0457680F50E2
:10B1000097680F50D76802F110020F50F2D1BDE8D6
:10B11000F087AB6805F10C020B50F31EBFB2032F92
:10B12000F5D3E7E700000000F7F79EF9002003F0F1
:10B130004FFE002002F0BCF8002002F0A7F8002823
:10B14000FAD04FF6581442F28940C0F60004C0F617
:10B1500000000021224600F0E9FE40F22015C2F274
:10B160000105286042F27950C0F600000021224615
:10B1700000F0DCFE6860F8F743F94FF0FF3000F0B4
:10B18000E3F800BFFEE7000096B04EF66074CEF222
:10B190000004F7F7BDFD0120ADF814004FF000509A
:10B1A000069012208DF81C0003208DF81F0000254A
:10B1B0004FF48030ADF81D50089005A8F7F774FDE6
:10B1C0000420F7F7B5FD4FF6B451CFF6FF71605884
:10B1D000800311D4BFF34F8FBFF36F8F44F8105C1F
:10B1E000BFF34F8FBFF36F8F605840F40030605053
:10B1F000BFF34F8FBFF36F8F6058C00364D44FF617
:10B200002460CFF6FF70002121504FF62060BFF37D
:10B210004F8FCFF6FF7020580123C0F34E31C0F39B
:10B22000C906C20803EBD00000F00303701E4FEA0A
:10B23000827E82070492B21E039292070292F21E4D
:10B2400043F6E07A019200BF002B0AEA411532462C
:10B2500010D04EEA0502012B226002460AD0049A61
:10B26000022B42EA05022260039A03D0029A2A4383
:10B270002260019A032E14D3571E02F1010B45EAF6
:10B28000827C45EA87788CF0004945EA8B75D24389
:10B290000432C4F800C0C4F80080C4F800902560EF
:10B2A000F6D10029A1F10101CED14FF6B450BFF380
:10B2B0004F8FCFF6FF700146205840F48030605029
:10B2C000BFF34F8FBFF36F8FF7F7B2FC01200590EC
:10B2D0004FF4803006900024022508944FF480003B
:10B2E0000B950C9019200D904FF4D870CDE90E05F8
:10B2F0000920109005A8F7F7CFFEF7F77DFD0F2086
:10B30000CDE911054FF4A050139414904FF48050E0
:10B31000159011A80721F7F7ABFDFBF719FCF5F71E
:10B3200063F800F061F84BF229100021C0F600002C
:10B33000002200F0FBFD00F019F8012802D100F016
:10B3400069F800BFFEE70000EFF3058129B9EFF3CC
:10B35000108111B9EFF3118111B16FF00500704741
:10B36000DFF804C000DF7047EDBF0008EFF3058091
:10B3700048B9EFF3108030B9EFF3118018B9EFF34B
:10B380001480C00702D10C48007A7047DFF804C06F
:10B3900000DF704701C00008EFF3058028B9EFF324
:10B3A000108010B9EFF3118010B10348C0687047E6
:10B3B000DFF808C000DF70471C00012009C000084A
:10B3C000EFF3058028B9EFF3108010B9EFF3118087
:10B3D00010B1034840687047DFF808C000DF7047CD
:10B3E000A0F8000815C0000880B500F0AEF8EFF333
:10B3F000058028B9EFF3108010B9EFF3118010B178
:10B400006FF0050080BDDFF808C000DF80BD00BF21
:10B4100021C00008EFF3058028B9EFF3108010B9C0
:10B42000EFF3118010B16FF005007047DFF804C032
:10B4300000DF70476DC10008F8B50546EFF30580E1
:10B4400014460E4628B9EFF3108010B9EFF31180BF
:10B45000F0B16FF003000DB303BBFEB12978FA29F8
:10B460001CD12846F9F715FB78B16A6A074600F146
:10B470000C013046F4F763FF0CB1F87820703846C1
:10B48000FD6000F015FA002008E06FF0020005E012
:10B490002846DFF80CC03146224600DF01B0F0BD7F
:10B4A000F1C10008EFF305832BB9EFF3108313B953
:10B4B000EFF311830BB100207047DFF808C000DF05
:10B4C000704700BFD1C200082DE9F0410646EFF3F6
:10B4D000058090460D4628B9EFF3108010B9EFF3C0
:10B4E000118018B36FF00307EEB1E3B9DDB1307826
:10B4F000FA2818D106F10C0000F0ACF888B1726A95
:10B5000004460C302946F4F71AFF0027F920C4E955
:10B51000015684F80380A7702070204600F0C8F917
:10B5200001E06FF002073846BDE8F0813046DFF8F1
:10B530000CC02946424600DFBDE8F08105C4000882
:10B54000FEE7000000000000FEE77047B0B50023F2
:10B55000D0B3C9B3032A37D886460F315EF8084FF7
:10B5600021F0070CDEF804102346A4EB0E0421F0B2
:10B570000305641B644505D21C689E46002CF1D16E
:10B58000002321E0D0E9004363444360204450F8A5
:10B59000044C9C423EBF08384360DEF8041069B199
:10B5A000DEF8000021F0030141F80E004CEA020031
:10B5B00071444860CEF800108E4603E04CEA020069
:10B5C000CEF804000EF108031846B0BD80B5002285
:10B5D00018B311B300F10803A1F1080C4FF0000EED
:10B5E000634506D01A461B689646002BF8D1002208
:10B5F00013E051F8043C4268BEF1000F23F003034E
:10B60000A2EB030242604FF0010219BFDCF8000018
:10B61000CEF80000002041F8040C104680BD08B1AF
:10B62000420702D000221046704700221829FAD3A0
:10B6300011F00703F7D11022C0E900120144A1F173
:10B6400008038360002341F8083C81684A600122B6
:10B65000C360E8E710B5002817D0014600F11402D6
:10B6600052E8000F10B9BFF32F8F04E0036842E8DF
:10B67000003404B1F4E740B1043151E8002F531C09
:10B6800041E8003404B1F8E710BD002010BD0028E7
:10B690001FD0C2688A421CD802698A4219D9B0B543
:10B6A00000F1140213680B60BFF35F8F52E8003F94
:10B6B0000C689C42F6D142E8001505B1F2E704306F
:10B6C00050E8001F4A1E40E8002303B1F8E70020BD
:10B6D000B0BD6FF00300704784460020BCF1000F3E
:10B6E00018BF00291AD0CAB1C3B180B54FF0000EFF
:10B6F00002FB0130CCE9001ECCE90223CCE90403B3
:10B70000C1F10100BDE8804003E0991801301960E3
:10B710000B460028F9D10020186001207047F8B5C9
:10B720000446807868B3E56821462846F9F704FAAC
:10B73000002005F10C06214620703046FFF7A7FFD8
:10B74000A868E8B13046FFF785FFC8B1044628462F
:10B7500000F0E8F9002100220646002700F086FAF2
:10B76000304600F025FA81686A6A064604F10C004A
:10B77000F4F7E5FDF920A7702070F068E07025E08F
:10B78000F8BDA568A86808B3407883281ED128466C
:10B7900000F0C8F9002100220646002700F066FAF2
:10B7A000304600F005FA064680686A6A04F10C012A
:10B7B000F4F7C5FDF06808B1E1780170277005F174
:10B7C0000C002146BDE8F840FFF761BF284621463E
:10B7D000BDE8F840F9F77FB92DE9F04104460027AC
:10B7E0004FF0010819E025466469E878000714D590
:10B7F0002F76A86888B1284600F094F9002100222D
:10B80000064600F033FAC5E90367F06A002868616C
:10B8100000D00561F56285F81880002CE3D1BDE801
:10B82000F081000070B5EF4C04F1560504F15A06A2
:10B8300028E0D6E85F1F4A1C904200D80022C6E8E4
:10B84000532F03B1F5E788B2E16D51F820000028CD
:10B8500028D00178F139082914D8DFE801F0051360
:10B860000813130B0E131100216E88470AE0616E56
:10B87000884707E0A16E884704E0E16E884701E051
:10B88000216F8847B4F85400D5E85F1F11B9BFF3A2
:10B890002F8F04E04A1EC5E8532F03B1F4E70904D3
:10B8A0007FF4C7AF0020BDE8704000F0E5B800BFEE
:10B8B00070B50146EC48B0F8542000F15603D3E8C7
:10B8C0005F4FA24202D8BFF32F8F04E0651CC3E88C
:10B8D000565F06B1F3E7A3B293421AD200F15803C0
:10B8E000D3E85F4F651CAA4200D80025C3E8565F25
:10B8F00006B1F5E7A2B2C36D43F82210417A0029E0
:10B9000019BF0121817205484FF0805108BF0160C5
:10B9100070BD0220BDE87040FFF712BE04ED00E0EC
:10B9200010B58168B1B100F10C01D1E85F2F12B9F7
:10B93000BFF32F8F04E0531EC1E8543F04B1F4E776
:10B94000110407D000F0EEF800210022BDE81040FD
:10B9500000F08CB910BD000001214170EB4990F955
:10B9600020C001F11C02114692684AB192F92030C0
:10B970006345F8DCC0E90221886002F10C0103E0B4
:10B980000022C0E9022108310860704710B54A1C46
:10B9900011D0EC4A002402F12C0C624603E0891A13
:10B9A00003F110021C461368E3B1DA699142F6D242
:10B9B0004FF0010E18E0E349002301F13004214665
:10B9C0001A460B6803F11001002BF9D14FF0FF313B
:10B9D000002AC1614FF00001C0E9041216D002F143
:10B9E000100413E04FF0000E002CC0E90434C161D4
:10B9F00018BF04F1100CCCF80000BEF1000F08BF16
:10BA000010BDDA6903F11404511AD961206010BD28
:10BA1000C2690169531C0AD021B1CB691A44CA61B9
:10BA200042694A6142693AB9DD48C162704709B169
:10BA300042694A6142691AB111610021416170474E
:10BA4000D7480163704700BFB0B5D54DEC6A1CB153
:10BA5000E0690138E06100D0B0BD204600F081F817
:10BA6000204600F09DF8246924B1E0690028F4D054
:10BA700000206061EC62B0BDB0B50546C848002D3D
:10BA80004469017A0CD0022905D194F9200095F976
:10BA90002010814212DC2846BDE8B04000F080B89A
:10BAA000022913D1456A8DB194F9200095F920102F
:10BAB0008142D8BFB0BD284600F053F82046FFF7BA
:10BAC0004BFF2846BDE8B04000F0ACB8B0BD00BFA9
:10BAD00010B5044600202080A07881070DD5C0064F
:10BAE00005D4AF48216B406FFFF770FD05E0AC480F
:10BAF000216BD0F88400FFF7CAFDA078C00708BF0B
:10BB000010BDA749D1F8880020B12146BDE81040FA
:10BB1000FFF7BDBDD1F880002146BDE81040FFF71A
:10BB200055BD00BF014680688268002A8A6000D047
:10BB3000D1600021C160704791F920C00246806841
:10BB400040B190F920306345F8DAC1E902020C30C7
:10BB5000916004E00020C1E9020202F108000160E6
:10BB60007047C16831B182688A60826802B1D16071
:10BB70000021C160704710B504464078332818BFD3
:10BB800010BD94F82320616A2046FBF74CF830B1D1
:10BB9000014620460022BDE8104000F067B810BD05
:10BBA0000146012048707E481C30FFF7C5BF00BF2A
:10BBB00090F82210C9064FF0200158BF6021806B19
:10BBC000084470477648416939B1086B8A6B8242F4
:10BBD00004D90068044A904200D170470120FFF761
:10BBE000AFBC00BF1C000120A52E5AE270B5544C1A
:10BBF0000A480021A26D666E00F0B8FD684D002E67
:10BC0000A86209D0E26D0648002100F0AFFDA864EB
:10BC1000002818BF012070BD012070BD49B5000883
:10BC200011BD000802214170F9498861FFF7CABFC0
:10BC300010B5F74C02460020237A022B12D1636A1A
:10BC400083B160694270FFF7A1FE606A81680029D4
:10BC5000616202D004F11C02CA600021C160FFF7DA
:10BC6000E1FF012010BD00BF1C000120B0B504465B
:10BC700090F822001546C0064FF0200058BF602003
:10BC8000A26B81502046FFF7C3FE20461DB1BDE8E0
:10BC9000B040FFF7F1BEBDE8B040FFF781BF000044
:10BCA000B0B5F8F757FFDA4DE968286D0131002883
:10BCB000E96000D08047FFF7C7FE0020FFF7DCFEF9
:10BCC000296C11B3AA69A86B90421CBFC5E90E216B
:10BCD000B0BDE96B11B10139E96316D1297A0229A6
:10BCE00013D16C6A8CB190F8200094F82010814236
:10BCF0000BD12046FFF735FFA86BFFF751FF204619
:10BD0000FFF790FF286CC5E90E40B0BD1C00012074
:10BD100082B0C2480821D0E91820FFF7C3FBBC4D10
:10BD200009496C46C5E91301214600224FF0FF3353
:10BD3000FFF782FB10B9DDE900108847E86CF3E7F4
:10BD4000A0F800081C0001204DBD000870B5B04DE2
:10BD50006C6C1CB320690126013820611CE020694D
:10BD6000E0B9E06808B1A1688160686404F1180175
:10BD700000220023E86CFFF7A7FB18B1032021463F
:10BD8000FFF7DEFBE078012804D161692046FAF76D
:10BD90007FFF00E066706C6C002CE0D170BD00BFCE
:10BDA0001C000120EFF305822AB9EFF3108212B9CB
:10BDB000EFF31182CAB16FF00302A0B199B9017813
:10BDC000F62910D10C30D0E85F1F11B9BFF32F8FC7
:10BDD00004E04A1EC0E8532F03B1F4E70022080430
:10BDE00008BF6FF0020210467047DFF808C000DF9E
:10BDF000704700BFC1C40008EFF3058129B9EFF314
:10BE0000108111B9EFF3118111B16FF00500704786
:10BE1000DFF804C000DF704719C50008EFF30583A1
:10BE20002BB9EFF3108313B9EFF311830BB100209B
:10BE30007047DFF808C000DF704700BF75C5000815
:10BE4000EFF3058129B9EFF3108111B9EFF31181F7
:10BE500009B3B0B5E0B10178F62919D1C18900F173
:10BE60000C02D2E85F3F994202D8BFF32F8F04E063
:10BE70005C1CC2E8554F05B1F3E7C28999B2914203
:10BE800024BF6FF00200B0BDFFF712FD0020B0BD6F
:10BE90006FF00300B0BDDFF808C000DF704700BFDF
:10BEA000F5C50008DFF804C000DFFEE749C600085A
:10BEB000EFF305822AB9EFF3108212B9EFF3118282
:10BEC000E2B1B0B56FF00304B0B1002914DB027821
:10BED000F12A11D14278042A02D16FF002040BE05A
:10BEE00000F1280252E8003F43EA010442E800451D
:10BEF00005B1F7E7FFF7DCFC2046B0BDDFF804C072
:10BF000000DF7047B9C60008EFF305832BB9EFF3E4
:10BF1000108313B9EFF3118313B16FF0050070476D
:10BF2000DFF804C000DF704721C70008EFF3058386
:10BF30002BB9EFF3108313B9EFF311830BB100208A
:10BF40007047DFF808C000DF704700BF6DC700080A
:10BF5000EFF3058129B9EFF3108111B9EFF31181E6
:10BF600011B16FF005007047DFF804C000DF7047C3
:10BF700049C90008EFF3058CBCF1000F09D1EFF3BC
:10BF8000108CBCF1000F04D1EFF3118CBCF1000F49
:10BF900001D000207047DFF808C000DF704700BF05
:10BFA00009CA0008EFF305822AB9EFF3108212B92B
:10BFB000EFF3118212B16FF005007047DFF804C093
:10BFC00000DF704781CA0008EFF3058129B9EFF35C
:10BFD000108111B9EFF3118111B16FF005007047B5
:10BFE000DFF804C000DF7047CDCA000830B180B56B
:10BFF00001461320FFF71CFEBDE88040002070477B
:10C00000B248007A704700BFB048C068704700BFB0
:10C010001C00012074484068704700BFA0F8000869
:10C020002DE9F843F54F387A012800F09580002873
:10C0300040F0948007F108009C21F4F799F9DFF8AB
:10C04000F888B8F81000A7F85400D8E90202D8E937
:10C050000B41FA6538642046FFF7E1FA08B1C7F8EA
:10C060008040D8E90541DFF80091D8E9075620461D
:10C07000C847D7F880100028284618BF214679679E
:10C080003146C847D7F88010002818BF2946B9673D
:10C09000D8E909412046C847D7F88010002818BFC2
:10C0A0002146D8F83440F9673CB12168D4E902232D
:10C0B0002046FFF711FBC7F88440D8F838403CB160
:10C0C0002168D4E902232046FFF706FBC7F8884021
:10C0D000D8F83C403CB12168D4E902232046FFF760
:10C0E000FBFAC7F88C40D8F840403CB12168D4E94D
:10C0F00002232046FFF7F0FAC7F89040D8F84440F2
:10C100003CB12168D4E902232046FFF7E5FAC7F8DD
:10C110009440D8F848403CB12168D4E90223204635
:10C12000FFF7DAFAC7F89840D8F84C403CB12168DC
:10C13000D4E902232046FFF7CFFAC7F89C40D8F88D
:10C1400050403CB12168D4E902232046FFF7C4FAED
:10C15000C7F8A04001203872002001E04FF0FF3006
:10C1600001B0BDE8F08300BF1FB60008B0B5E94CD0
:10C17000207A01281CD1FFF739FDC8B11948FF21E9
:10C18000194D8175817D026881F0FF01C2F30222A1
:10C19000B1FA81F1C1F120018A4228BF511CFE226F
:10C1A00002FA01F1C17468681049F8F7EDFC10B1AA
:10C1B0004FF0FF30B0BDF8F7E3FC2061F8F7CEFC9C
:10C1C00004F11C00FFF7AEFCFFF72CFD2878C00738
:10C1D0000CBF0320022080F314880220207200206C
:10C1E000B0BD00BF0CED00E0A0F80008C1020008DF
:10C1F0002DE9F84300284CD00F466FF003050029C5
:10C2000049D004460078FA2845D120469946904600
:10C21000F8F73FFC002842D0064620463146F8F7A2
:10C220008BFC626A06F10C013846F4F788F8B8F125
:10C23000000F1CBFF07888F8000004F10C070025FF
:10C24000314638463570FFF722FAA06818B33846F1
:10C25000FFF700FA0025F0B106462046FFF762FC22
:10C26000002101220746FFF701FD3846FFF7A0FC39
:10C270008168626A074606F10C00F4F760F8F9205D
:10C28000B57031463070F868F0702046F8F723FC3E
:10C2900001E06FF00305284601B0BDE8F083B9F175
:10C2A000000F10D083204946FFF7C2FC40B1CF48B1
:10C2B00041692046FFF740FCEFF30980C0E90278AE
:10C2C0006FF00105E7E76FF00205E4E71C000120CD
:10C2D0002DE9F84F002770B10D4661B105F10F014E
:10C2E0000446B0FA80F021F00306B6FA86F108445D
:10C2F000202804D20027384601B0BDE8F08F06FBA5
:10C3000004F872B1D2F808A01368D2E90490BAF127
:10C31000000F11D05FEA8A71ECD1D1683429E9D3DA
:10C320000DE000234FF00009E2490093D1F8A0008E
:10C3300078B1FFF78FF912E0D1680029DAD1B9F1AD
:10C34000000F2FD000274045D5D319F003002BD084
:10C35000D1E7D1F8800034210122FFF7F7F88246B7
:10C360004FF0010BB9F1000F10D1BAF1000F0DD051
:10C37000D04F41460022F86FFFF7E8F8814638B108
:10C3800048464146F3F7F4FF57461AE057461AE08D
:10C39000BBF1000F14D0D7F8A00060B15146FFF7F1
:10C3A00076F90DE00028A5D1BAF1000FBCD00093BA
:10C3B0004FF0000BD6E7D7F880005146FFF706F99B
:10C3C00000270BF1020B002F3FF495AF00203246FF
:10C3D0004B46C7E90950C7E90B000099C7E90110AE
:10C3E000FA2087F802B02146387007F10C00FFF7F9
:10C3F00073F9DD48024901677DE700BF1C00012099
:10C400001FB700082DE9F84338B30E466FF0030755
:10C41000002951D005460078FA284DD1A8689946E0
:10C420009046E8B1407883281AD12846FFF77AFB76
:10C430000021012204460027FFF718FC2046FFF7E1
:10C44000B7FB044680686A6A3146F3F778FFE06814
:10C4500090B380F8008000272EE06FF003072BE0F8
:10C4600005F10C00FFF7F6F880B16A6A04460C305B
:10C470003146F3F764FF0027F92084F80380214652
:10C48000A77020702846F8F726FB15E0B9F1000FD9
:10C4900010D093204946FFF7CBFB40B1B248416929
:10C4A0002846FFF749FBEFF30980C0E902686FF007
:10C4B000010701E06FF00207384601B0BDE8F083E4
:10C4C000B0B508B304460078F6281DD104F10C007D
:10C4D000D0E85F2F12B9BFF32F8F04E0531EC0E8DE
:10C4E000553F05B1F4E710041CBF0020B0BD71B189
:10C4F0006320FFF79DFB20B19B4841692046FFF771
:10C500001BFB6FF00100B0BD6FF00300B0BD6FF01A
:10C510000200B0BD1C00012010B508B3044600782D
:10C52000F6281DD1A06868B12046FFF7FBFA6FF02E
:10C5300002010022FFF79AFBA0680028F4D1002036
:10C54000FFF79AFA00202070A178C90708BF10BD34
:10C55000F849D1F8980030B12146FFF798F807E084
:10C560006FF0030010BDD1F880002146FFF72EF8D0
:10C57000002010BD70B5054601384FF6FE730C461D
:10C580000021984298BFAC4201D9084670BD4AB11B
:10C590009068166870B181070FD1D2680021102A07
:10C5A000F3D314E00026E349D1F8980038B1FFF73F
:10C5B00051F80AE0D0680028F5D00021E5E7D1F86D
:10C5C000800010210122FEF7C1FF60B1012100228D
:10C5D000C5818481C0E901628170F621044A01703D
:10C5E000D4498A6600E000200146CEE71C00012005
:10C5F00021B90008B0B560B10178F62909D1816888
:10C6000059B1FFF78FFA002101220024FFF72EFB1A
:10C6100001E06FF003042046B0BDC18900F10C02B7
:10C62000D2E85F3F994202D8BFF32F8F04E05C1C31
:10C63000C2E8554F05B1F3E7C28999B26FF0020025
:10C64000914238BF0020B0BD70B5EE4D287A022867
:10C650002ED1686A002808BF70BD6C69E06AFFF7D8
:10C66000BBF8A06918B100210022FFF7FFFAEFF331
:10C670000980A063686A81680029696202D005F1B7
:10C680001C02CA600026C660FFF7CCFA6E61E07833
:10C69000C00704D12046BDE87040FFF719BA042056
:10C6A000E6606070686B0028A06000D0C4606C63B6
:10C6B00070BD00BF1C000120B0B56FF0030460B373
:10C6C00000292ADB05460078F12826D1687804285D
:10C6D00002D16FF0020420E005F1280050E8002F9D
:10C6E00042EA010440E8004303B1F7E768783328E1
:10C6F00013D195F82320696A2846FAF794FA60B1B5
:10C70000014695F8230001220C4680075CBF686A49
:10C7100021EA00042846FFF7A9FA2046B0BD000030
:10C72000F8B50546E8484769A7B1002D15DB0E4668
:10C730001446384629463246FAF775FA90B97CB164
:10C740003320214687F823607D62FFF771FA6FF08E
:10C75000010007E04FF0FF3004E06FF0030001E05C
:10C760006FF0020001B0F0BD1C0001202DE9FE4F6A
:10C7700010B380466AB102F1100A9AE88006D2E945
:10C7800000439668B6B1B00716D1D068442813D3D9
:10C7900017E04FF0180A002300274FF0000900248B
:10C7A000C94A0293D2F88800CDE90014C8B1FEF757
:10C7B00051FF1CE0D06820B10025284603B0BDE839
:10C7C000F08F37B10025B9F1000FF6D017F0070050
:10C7D000F3D1BAF1000F38D0AAF101003728EBD815
:10C7E00035E0D2F8800044210122FEF7AFFE064674
:10C7F0004FF0010B67B95EB1B9F1000F0AD0B24832
:10C8000049460022406FFEF7A1FE98B107460FE0AF
:10C8100035463EE0AC484849D0F88400D1F8549001
:10C820000028ECD0FEF716FF20B107460BF1100BE5
:10C8300035462CE0BBF1000F1CD0A349D1F888008D
:10C84000E0B13146FEF723FF1DE04FF0180AB9F1C1
:10C85000000F06D00025B9F1480FAED319F007003C
:10C86000ABD1002E3FF49CAFCDE9001402934FF002
:10C87000000BBFE74FF0000B002707E0D1F8800066
:10C880003146FEF7A3FE00274FF0010B00254BF0C9
:10C89000020B002D3FF491AF0198182168600298B7
:10C8A000E87040F2F11085F802B0288005F1080028
:10C8B000F3F75EFD07EB0900C5E90C79FD2140386F
:10C8C000C5E90E08002085F82F00C5F82B00C5F833
:10C8D0002700C5F8230085F82210184985F821A003
:10C8E00085F820A0009E39601349097849070AD5C8
:10C8F00011213A1D4FF0CC33A1EB990101E008C2A0
:10C9000001310029FBD1A96B002202E041F822008D
:10C9100001320D2AFAD10A4A4FF080700E62C1E945
:10C920000D28C8636848074901662846FFF7A4F840
:10C9300043E700BF1C000120A0F80008A52E5AE222
:10C94000A5BE000877BB000870B5C8B104460078E2
:10C95000F12815D1607800F00F00012813D00328CA
:10C9600015D002281CBF6FF0020070BD56496FF051
:10C9700002000A7A022A18BF70BD496A69B970BDFF
:10C980006FF0030070BD2046FFF7EBF805E020468E
:10C99000FFF7E7F82046FFF73BF8E06AFEF71CFFD9
:10C9A000A06918B100210022FFF760F96078022821
:10C9B00011D1454DEFF30980A063686A81680029B1
:10C9C000696202D005F11C02CA600026C660FFF74A
:10C9D00029F96E6102E00020FFF74EF8E078C00709
:10C9E00003D12046FFF774F80AE00020E06004203D
:10C9F00060703548416B0029A16000D0CC60446371
:10CA0000002070BD1C000120F8B50E46002198B32F
:10CA1000012E31D8144605464BB198681F6870B195
:10CA200081070FD1DA680021202A15D224E00027DF
:10CA30002549D1F88C0038B1FEF70CFE0AE0D86821
:10CA40000028F5D0002117E0D1F880002021012234
:10CA5000FEF77CFD70B10121C67081704FF4F97151
:10CA600001800021C0E90171C0E90311C0E9051589
:10CA7000C46100E000200146084601B0F0BD00BFDF
:10CA8000B0B578B105460C466FF00300C1B1297806
:10CA9000F22918BFB0BD6878022806D12846FAF7F7
:10CAA0001DF908E06FF00300B0BD0748006D40B10C
:10CAB00002206C61687028462146FAF7E9F80020E8
:10CAC000B0BD6FF00200B0BD1C00012078B101784C
:10CAD000F2290CD1417802291CBF6FF00200704787
:10CAE00080B501214170FAF7F9F8002080BD6FF0A0
:10CAF000030070470000000070B54EF60C55CEF2F2
:10CB00000005044640F6C5402946F8F7E1F8072637
:10CB1000C0F2FA5640F6DD403146F8F7D9F840F653
:10CB2000C5402946F8F7D4F840F6DD403146F8F71D
:10CB3000CFF8E00740F218014FF04000C4F20201C4
:10CB400008BF4FF48000086070BD000007490978F5
:10CB5000884209D2064951F8200028B1C16819B1AC
:10CB6000006808B10020704721207047B0FF00081E
:10CB7000B4FF00082DE9F05F6849054600200978F8
:10CB80008D4232D2DFF8989159F8251000292CD027
:10CB9000644951F82510CC68002C26D094F8A010D8
:10CBA000C1F34112012A20D1DFF87CA15F4F11F0BF
:10CBB0001F0107D001291AD002293FD0032914D11F
:10CBC0000026A7E000260DE05AF826100978A942B1
:10CBD00006D159F82610D4F8AC008847002804D1B3
:10CBE000761CF6B239788E42EED3BDE8F09F00266F
:10CBF000BB461EE05AF8268098F80010A94216D1CC
:10CC00005FF0000707EBC70208EB42010A7952B157
:10CC1000B4F8A42049798A4205D159F82610D4F8ED
:10CC2000AC00884718B97F1CFFB2042FEAD3761CEA
:10CC3000F6B29BF800108E42DCD3D6E70026BB4646
:10CC400054E000BF5AF8268098F80010A9424BD152
:10CC50005FF0000707EBC70208EB42010A79EAB36D
:10CC60008A7922B1B4F8A420CB799A4230D00A7ADA
:10CC700022B1B4F8A4304A7A934229D08A7A22B1F8
:10CC8000B4F8A420CB7A9A4222D00A7B22B1B4F81D
:10CC9000A4204B7B9A421BD08A7B22B1B4F8A420FB
:10CCA000CB7B9A4214D00A7C22B1B4F8A4204B7CEE
:10CCB0009A420DD08A7C22B1B4F8A420CB7C9A424F
:10CCC00006D00A7D52B1B4F8A420497D8A4207D12A
:10CCD00059F82610D4F8AC00884700E000E018B9F5
:10CCE0007F1CFFB2042FB5D3761CF6B29BF8001060
:10CCF0008E42A7D379E700BF5AF826100978A942D7
:10CD000006D159F82610D4F8AC008847002894D1F1
:10CD1000761CF6B239788E42EED366E7B0FF000893
:10CD2000B0FA0008B4FF0008ACFF0008A8FF000834
:10CD30002DE9F05F68490546002009788D4232D21E
:10CD4000DFF8989159F8251000292CD0644951F842
:10CD50002510CC68002C26D094F8A010C1F3411205
:10CD6000012A20D1DFF87CA15F4F11F01F0107D00D
:10CD700001291AD002293FD0032914D10026A7E0A7
:10CD800000260DE05AF826100978A94206D159F874
:10CD90002610D4F8AC008847002804D1761CF6B2DF
:10CDA00039788E42EED3BDE8F09F0026BB461EE0E8
:10CDB0005AF8268098F80010A94216D15FF00007B3
:10CDC00007EBC70208EB42010A7952B1B4F8A4207C
:10CDD00049798A4205D159F82610D4F8AC00884721
:10CDE00018B97F1CFFB2042FEAD3761CF6B29BF869
:10CDF00000108E42DCD3D6E70026BB4654E000BFCD
:10CE00005AF8268098F80010A9424BD15FF000072D
:10CE100007EBC70208EB42010A79EAB38A7922B12B
:10CE2000B4F8A420CB799A4230D00A7A22B1B4F86F
:10CE3000A4304A7A934229D08A7A22B1B4F8A42045
:10CE4000CB7A9A4222D00A7B22B1B4F8A4204B7B41
:10CE50009A421BD08A7B22B1B4F8A420CB7B9A42A1
:10CE600014D00A7C22B1B4F8A4204B7C9A420DD095
:10CE70008A7C22B1B4F8A420CB7C9A4206D00A7DE9
:10CE800052B1B4F8A420497D8A4207D159F826103E
:10CE9000D4F8AC00884700E000E018B97F1CFFB26E
:10CEA000042FB5D3761CF6B29BF800108E42A7D3A0
:10CEB00079E700BF5AF826100978A94206D159F837
:10CEC0002610D4F8AC008847002894D1761CF6B21E
:10CED00039788E42EED366E7B0FF0008B4FA000856
:10CEE000B4FF0008ACFF0008A8FF00082DE9F84FC8
:10CEF000054667480078854235D2DFF8989159F8A1
:10CF0000250000282FD0644850F82500C468002C64
:10CF100029D094F8A000C0F34111012923D1DFF8F2
:10CF20007CA1DFF87C8110F01F0009D001281CD003
:10CF3000022843D0032816D100265746A034A2E089
:10CF400000265746A0340AE057F826000078A84289
:10CF500003D159F8261020468847761CF6B298F877
:10CF600000008642F0D3BDE8F88FCB4604F1A00064
:10CF70000026C14600901CE05AF8268098F8000070
:10CF8000A84214D15FF0000707EBC70108EB41008E
:10CF9000017941B1B4F8A4104079814203D15BF822
:10CFA0002610009888477F1CFFB2042FECD3761C14
:10CFB000F6B299F800008642DED3D4E70026C346D5
:10CFC00051E000BF5AF8268098F80000A84248D1E6
:10CFD0005FF0000707EBC70108EB41000179E1B3FF
:10CFE000817921B1B4F8A410C279914230D0017A8C
:10CFF00021B1B4F8A410427A914229D0817A21B1AA
:10D00000B4F8A410C27A914222D0017B21B1B4F8C5
:10D01000A410427B91421BD0817B21B1B4F8A410B3
:10D02000C27B914214D0017C21B1B4F8A410427C9F
:10D0300091420DD0817C21B1B4F8A410C27C914200
:10D0400006D0017D49B1B4F8A410407D814204D1DD
:10D0500059F8261004F1A00088477F1CFFB2042F66
:10D06000B8D3761CF6B29BF800008642AAD37AE7C2
:10D0700057F826000078A84203D159F82610204618
:10D080008847761CF6B298F800008642F0D36AE72B
:10D09000B0FF0008B8FA0008B4FF0008ACFF0008B1
:10D0A000A8FF00082DE9FE4F7349054600200978C6
:10D0B0008D423DD2DFF8C49159F82510002937D0B0
:10D0C0006F4951F82510CC68002C31D094F8A0108D
:10D0D000C1F34112012A2BD1DFF8A8A16A4F11F048
:10D0E0001F010CD0012925D0022951D003291FD1BD
:10D0F000002604F1AC0B04F1A808A034B7E0002628
:10D1000004F1AC0B04F1A808A0340EE05AF8261084
:10D110000978A94207D159F826305A464146204697
:10D120009847002804D1761CF6B239788E42EDD3A8
:10D13000BDE8FE8F0026BB4625E000BF5AF82680DA
:10D1400098F80010A9421CD104F1AC010291091F0A
:10D15000002701910839009107EBC70208EB420153
:10D160000A7952B1B4F8A42049798A4205D19DE8E0
:10D17000070059F82630984718B97F1CFFB2042FD2
:10D18000EAD3761CF6B29BF800108E42D6D3CFE7D6
:10D190000026BB4657E000BF5AF8268098F80010DA
:10D1A000A9424ED15FF0000707EBC70208EB42012E
:10D1B0000A79EAB38A7922B1B4F8A430CA799342E1
:10D1C00030D00A7A22B1B4F8A4204B7A9A4229D0FE
:10D1D0008A7A22B1B4F8A420CB7A9A4222D00A7B70
:10D1E00022B1B4F8A4204B7B9A421BD08A7B22B197
:10D1F000B4F8A420CB7B9A4214D00A7C22B1B4F8B4
:10D20000A4204B7C9A420DD08A7C22B1B4F8A42091
:10D21000CB7C9A4206D00A7D52B1B4F8A420497D55
:10D220008A420AD104F1AC0259F82630111F00E0FD
:10D2300003E004F1A000984718B97F1CFFB2042F47
:10D24000B2D3761CF6B29BF800108E42A4D36FE7DF
:10D250005AF826100978A94207D159F825305A46BC
:10D26000414620469847002891D1761CF6B239787D
:10D270008E42EDD35CE70000B0FF0008BCFA000866
:10D28000B4FF0008ACFF0008A8FF000870B5054611
:10D290000024FFF75BFC30B9044850F82500C06853
:10D2A000007900B10124204670BD0000B4FF0008E1
:10D2B00010B50446FFF74AFC002804D12046BDE81B
:10D2C000104000F089BA10BD70B504462D4E0D46D1
:10D2D000C80704D056F8241009B101208847A807D0
:10D2E00007D556F8241009B100208847204602F0DF
:10D2F0004DFA680721D5204602F048FA224850F836
:10D3000024000668F078B38800F00302B178204664
:10D3100000F0CCFA48B9F078B38800F00302B07896
:10D3200040F08001204600F0C1FA2046FDF738FCAD
:10D33000164850F8240000B1804728070BD514493F
:10D34000012051F82410C96881F89500114850F85F
:10D35000240000B18047E80604D50F4850F82400A7
:10D3600000B18047A80604D50C4850F8240000B14D
:10D370008047290A480704D02046BDE8704000F0E5
:10D380006DBD70BD08FB000800010120F8FA00081F
:10D39000B4FF0008F0FA000800FB0008FCFA0008DF
:10D3A00010B504460C480078844201D3002010BD1B
:10D3B0000A4850F82400C0680028F8D00849D0F87E
:10D3C000AC0051F8241088470028F0D12046BDE871
:10D3D0001040FFF7CFBB0000B0FF0008B4FF00080B
:10D3E000E0FA000810B504460C480078844201D3E6
:10D3F000002010BD0A4850F82400C0680028F8D06A
:10D400000849D0F8AC0051F8241088470028F0D122
:10D410002046BDE81040FFF78BBC0000B0FF0008BD
:10D42000B4FF0008E4FA000810B504460A48007882
:10D4300084420FD2094850F82400C068002809D05F
:10D440000749A03051F8241088472046BDE8104015
:10D45000FFF74CBD10BD0000B0FF0008B4FF00088E
:10D46000E8FA000810B504460F480078844201D35A
:10D47000002010BD0D4850F82400C0680028F8D0E6
:10D480000021C0F8A810C0F8AC10094900F1AC02A6
:10D4900051F82430111FA03098470028E9D12046C8
:10D4A000BDE81040FFF7FEBDB0FF0008B4FF000864
:10D4B000ECFA00082DE9F047C6B220480078864211
:10D4C00039D21F4800244FF0FF3750F82600D0F81B
:10D4D00000901C4850F82600C10708D0810701D4ED
:10D4E00001246427400702D444F0020464274FF06B
:10D4F0000008E00701D0012119E03846FDF7C8FC1B
:10D500000146000113D5D9F81C00804700F0010541
:10D510004545F2D0A846E00704D01DB101213046B0
:10D52000FFF7D2FEA007E8D5002DE6D10221304654
:10D53000FFF7CAFEE1E7BDE8F0870000B0FF000892
:10D54000B4FF0008C47001200B490978884201D358
:10D550002A207047094951F82000094900780978C4
:10D56000884207D2074951F8200018B1C06808B1B5
:10D570000020704721207047A8FF0008ACFF00087A
:10D58000B0FF0008B4FF00082DE9F041C4B2204606
:10D59000FFF7DAFF002815D10B4E0C4D471E384619
:10D5A000FDF776FC0101FAD43278C0F3033104FBB5
:10D5B0000211C9B2C0F3032055F821100029EED0A2
:10D5C0008847ECE7BDE8F081B8FF00080CFB0008D5
:10D5D00070B50D460446FFF7B7FF002808D105488F
:10D5E00050F82420002A03D02846BDE87040104798
:10D5F00070BD0000C0FA000870B50D460446FFF784
:10D60000A3FF002808D1054850F82420002A03D0A1
:10D610002846BDE87040104770BD0000C4FA0008FD
:10D620002DE9F0410546FFF78FFF002829D1174863
:10D6300050F8250000B1804715480124164E50F8D7
:10D6400025004788134800EB851816E0C0B205FB9B
:10D650000040124951F8201069B10121A14039421E
:10D6600009D058F8241031B9C1B20120FDF754FB9C
:10D6700048F8240038B1641CE4B230788442E5D321
:10D680000020BDE8F0811020FBE70000C8FA000888
:10D69000ACFF0008CC700120B8FF00080401012095
:10D6A00010B50446FFF750FF002807D1044850F892
:10D6B0002400002802D0BDE81040004710BD000043
:10D6C000CCFA00082DE9F05F0546FFF73DFF002882
:10D6D0001FD118480124194E50F82500DFF860804A
:10D6E000A246478814484FF0000B00EB851916E05E
:10D6F000C0B205FB004158F8210070B10AFA04F0ED
:10D7000038420AD059F8240038B1FDF7F1FB10B1C6
:10D710001020BDE8F09F49F824B0641CE4B23078D2
:10D720008442E5D3074850F8250000B18047002027
:10D73000EFE70000ACFF0008CC700120B8FF000844
:10D7400004010120D0FA000870B5174951F82010E3
:10D75000C9B1CC68BCB1D4F89C200025AAB1497DE0
:10D76000491E0A4202D1012184F89610D4E92623E9
:10D77000802100F05DF9002804D1F4E9261211445B
:10D78000C4E9001570BD212070BD94F8961049B110
:10D7900000231A46802100F04BF90028F4D184F8C8
:10D7A000965070BD222070BDB4FF0008094910B525
:10D7B00051F82010CC680021D4E9262300F038F974
:10D7C000002805D1F4E926010844206000206060AB
:10D7D00010BD0000B4FF00082DE9F0410546032408
:10D7E000154E08E056F825006421FDF7F1F928B13F
:10D7F0000A20FAF7E9FF641EE4B2F3D2BCB1DFF805
:10D800003C80022758F825000068406980470400E2
:10D8100005D00A20FAF7D8FF7F1EFFB2F2D256F8E1
:10D820002500FDF75DFA24B12220BDE8F081232018
:10D83000FBE70020F9E700002C710120B4FF00088D
:10D840002DE9F047894605460324164E09E000BF3E
:10D8500056F825006421FDF7BBF928B10A20FAF734
:10D86000B3FF641EE4B2F3D2C4B1DFF83C800227F8
:10D8700058F825000068416A48468847040005D0EA
:10D880000A20FAF7A1FF7F1EFFB2F1D256F8250059
:10D89000FDF726FA24B12220BDE8F0872320FBE71C
:10D8A0000020F9E72C710120B4FF00082DE9FF5F8B
:10D8B000894601F00F020546102101EAD9002C49E2
:10D8C0009B4610440B786B4302EB4302D4B2102802
:10D8D00002D309782144CCB2264F142202EB8000F7
:10D8E00057F82510C968085820B14946284600F065
:10D8F00011F9A0BBDFF88080022600BF58F8240091
:10D900006421FDF765F928B10A20FAF75DFF761E5C
:10D91000F6B2F3D24EB303264FEA070A5A465AF834
:10D92000250002990068C36A484698470746801D4B
:10D9300006280CD2DFE800F00B0B0B030303761E66
:10D9400016F0FF0603D00A20FAF73EFFE6E758F884
:10D950002400FDF7C5F917F1020F06D01FB12220F0
:10D9600004B0BDE8F09F0020FAE72320F8E70000AC
:10D97000B8FF0008B4FF00080C7101202DE9F05F2A
:10D980009346894601F00F020546102101EAD900AD
:10D99000244910440B786B4302EB4302D4B21028A5
:10D9A00002D309782144CCB2DFF87CA0142202EB28
:10D9B00080005AF82510C968085820B14946284601
:10D9C00000F0A8F838BBDFF864800226642158F81C
:10D9D0002400FDF7FDF828B10A20FAF7F5FE761EBF
:10D9E000F6B2F3D2E6B102275AF82500594600688C
:10D9F000426B48469047060005D00A20FAF7E4FE3D
:10DA00007F1EFFB2F0D258F82400FDF769F916F135
:10DA1000020F05D016B12220BDE8F09F0020FBE7E1
:10DA20002320F9E7B8FF0008B4FF00080C710120BB
:10DA30002DE9FF5F884601F00F03334A04461021A9
:10DA400001EAD80018440127157807FA00F1654368
:10DA500003EB4503DDB2102802D312782A44D5B275
:10DA60002A4B53F82420D268D6680E424AD114219A
:10DA700001EB80099A4652F8090038B15FEA087054
:10DA800040D14146204600F045F8A8BBDFF880B001
:10DA9000022600BF5BF825006421FDF799F828B144
:10DAA0000A20FAF791FE761EF6B2F3D256B35AF870
:10DAB0002410CA6842F809705FF002075AF824007F
:10DAC000DDE902120068836B4046984706000BD0E0
:10DAD0000A20FAF779FE7F1EFFB2EFD25AF824002F
:10DAE0000021C26842F809105BF82500FDF7F8F83C
:10DAF00016F1020F06D01EB1222004B0BDE8F09F3F
:10DB00000020FAE72320F8E7B8FF0008B4FF000878
:10DB10000C7101202DE9F05F8A4601F00F020446E6
:10DB2000102101EADA00254910440B78634302EB27
:10DB30004302D5B2102802D309782944CDB2DFF8C8
:10DB4000808058F82410CA68142101EB800B52F829
:10DB50000B00002820D0DFF86C900226642159F8D1
:10DB60002500FDF735F828B10A20FAF72DFE761EBC
:10DB7000F6B2F3D27EB1022758F824000068016C97
:10DB800050468847060009D00A20FAF71DFE7F1E7E
:10DB9000FFB2F1D208E02320BDE8F09F58F824003E
:10DBA0000021C26842F80B1059F82500FDF798F8DB
:10DBB0000EB12220F0E70020EEE70000B8FF0008D9
:10DBC000B4FF00080C7101202DE9F04180460E469B
:10DBD000102001F00F0200EAD60011181548102994
:10DBE000047808FB04F302EB4302D4B202D30078BA
:10DBF0002044C4B2104F0225642157F82400FCF7DA
:10DC0000E7FF28B10A20FAF7DFFD6D1EEDB2F3D26F
:10DC100075B10A4951F828000068C16B3046884741
:10DC2000054657F82400FDF75BF82846BDE8F0816B
:10DC30000020FBE7B8FF00080C710120B4FF0008CA
:10DC40002DE9F047894601F00F020546102101EA4F
:10DC5000D900254910440B786B4302EB4302D4B240
:10DC6000102802D309782144CCB2DFF880A0142216
:10DC700002EB80005AF82510C968085820B14946BF
:10DC80002846FFF747FF38BBDFF86480022600BF55
:10DC900058F824006421FCF79BFF28B10A20FAF70A
:10DCA00093FD761EF6B2F3D2DEB102275AF82500B4
:10DCB0000068016B48468847060005D00A20FAF73D
:10DCC00083FD7F1EFFB2F1D258F82400FDF708F85B
:10DCD00016F1020F05D016B12220BDE8F087002012
:10DCE000FBE72320F9E70000B8FF0008B4FF0008B5
:10DCF0000C710120024951F820000068406800477B
:10DD0000B4FF0008024951F820000068006800478D
:10DD1000B4FF00082DE9F04791468A4605460324E2
:10DD2000164E08E056F825006421FCF751FF28B193
:10DD30000A20FAF749FD641EE4B2F3D2CCB1DFF851
:10DD400040800227494658F82500006882685046FE
:10DD50009047040005D00A20FAF736FD7F1EFFB277
:10DD6000F0D256F82500FCF7BBFF24B12220BDE815
:10DD7000F0872320FBE70020F9E700002C71012049
:10DD8000B4FF00082DE9F047894605460324164EE6
:10DD900009E000BF56F825006421FCF719FF28B1FF
:10DDA0000A20FAF711FD641EE4B2F3D2C4B1DFF821
:10DDB0003C80022758F825000068016948468847DA
:10DDC000040005D00A20FAF7FFFC7F1EFFB2F1D253
:10DDD00056F82500FCF784FF24B12220BDE8F08727
:10DDE0002320FBE70020F9E72C710120B4FF000895
:10DDF0002DE9F047894605460324164E09E000BF89
:10DE000056F825006421FCF7E3FE28B10A20FAF752
:10DE1000DBFC641EE4B2F3D2C4B1DFF83C8002271D
:10DE200058F825000068816A48468847040005D0F4
:10DE30000A20FAF7C9FC7F1EFFB2F1D256F825007E
:10DE4000FCF74EFF24B12220BDE8F0872320FBE73A
:10DE50000020F9E72C710120B4FF00082DE9F047FC
:10DE60000546DC4888460078854278D2DFF868931A
:10DE700059F82570002F72D0FC68002C6FD05FEA33
:10DE800048704FF0000632D594F8A000000621D566
:10DE9000D4F89C0010B994F8960020B12846FFF7FA
:10DEA00053FC20B30AE094F8970000B384F897601D
:10DEB0002846FFF775FA48B1012807D00122002152
:10DEC0002846FFF75BFDC4F89C6010E0284601F08F
:10DED000AAFC0CE0284601F09EFC40B960780106DF
:10DEE00005D500F07F0161702846FFF7A9FC5FEAC5
:10DEF000887045D594F8A00001063ED4D4F89C1053
:10DF000021B12846FFF752FC50B32EE094F8971049
:10DF100059B184F897602846FFF764FA08B10128E0
:10DF200023D1284601F072FC2AE0C0F34111E1B18F
:10DF300001291AD110F01F0017D0012802D00228A1
:10DF400013D10EE0284600F049F948B92846FAF7FF
:10DF50000BFD28B92846FAF70BFD08B905E04AE0A1
:10DF60000EE02846FAF7FCFCF7E70122802128465C
:10DF7000FFF704FDC4F89C6002E0284601F058FC5D
:10DF80005FEAC87037D02846C84659F82010C968DB
:10DF9000A031FFF72DFF00282DD12846FFF762FAA8
:10DFA0000121B8B3012863D1D4F8A80018B9D4F876
:10DFB000AC20002A5CD1B4F8A620F2B1C4F89800D5
:10DFC000D4F8AC00C4F89C0084F8971094F8A03002
:10DFD0001B0603D42846FFF7E9FB0AE0904205D26E
:10DFE0007A7D521E104201D184F896102846FFF720
:10DFF000ABFB00283CD1BDE8F08794F8A0000006F8
:10E00000284603D4BDE8F04701F000BCBDE8F04766
:10E0100001F009BCB868C4F89800B4F8A6007A8B7F
:10E02000904202D9C4F89C2001E0C4F89C0094F806
:10E03000A000C0F3411222B1012A7DD0022A17D1DB
:10E040009BE094F8A1000C2812D2DFE800F0061241
:10E05000AF14AF1A34AF3A505471284601F0B4F8F7
:10E060002CE02846FFF7E0F92846FFF76DFBE0B308
:10E070009CE0002100E00121284601F0FFF898B95A
:10E0800094E058F82500C06880B3B0F8A41069BBCC
:10E09000B0F8A61051BB90F8A010C90626D190F890
:10E0A000A21041F0800141702846FFF7BDF92846D3
:10E0B00001F0ACFB68E0284600F062FF0028D0D1F8
:10E0C00074E058F82500C06880B1B0F8A2206AB9A1
:10E0D000B0F8A42052B9B0F8A620012A66D190F871
:10E0E000A020D20662D1021D1EE04AE040E0284690
:10E0F00001F04CF9C3E758F82520CAB3D068B8B38B
:10E10000B0F8A230A3BBB0F8A630012B4ED190F8E6
:10E11000A03003F01F03012B48D1B0F8A430578A78
:10E12000BB4243D252681A44C0E9262199E703E072
:10E13000284601F05FFAA2E710F01F0036D0012850
:10E1400002D0022832D114E0284600F04BF958B929
:10E150002846FAF71DFC38B92846FAF711FC18B919
:10E160002846FAF711FC18B12846FFF75DF90BE0D5
:10E170001CE02846FAF700FCF5E7284600F0CAFF45
:10E180009CE7284601F04FFB94F8A00000063FF5FD
:10E1900032AFB4F8A60000283FF42DAF2846FFF7B1
:10E1A00005FB0028F8D00122802109E094F8A000A6
:10E1B0000006B4F8A60009D40028F4D001220021FA
:10E1C0002846FFF7DBFBC4F89C6014E70028EAD17F
:10E1D000F4E70000B0FF0008B4FF00082DE9F041AB
:10E1E000054618480078854226D2174850F8250081
:10E1F000C6680EB30024DFF85480154F19E000BF45
:10E2000058F8240098B1017FA94210D1B6F8A410A3
:10E21000407F81420BD196F8A100092807D1204602
:10E2200000F0B8FA18B1284601F0F0FA38B1641CD1
:10E23000E4B238788442E3D30020BDE8F0810120C5
:10E24000FBE70000B0FF0008B4FF00081C0101203C
:10E250001C0001082DE9F0473B4B1B78984271D216
:10E260003A4B53F820C0BCF1000F6BD0DCF80C40E7
:10E27000002C67D0B4F8A230DFF8D4901B0A354FD9
:10E28000354D212B02D0222B5CD131E000263346C4
:10E29000BA460FE05AF8237057B197F81C808045B2
:10E2A00006D1B4F8A4807F7FB84506D0761CF6B2BC
:10E2B0005B1CDBB22F78BB42ECD32D78AE4241D051
:10E2C0009CF81160254D94F8954066B164B155F8FD
:10E2D000200040690860044659F82300C0882044A3
:10E2E0000860092029E064BB55F820000069F1E7C7
:10E2F0000026334613E000BF57F823C0BCF1000FDF
:10E300000BD09CF81C80804507D1B4F8A4809CF801
:10E310001DC0E04507D0761CF6B25B1CDBB295F859
:10E3200000C06345E8D3287886420BD059F82340D3
:10E3300024680C6059F82300808810600120BDE833
:10E34000F087FFE70020FAE7B0FF0008B4FF0008FD
:10E35000180001081C0101201C0001080001012017
:10E36000F0B51B4A127890422FD21A4A52F8202058
:10E37000D56855B30023DFF860C0184F22E000BF16
:10E380005CF82340227882421AD1002202EBC206B6
:10E3900004EB460696F804E0BEF1000F0CD095F8A9
:10E3A000A2E07679B64507D10D4850F8230050F821
:10E3B000220008600120F0BD521CD2B2042AE5D32D
:10E3C0005B1CDBB23A789342DAD30020F0BD000048
:10E3D000B0FF0008B4FF0008ACFF0008A8FF000869
:10E3E00048FF00082DE9F05F5049804609788842CF
:10E3F00070D24F4951F82870002F6BD0FC68002C68
:10E4000068D000264FF0030A4FF0010BDFF824918B
:10E4100085E0494850F82650002D7ED0297F41459F
:10E420007BD1B4F8A410687F814276D194F8A10022
:10E430000C2872D2DFE800F071063E5171717171E3
:10E4400071234763304600F011F990B3B4F8A2008D
:10E45000BBEB102F06D1698ED4F89C00884263D89C
:10E46000E86808E0BAEB102F28D1E98ED4F89C00B8
:10E47000884259D86869401CC4F898001EE0B4F876
:10E48000A2000221B1EB102F06D1A98ED4F89C0076
:10E49000884249D8286908E0BAEB102F3AD1E98EB2
:10E4A000D4F89C0088423FD86869401CC4F89800A2
:10E4B00030E032E0304600F09DF811E04046FFF7D2
:10E4C00043F9C0B129E0B4F8A60018B9304600F00D
:10E4D00001F91AE028E0E8B11FE0304600F0A6F8A4
:10E4E000D8B1B868C4F89800D4F89C000128E5D9E0
:10E4F000C4F89CB0E2E7404601F095F9EBE7B4F8C8
:10E50000A60088B9304600F025F930B1404601F048
:10E510007DF9E0E70120BDE8F09F761CF6B299F89E
:10E5200000008642FFF475AF0020F4E7B0FF00085A
:10E53000B4FF00081C0001081C0101202DE9F04176
:10E540001C4615460E460746FEF700FB002807D17D
:10E5500023462A4631463846BDE8F041FFF768BAFF
:10E56000BDE8F08170B50C460546FEF7EFFA08B13C
:10E57000002070BD21462846BDE87040FFF724BB4F
:10E580002DE9F0411D4616460C460746FEF7DEFA19
:10E59000002808D144F080012B4632463846BDE8B9
:10E5A000F041FFF745BABDE8F08100000D49097858
:10E5B000884212D20C4951F8200070B1816961B1D2
:10E5C0000A49007F0978884209D2094951F8200098
:10E5D00028B1C06818B1002070472820704721205A
:10E5E000704700001C0001081C010120B0FF00085A
:10E5F000B4FF000810B50446FFF7D8FF08B10020AB
:10E6000010BD0848084A50F82400017F806852F87D
:10E610002110CA68896892F8A220805C08700120E5
:10E6200010BD00001C010120B4FF000810B5044615
:10E63000FFF7BCFF88B90A4850F8240068B180474A
:10E6400000280ADB0749084A51F82410097F52F8CC
:10E65000211089680870012010BD002010BD000045
:10E660001CFB00081C010120B4FF000870B5164D0A
:10E670000446164955F82400007F51F82000C6686A
:10E680002046FFF793FFE0B9B6F8A210080A012868
:10E6900004D0022815D0032813D103E055F8242014
:10E6A000D36802E055F824205369094A5B1C52F8EC
:10E6B000244034B1CAB20021A047002801DB012068
:10E6C00070BD002070BD00001C010120B4FF0008D7
:10E6D00020FB000870B50446FFF768FF08B1002072
:10E6E00070BD194A194952F82430187F51F820009A
:10E6F000C068B0F8A21011F0FF0F05D00A0A9B689D
:10E70000C9B2491E5A540EE0002106E0B0F8A250EA
:10E710009B682D0A5D54491CC9B252F8243093F805
:10E7200030508D42F2D890F8A20010F0FF0F084848
:10E7300050F8240004D00421FCF702FC012070BD35
:10E74000FCF726FCFAE700001C010120B4FF0008DA
:10E750008875012010B50446FFF728FF88B90A48DC
:10E7600050F8241069B10948094A50F82400007F84
:10E7700052F82000C06890F8A200884708B1012034
:10E7800010BD002010BD000028FB00081C01012066
:10E79000B4FF0008F8B5184F0446184957F824008C
:10E7A0000025007F51F82000C6682046FFF7FEFED6
:10E7B000F8B9B6F8A210080A01281AD0022802D027
:10E7C000032816D103E057F82420136902E057F814
:10E7D000242053690A4A5B1C52F824404CB1B6F815
:10E7E000A6200092CAB20021A047050001D0012056
:10E7F000F8BD2846F8BD00001C010120B4FF000848
:10E800002CFB000870B50C460546FFF7CFFE00282C
:10E810000DD1074850F82500C17FA14207D1826978
:10E82000838E007FD268BDE87040FFF701B970BDEC
:10E830001C0101202DE9F0470746FFF7B7FE00282D
:10E8400079D1594850F82750AC69E08AA18ADFF89D
:10E850005C914FF0000888421DD3207FD8B9C4F8DE
:10E860000880A4F8168059F8276036B1E868431C80
:10E87000027801210846B047A082A08A58B1E86812
:10E88000A06095F83010012902D8401CA06002E079
:10E89000A08A401CA082A08A4FF0010A10BB207FF2
:10E8A00000BB607810B184F8018047E06368CBB1A9
:10E8B00095F83020012A16D8E96881F80080A4F87C
:10E8C000168059F8276036B1EB680022022101203A
:10E8D0005B1CB047A082A08A10B1E868401CA06011
:10E8E000C4F804802AE0607F411CCEB2B24200D25C
:10E8F00000260AFA06F10B421ED0E968701C087067
:10E90000A4F8168059F827C0BCF1000F06D0C2B297
:10E91000EB68022101205B1CE047A082A08A20B1A5
:10E92000E868A060A08A401CA08261680AFA06F02C
:10E930008143616002E02BE0B042D7D1A08A08B9E0
:10E94000207F50B3287F1A4951F82010CF68A18A40
:10E95000E28A891A8EB2A97F334641F08001A2680B
:10E96000FFF766F8A0683044A060E08A304480B2C7
:10E97000E082698E884209D297F8950005EB400045
:10E98000808CB6FBF0F100FB116018B184F81C809C
:10E99000BDE8F08784F81CA0FAE7064850F8270085
:10E9A000BDE8F047FCF79CB91C01012020FB0008E2
:10E9B000B4FF0008807501202DE9F8430646FFF7F3
:10E9C000F5FD002839D11E48002750F82640A569DA
:10E9D00094F81C80288B10B92069E8602F83E17FB0
:10E9E0004046FFF7F1F8E96882B21144E960298BEB
:10E9F000084480B21349288394F8312051F82660E6
:10EA0000012A04D876B100900022236905E04EB1B6
:10EA1000401E00902069431C027801210220B0476B
:10EA200000280AD02269EA602F83A38EE17F01B01B
:10EA30004046BDE8F043FEF7FBBFBDE8F8830000A9
:10EA40001C0101202CFB00082DE9F0471F469246CF
:10EA500088468146FFF7AAFD06003AD11E4951F8C3
:10EA600029401E49207FA56951F82000618EC068A9
:10EA7000B94201D202262CE0007940B1184951F880
:10EA800029000021FCF7A4F818B1232621E025264F
:10EA90001FE001206870E1683A4681F80080E06874
:10EAA0005146401CF1F74BFCE0680021A860E98268
:10EAB000AF8294F83020012A02D8401CA86002E0FE
:10EAC000A88A401CA8822268484622F81810FFF73E
:10EAD000B1FE3046BDE8F0871C010120B4FF0008FC
:10EAE0008075012070B50446FFF760FD05002CD14C
:10EAF000174850F8240000B18047164E56F82400FD
:10EB000030B921460520FCF707F946F8240020B16A
:10EB1000114E56F8240010B107E0102515E02046EC
:10EB2000FCF7EEF946F8240020B10C4E56F824000C
:10EB300010B10AE0112508E0002221460220FCF76E
:10EB400077F846F8240000B91225284670BD000069
:10EB500024FB000884750120887501208075012040
:10EB60002DE9F0410546FFF721FD002826D1144884
:10EB700050F825401348A66950F8250008B1FCF765
:10EB800007FAA07F20B140F08001207FFEF7C2FF8E
:10EB9000E17F11B1207FFEF7BDFF0B4F57F8250035
:10EBA00030B10021FCF714F857F82500FCF798F86D
:10EBB00020213046F1F7DCFB2069F060BDE8F081F0
:10EBC0001C010120887501208075012070B5044664
:10EBD000FFF7ECFC002815D100210B4A7D2303E050
:10EBE00080684354491CC9B252F8240090F8305050
:10EBF0008D42F5D80548042150F82400BDE8704046
:10EC0000FCF79EB970BD00001C0101208875012031
:10EC100070B5C4B22046FFF7C9FC002811D1451ECB
:10EC20002846FCF735F90101FAD4060AB00702D5E7
:10EC30002046FFF7C1FE7007F2D52046FFF7FAFD28
:10EC4000EEE770BD2DE9F047C4B22046FFF7AEFCF9
:10EC500000287AD14448454950F82420107F936910
:10EC600051F82000C068017900296ED05988091D2B
:10EC700089B2598090F8950038B1508C38B13C4D2C
:10EC800005EB400030F8020C02E0108C00B90120C6
:10EC90004FF0000CE246814203D1A3F802A04FF0EE
:10ECA000010C0021012545E017680026B94637F818
:10ECB00011704FF6FC78474502D23F1D29F81170BC
:10ECC000576837F811704FB1D2F80080C14638F854
:10ECD0001180B84502D329F811A0012697687F5CFE
:10ECE000B0EB870F02D90FB1012700E0002717EA28
:10ECF0000C0F01D1BE4304D05E6805FA01F73E4314
:10ED00005E6096685768765C37F81170B600B74257
:10ED10000ED056B1176837F81170B74205D35F6847
:10ED200005FA01F847EA08075F60576827F811609D
:10ED3000491CC9B292F830608E42B5D8586808B103
:10ED40005A7822B18D40A8435860BDE8F087094841
:10ED5000002150F82400FBF73BFF0028F5D12046A6
:10ED6000BDE8F047FFF766BD1C010120B4FF0008B5
:10ED70007EF80008807501202DE9F0410446FFF778
:10ED800015FC05001BD10F4E002756F8240030B1AA
:10ED9000FBF79EFF08B1122511E046F824700A4ED9
:10EDA00056F8240030B1FCF7A3F808B1102506E0AE
:10EDB00046F82470054850F8240000B180472846E2
:10EDC000BDE8F081807501208475012030FB0008CA
:10EDD0002DE9F05F0446FDF7B9FE050078D15C48E7
:10EDE00050F82400C768387810B10020BDE8F09FC3
:10EDF0002046FEF787FF574901EB84010860204653
:10EE0000FEF778FF544941F82400B0213846F1F765
:10EE1000AFFADFF84CA1DFF84491DFF848B19AF877
:10EE2000000059F8241004FB00F639B900222146ED
:10EE30001046FBF7FDFE49F8240078B3002510E0EA
:10EE400005EB460000F0FF085BF8280038B92A46B9
:10EE500021460120FBF7ECFE4BF82800F0B16D1CB9
:10EE6000EDB29AF80000B5EB400FE9D33E4850F8F8
:10EE70002400426A3AB1364850F82400C18A11B1E0
:10EE80001046F1F775FA394850F8240000B1804770
:10EE90002046F9F79DFB050023D102E0FFE712258C
:10EEA0001FE0334D55F8240030B921460020FBF710
:10EEB00033FF45F8240060B12E4850F824202E4836
:10EEC00050F824102046FEF725FF050009D102E086
:10EED0003BE010250EE002212046FEF753FF05001F
:10EEE00012D0234F57F8240020B1FCF701F800207E
:10EEF00047F824002046F9F787FB204850F8240003
:10EF000000B18047002712E0012038701DE000BFEB
:10EF100007EB460000F0FF085BF8281029B108460F
:10EF2000FBF7D6FE00204BF828007F1CFFB29AF8B2
:10EF30000000B7EB400FEBD359F824004E4620B148
:10EF4000FBF7C6FE002046F8240028464EE70000E6
:10EF5000B4FF000830710120C47001202C71012021
:10EF6000B8FF00080C71012000010120F4FA00082C
:10EF7000C8700120B0FE0008ACFE000804FB0008C9
:10EF80002DE9F0415F490978884273D25E4951F812
:10EF90002060002E6ED0F568002D6BD0B5F8A6105D
:10EFA000002967D095F8A010584C11F01F0102D02D
:10EFB00001295FD186E0B5F8A2205549130A082B34
:10EFC00058D2DFE803F090041D5890900E3F12F0E5
:10EFD000FF0F4FD151F820004068C5F8980012206B
:10EFE0006EE0727C002A7ED095F8952051F82000C2
:10EFF00022B1C068C5F898000A2061E08068F9E78E
:10F00000737C002B95F8953007D03BB151F8200068
:10F01000406920600020D2B20BE05BBB51F82000B9
:10F020000069F6E721680B7813B14B881944216019
:10F03000401C8242F6D120680178D9B1C5F8980009
:10F0400040883DE0737CABB195F8953051F82000D5
:10F0500023B1C06920600020D2B208E08069F9E7DE
:10F0600021680B7813B14B8819442160401C8242FF
:10F07000F6D1E0E737E0D2B2032A05D151F82030CB
:10F080005B6A0BB11F782FB9EE2A05D151F82030F9
:10F090009B6A0BB123600DE051F82000006A2060EC
:10F0A000002005E02368197809B119442160401C4B
:10F0B0008242F7D120680178A9B1C5F8980000789C
:10F0C000606009E0114A121D111FFFF7C3F8002804
:10F0D0000AD02068C5F89800B5F8A6006168884293
:10F0E00004D3084603E00020BDE8F0816060C5F865
:10F0F0009C00717D491E014202D1012085F89600D5
:10F100000120F1E7B0FF0008B4FF00080000012073
:10F110000001012070B528490978884220D227498A
:10F1200051F82060E6B1F468D4B194F8A110327EB1
:10F13000914215D1B4F8A210090A11D1B4F8A61061
:10F1400071B194F8A0101E4D11F01F0102D00129D9
:10F1500006D10EE0B4F8A410042903D005290CD080
:10F16000002070BD174951F82000C06A80B1A86026
:10F170000AE0B4F8A41005290AD111490831FFF7B3
:10F18000EFF80028EDD0A868C4F898000068E8609F
:10F19000B4F8A600E968884201D3084600E0E860B8
:10F1A000C4F89C00717D491E014202D1012084F8FF
:10F1B0009600012070BD0000B0FF0008B4FF0008F9
:10F1C0000000012000010120F0B52A490978884299
:10F1D0004ED2294951F82020F2B3D068002846D0F9
:10F1E000926800F19801BAB3B0F8A230A3BBB0F8AE
:10F1F000A630022B3CD190F8A0304FF0020613F05D
:10F200001F0305D00024012B09D0022B30D110E0C0
:10F21000B0F8A42002BB801CC1E9000626E00379F7
:10F22000D3B190F8A43090F89400834220D21470A7
:10F2300019E090F8A430102703F08F0505F00F03B4
:10F2400007EAD5071F440123BB4007790FB92D07F3
:10F250000ED185681D4200E00AE009D0C068184060
:10F2600000D0012010705470C1E900260120F0BDCB
:10F270000020F0BDB0FF0008B4FF00082DE9F04108
:10F2800007463E480078874268D23D4850F827003C
:10F29000C468002C62D0B4F8A60000285ED194F8AF
:10F2A000A00010F01F0004D0012857D0022855D12B
:10F2B00017E0B4F8A200012850D141B1314850F80C
:10F2C000270000B18047608840F0020007E02E4828
:10F2D00050F8270000B18047608820F0020060806D
:10F2E0004AE094F8A400102200F08F0606F00F0008
:10F2F00002EAD602104401252279854072B3A26841
:10F300002A422BD0B4F8A220B2BB320726D0C9B112
:10F31000E168294230D104EB8000406920B13146D8
:10F320003846FEF7F7FBC8B9012231463846FEF7EA
:10F3300025FB98B9E06831462843E0603846F9F784
:10F340002BFD19E0E068284216D02069284213D12D
:10F35000002231463846FEF711FB10B10020BDE80F
:10F36000F081E0683146A843E0603846F9F7F4FAE6
:10F3700031463846F9F7E8FC0120F0E7B0FF000815
:10F38000B4FF0008DCFA0008D8FA00082DE9FC5F99
:10F3900094498046097888427ED2934951F8287072
:10F3A000002F79D0FC68002CFBD0B4F8A400002812
:10F3B00072D1B4F8A6000028FAD1009094F8A00009
:10F3C00010F01F0FF4D194F8A2004FF0000A10F0D3
:10F3D000FF0F4FF0010B4FF4803977D0797C8348D1
:10F3E000002994F8951004D029B150F828004569F7
:10F3F0009DE00029DCD150F82800056997E0687885
:10F40000022804D0042868D0052863D168E069790F
:10F4100094F8A20081425ED129797A8A91423BD840
:10F420002071287984F89400002003E07A6802F8BB
:10F4300000A0401C798A8142F8D80126A1680BFA05
:10F4400006F0014213D004EB8600406928B1314632
:10F450004046FEF75FFB00281ED131464046FEF7CE
:10F46000EFFB002818D131464046F9F795FCA1681A
:10F4700009FA06F0014218D004EB8600406D30B165
:10F4800046F080014046FEF745FB002804D146F0D7
:10F4900080014046019100E075E0FEF7D1FB0028B5
:10F4A00071D140460199F9F777FC761CF6B2102E1F
:10F4B000C4D34FF00110C4E9020AC4F810A0E879DF
:10F4C0004006608803D540F0010002E034E020F0FF
:10F4D0000100608029E0688828E0E878009024E056
:10F4E000009810BBA878102200F08F0101F00F00E7
:10F4F00002EAD10210440BFA00F604EB80004069E6
:10F5000018B14046FEF706FBE8BBA0683043A06098
:10F51000E878AB8800F00302A9784046FEF7C6F908
:10F5200088BBA9784046F9F70FFC2878054428786D
:10F5300000287FF464AF41E0564684F804A001251A
:10F540004FEA0B07A16807FA05F0014211D004EB5E
:10F550008500406920B129464046FEF7DBFA90B9A4
:10F5600029464046FEF76CFB68B929464046F9F744
:10F5700013FCA16809FA05F0014216D004EB8500DE
:10F58000406D38B100E02BE045F080014046FEF7C9
:10F59000C1FA28BB45F080018A464046FEF750FB81
:10F5A000F0B951464046F9F7F7FB6D1CEDB2102D4E
:10F5B000C8D34FF00110C4E902062661207994F8FF
:10F5C000A21088420CD121794046FBF791FB0848F4
:10F5D00050F8281009B1207988470120BDE8FC9F28
:10F5E0000020FBE7B0FF0008B4FF00080001012085
:10F5F000D4FA00082DE9FE4F07466148007887429B
:10F600007ED2604850F82760002E79D0F468002C34
:10F6100076D0B4F8A600002872D18346CDF808B0A1
:10F6200094F8A000D84600F01F00DA46D946012819
:10F6300066D12079002871D0717C5348002994F854
:10F64000951004D029B150F8270045698CE00029B5
:10F6500056D150F82700056986E06878022804D062
:10F66000042808D005287DD11FE0687921798842D7
:10F6700078D0688877E0B4F8A400718A88426AD2AA
:10F6800095F8028095F803A04FF0000B404569D132
:10F69000B4F8A210514565D170684FF0010910F817
:10F6A0000810029100F808A05CE0B4F8A4104145ED
:10F6B00058D1A878102200F08F0000F00F010090C0
:10F6C00002EAD0000844012181400191B4F8A2204F
:10F6D000524524D1A168019A04EB80001143A16036
:10F6E000E168019A9143E160406920B13846009990
:10F6F000FEF710FA20B9E878AB8800F0030200E0CA
:10F7000029E0A9783846FEF7D1F820BB38460099A1
:10F71000F9F71AFB01994BEA010B23E01CE0029A6E
:10F7200092451FD1019A1BEA020F1BD1A16804EB7D
:10F7300080009143A160E168019A9143E1604069D2
:10F7400020B138460099FEF7E5F920B9384600990E
:10F75000FEF776FA10B10020BDE8FE8F384600991A
:10F76000F9F71AFB28780544287800287FF475AF4C
:10F77000B9F1000F01D084F805804846ECE700009D
:10F78000B0FF0008B4FF00080001012070B5084D6B
:10F790000446AF2155F82400C068401CF0F7E8FD8E
:10F7A00055F82400017CC068C1F38011418070BD10
:10F7B000B4FF0008024A52F82000FBF761BB0000CA
:10F7C000C8700120F0B40E4D01F00F03102455F85D
:10F7D000205004EAD1011944ED68142606EB81019A
:10F7E00000246C50190341EA0221064A127800FBFA
:10F7F0000230054A52F820000068F0BCFBF740BB1D
:10F80000B4FF0008B8FF00080401012000231A46D5
:10F810008021FEF70DB910B58021FEF7D5F900283B
:10F8200000D0222010BD00231A461946FEF700B969
:10F8300010B504460021FEF7C7F908B1222010BD1B
:10F84000064850F82400C068406D0028F7D02046D4
:10F85000BDE810408021FEF75DB90000B4FF00084C
:10F8600002E008C8121F08C1002AFAD17047704789
:10F87000002001E001C1121F002AFBD170470100E6
:10F880000100010001000200040008001000200037
:10F890004000800000010002000400080010000089
:10F8A00003000000E803000005000000F84B012001
:10F8B0002000000000000000000000000000000028
:10F8C000000000000000000000000000784C012053
:10F8D0000010000000000000000000000000000018
:10F8E0000000000000000000000000000000000018
:10F8F000000000000004000038FB000874FB000852
:10F900005CFB0008040000009C5D0120BC5F01203E
:10F91000C06D0120E06D012000000000000000002B
:10F920000000000000000000FC5C01209C5D012044
:10F930000000000000000000785C0120AC5C0120A9
:10F94000000000000000000001020304060708098F
:10F95000000000000102030400000000000000009D
:10F960000000000000000000000000000000000097
:10F97000180000000000000000000000A985000839
:10F98000E16E0008516F0008D1710008696F00082E
:10F9900019700008796F000809710008416F0008AC
:10F9A000196F0008D16E0008296F0008B1700008B7
:10F9B000E96E000801950008D194000851A60008DE
:10F9C000A1AF000881A6000891880008B988000846
:10F9D000E1880008F98800083189000881A9000839
:10F9E0009989000871900008018B0008B98D000802
:10F9F00049900008218F0008D9940008000C0240AB
:10FA0000040008000000000019060000005000403B
:10FA10004930000800000000FCF900080000000068
:10FA200000000000000000003500000000000000A1
:10FA3000000000001E000000CC010120F4010120A4
:10FA400039060000001401407130000884FA0008F3
:10FA500078FA00080000000000000000000000002C
:10FA60004700000000000000000000001E00000031
:10FA7000E0010120180201200018024000020800E5
:10FA800000000000001802400040080000000000D4
:10FA90000000000000000000000200002000000044
:10FAA0000002000020000000000200002000000012
:10FAB00041860008498600085186000859860008DA
:10FAC000598700088987000891870008B9870008CE
:10FAD000C1870008198800082188000829880008C3
:10FAE00031880008398800084188000849880008E2
:10FAF0005988000861880008698800087188000832
:10FB000079880008818800088988000800000000C2
:10FB10006186000849870008518700081195000890
:10FB2000199500087995000899950008A195000895
:10FB300029960008000000000000000000000000FE
:10FB40009C5D012044000000C05F01200001000016
:10FB500001000000000000000000000000000000A4
:10FB600000000000785C012034000000AC5C012043
:10FB7000500000000000000000000000E05D0120D7
:10FB800044000000C06001200001000018000000D7
:10FB90000000000000000000555342445F48494403
:10FBA000305F54687265616400555342445F437529
:10FBB00073746F6D436C617373305F4550315F5484
:10FBC000687265616400555342445F437573746F96
:10FBD0006D436C617373305F4550325F546872657A
:10FBE000616400555342445F437573746F6D436C99
:10FBF000617373305F4550335F54687265616400B0
:10FC000055534244305F436F72655F54687265615B
:10FC1000640000005254582056352E352E31000015
:10FC20000902470002010080FA0904000003FF00F6
:10FC300000040705010240000007058102400000A2
:10FC400007058202400000090401000203000005CC
:10FC5000092111010001222300070583034000014F
:10FC6000070503034000010009024700020100806C
:10FC7000FA0904000003FF00000407050102000266
:10FC80000007058102000200070582020002000948
:10FC900004010002030000050921110100012223D3
:10FCA00000070583030002010705030300020100AA
:10FCB00000FC000800000000245E01204400000059
:10FCC000C0610120000200002000000000000000D0
:10FCD00000000000B4F90008E16D0120A06E0120D1
:10FCE000E46D0120800102000540100001000002C7
:10FCF000120100020000004083042F57000101029E
:10FD0000030100000A06000200000040010000009C
:10FD10000A06000200000040010000000705000084
:10FD20004000000028000000000104000100000065
:10FD300000000000000157494E55534200000000EA
:10FD400000000000000000000000000012034D0051
:10FD50005300460054003100300030000100000024
:10FD60000907470002010080FA0904000003FF00B0
:10FD700000040705010200020007058102000200DD
:10FD800007058202000200090401000203000005C9
:10FD9000092111010001222300070583030002014C
:10FDA0000705030300020100090747000201008064
:10FDB000FA0904000003FF000004070501024000E7
:10FDC000000705810240000007058202400000098B
:10FDD0000401000203000005092111010001222392
:10FDE00000070583034000010705030340000100ED
:10FDF000040309041C0352006100640069006F00E1
:10FE00004F00700065007200610074006F007200A6
:10FE1000280343004D005300490053002D004400C7
:10FE2000410050002000480069006700680053004E
:10FE300070006500650064001A0330003000300077
:10FE40003100410030003000300030003000300020
:10FE500030002E0343004D005300490053002D0095
:10FE6000440041005000200076003200200048008D
:10FE700053002D00570069006E00550053004200EA
:10FE8000280343004D005300490053002D00440057
:10FE9000410050002000760031002000480053004F
:10FEA0002D0048004900440000000000B98500080A
:10FEB000C18500088E0000000001050001008400DB
:10FEC0000000010000002800440065007600690081
:10FED0006300650049006E007400650072006600F2
:10FEE00061006300650047005500490044000000C0
:10FEF0004E0000007B0043004400420033004200FB
:10FF00003500410044002D0032003900330042002A
:10FF10002D0034003600360033002D004100410032
:10FF2000330036002D00310041004100450034000F
:10FF300036003400360033003700370036007D00CD
:10FF40000000000000000000F000012011FC00088B
:10FF5000A9FB0008C6FB0008E3FB00080000060040
:10FF6000010001010181018200030083000400847B
:10FF7000008400010003008300020082000300836C
:10FF800000040084000200040084000200820003D8
:10FF9000008300040084000300010081000200824D
:10FFA0000003008300040084010000005CFF0008DF
:10FFB00001000000D4FC000804000000367101209C
:10FFC000387101203A7101203C71012040730120F9
:10FFD000347101206075012000010303010002005B
:10FFE0004000000201000200400000020101000286
:10FFF000000201000600FF0901A101150026FF0013
:020000040801F1
:100000007508960002090181029600020901910219
:1000100095010901B102C000140101200100000096
:1000200098FB00086000010800000120200100008A
:1000300060F8000880010108200101207094000090
:1000400070F80008D782950300000000000000004F
:1000500000000000000000000000000000000000A0
:100060000000000000000000000000000000000090
:1000700001000000100000000024F40014FC00083F
:10008000D1B3FB02000000000000000000000000EF
:100090000000000000000000000000000000000060
:1000A0000000000000000000000000000000000050
:1000B0000000000000000000000000000000000040
:1000C0000000000000000000000000000000000030
:1000D0000000000000000000000000000000000020
:1000E0000000000000000000000000000000000010
:1000F0000000000000000000000000000000000000
:1001000000000000000000000000000000000000EF
:1001100000000000000000000000000000000000DF
:100120001CFD0008F0FC000804FD000810FD00089C
:1001300020FC000868FC000860FD0008A8FD00081D
:10014000F0FD0008A07001204CFD000824FD00080F
:10015000B4FE000842FF000843FF000844FF000807
:10016000C0000120C8700120D0700120D47001208F
:1001700084750120F4FF000823003000BCFF000854
:04000005080001E10D
:00000001FF
